:020000040800F2
:1000000000000220196C00080522000807220008E1
:10001000092200080B2200080D2200080000000041
:100020000000000000000000000000000F22000897
:100030001122000800000000132200081522000809
:10004000696C0008696C0008696C0008696C00083C
:10005000696C0008696C0008696C0008696C00082C
:1000600041220008696C0008696C0008696C00088E
:10007000696C0008696C0008696C0008696C00080C
:10008000696C00084D220008696C0008000000003F
:10009000000000000000000000000000696C000883
:1000A000696C0008696C0008696C0008696C0008DC
:1000B000696C0008696C0008696C0008696C0008CC
:1000C000696C0008696C0008696C0008696C0008BC
:1000D000696C0008696C0008696C00080000000089
:1000E000696C0008696C0008696C00080000000079
:1000F000000000000000000000000000696C000823
:1001000000000000696C0008696C0008696C000858
:1001100000000000000000000000000000000000DF
:10012000696C0008696C0008696C0008696C00085B
:10013000696C0008000000000000000000000000E2
:10014000000000000000000000000000696C0008D2
:10015000696C0008696C0008696C0008696C00082B
:10016000696C0008696C00080000000000000000D5
:10017000000000000000000000000000000000007F
:1001800000000000696C0008000000000000000092
:08019000696C0008696C0008AD
:1001A00010B5054C237833B9044B13B10448AFF3B1
:1001B00000800123237010BDCC000020000000004F
:1001C000BC75000808B5034B1BB103490348AFF3E6
:1001D000008008BD00000000D0000020BC750008B1
:1001E000034613F8012B002AFBD1181A0138704777
:1001F00001F0FF01102A2BDB10F0070F08D010F8D8
:10020000013B013A8B422DD010F0070F42B3F6D1DB
:10021000F0B441EA012141EA014122F007047FF0F4
:1002200000070023F0E80256083C85EA010586EA4B
:10023000010685FA47F5A3FA87F586FA47F6A5FA87
:1002400087F68EB9EED1F0BC01F0FF0102F0070293
:1002500032B110F8013B013A83EA010313B1F8D13E
:100260000020704701387047002D06BF354603381F
:10027000073815F0010F07D1013015F4807F02BF58
:10028000013015F4C03F0130F0BC0138704700BFA9
:1002900081F0004102E000BF83F0004330B54FEA37
:1002A00041044FEA430594EA050F08BF90EA020FA4
:1002B0001FBF54EA000C55EA020C7FEA645C7FEA37
:1002C000655C00F0E2804FEA5454D4EB5555B8BF5A
:1002D0006D420CDD2C4480EA020281EA030382EACB
:1002E000000083EA010180EA020281EA0303362D5D
:1002F00088BF30BD11F0004F4FEA01314FF4801C30
:100300004CEA113102D0404261EB410113F0004F41
:100310004FEA03334CEA133302D0524263EB4303F8
:1003200094EA050F00F0A780A4F10104D5F1200E96
:100330000DDB02FA0EFC22FA05F2801841F10001F1
:1003400003FA0EF2801843FA05F359410EE0A5F1C5
:1003500020050EF1200E012A03FA0EFC28BF4CF0F6
:10036000020C43FA05F3C01851EBE37101F00045AC
:1003700007D54FF0000EDCF1000C7EEB00006EEBB9
:100380000101B1F5801F1BD3B1F5001F0CD3490843
:100390005FEA30004FEA3C0C04F101044FEA44529A
:1003A00012F5800F80F09A80BCF1004F08BF5FEA21
:1003B000500C50F1000041EB045141EA050130BD01
:1003C0005FEA4C0C404141EB0101013C28BFB1F513
:1003D000801FE9D291F0000F04BF01460020B1FA5E
:1003E00081F308BF2033A3F10B03B3F120020CDA31
:1003F0000C3208DD02F1140CC2F10C0201FA0CF00F
:1004000021FA02F10CE002F11402D8BFC2F1200C73
:1004100001FA02F120FA0CFCDCBF41EA0C01904029
:10042000E41AA2BF01EB0451294330BD6FEA040472
:100430001F3C1CDA0C340EDC04F11404C4F120025D
:1004400020FA04F001FA02F340EA030021FA04F36F
:1004500045EA030130BDC4F10C04C4F1200220FAC6
:1004600002F001FA04F340EA0300294630BD21FA04
:1004700004F0294630BD94F0000F83F4801306BFCA
:1004800081F480110134013D4EE77FEA645C18BFBE
:100490007FEA655C29D094EA050F08BF90EA020F55
:1004A00005D054EA000C04BF1946104630BD91EA4D
:1004B000030F1EBF0021002030BD5FEA545C05D150
:1004C0004000494128BF41F0004130BD14F580048F
:1004D0003CBF01F5801130BD01F0004545F0FE4103
:1004E00041F470014FF0000030BD7FEA645C1ABF38
:1004F000194610467FEA655C1CBF0B46024650EA6F
:10050000013406BF52EA033591EA030F41F400219A
:1005100030BD00BF90F0000F04BF0021704730B520
:100520004FF4806404F132044FF000054FF00001F5
:1005300050E700BF90F0000F04BF0021704730B5B6
:100540004FF4806404F1320410F0004548BF40428B
:100550004FF000013EE700BF42004FEAE2014FEAE0
:1005600031014FEA02701FBF12F07F4393F07F4FBB
:1005700081F06051704732F07F4208BF704793F0BE
:100580007F4F04BF41F40021704730B54FF46074D1
:1005900001F0004521F000411CE700BF50EA0102D4
:1005A00008BF704730B54FF000050AE050EA01027D
:1005B00008BF704730B511F0004502D5404261EBED
:1005C00041014FF4806404F132045FEA915C3FF42E
:1005D000D8AE4FF003025FEADC0C18BF03325FEACB
:1005E000DC0C18BF033202EBDC02C2F1200300FA7C
:1005F00003FC20FA02F001FA03FE40EA0E0021FAA1
:1006000002F11444BDE600BF70B54FF0FF0C4CF48E
:10061000E06C1CEA11541DBF1CEA135594EA0C0F40
:1006200095EA0C0F00F0DEF82C4481EA030621EA7B
:100630004C5123EA4C5350EA013518BF52EA0335B6
:1006400041F4801143F4801338D0A0FB02CE4FF068
:100650000005E1FB02E506F00042E0FB03E54FF098
:100660000006E1FB03569CF0000F18BF4EF0010E90
:10067000A4F1FF04B6F5007F64F5407404D25FEA8C
:100680004E0E6D4146EB060642EAC62141EA55513F
:100690004FEAC52040EA5E504FEACE2EB4F1FD0C81
:1006A00088BFBCF5E06F1ED8BEF1004F08BF5FEAFF
:1006B000500E50F1000041EB045170BD06F00046B1
:1006C00046EA010140EA020081EA0301B4EB5C045E
:1006D000C2BFD4EB0C0541EA045170BD41F4801156
:1006E0004FF0000E013C00F3AB8014F1360FDEBF7B
:1006F000002001F0004170BDC4F10004203C35DA57
:100700000C341BDC04F11404C4F1200500FA05F3D9
:1007100020FA04F001FA05F240EA020001F000427A
:1007200021F0004110EBD37021FA04F642EB0601F0
:100730005EEA430E08BF20EAD37070BDC4F10C041A
:10074000C4F1200500FA04F320FA05F001FA04F2DE
:1007500040EA020001F0004110EBD37041F10001CA
:100760005EEA430E08BF20EAD37070BDC4F12005D5
:1007700000FA05F24EEA020E20FA04F301FA05F23D
:1007800043EA020321FA04F001F0004121FA04F2E5
:1007900020EA020000EBD3705EEA430E08BF20EAB5
:1007A000D37070BD94F0000F0FD101F000464000EF
:1007B00041EB010111F4801F08BF013CF7D041EA71
:1007C000060195F0000F18BF704703F00046520075
:1007D00043EB030313F4801F08BF013DF7D043EA46
:1007E0000603704794EA0C0F0CEA135518BF95EAFC
:1007F0000C0F0CD050EA410618BF52EA4306D1D183
:1008000081EA030101F000414FF0000070BD50EAA1
:10081000410606BF1046194652EA430619D094EA2B
:100820000C0F02D150EA013613D195EA0C0F05D115
:1008300052EA03361CBF104619460AD181EA030169
:1008400001F0004141F0FE4141F470014FF0000021
:1008500070BD41F0FE4141F4780170BD70B54FF0BC
:10086000FF0C4CF4E06C1CEA11541DBF1CEA13553C
:1008700094EA0C0F95EA0C0F00F0A7F8A4EB05041E
:1008800081EA030E52EA03354FEA013100F0888015
:100890004FEA03334FF0805545EA131343EA1263DE
:1008A0004FEA022245EA111545EA10654FEA002693
:1008B0000EF000419D4208BF964244F1FD0404F54C
:1008C000407402D25B084FEA3202B61A65EB0305A8
:1008D0005B084FEA32024FF480104FF4002CB6EB65
:1008E000020E75EB030E22BFB61A754640EA0C00E5
:1008F0005B084FEA3202B6EB020E75EB030E22BF25
:10090000B61A754640EA5C005B084FEA3202B6EB65
:10091000020E75EB030E22BFB61A754640EA9C0024
:100920005B084FEA3202B6EB020E75EB030E22BFF4
:10093000B61A754640EADC0055EA060E18D04FEAB2
:10094000051545EA16754FEA06164FEAC30343EA52
:1009500052734FEAC2025FEA1C1CC0D111F4801F1F
:100960000BD141EA00014FF000004FF0004CB6E718
:1009700011F4801F04BF01430020B4F1FD0C88BFB7
:10098000BCF5E06F3FF6AFAEB5EB030C04BFB6EBC2
:10099000020C5FEA500C50F1000041EB045170BDB5
:1009A0000EF0004E4EEA113114EB5C04C2BFD4EBE2
:1009B0000C0541EA045170BD41F480114FF0000E66
:1009C000013C90E645EA060E8DE60CEA135594EAE2
:1009D0000C0F08BF95EA0C0F3FF43BAF94EA0C0FE5
:1009E0000AD150EA01347FF434AF95EA0C0F7FF45A
:1009F00025AF104619462CE795EA0C0F06D152EAAE
:100A000003353FF4FDAE1046194622E750EA410691
:100A100018BF52EA43067FF4C5AE50EA41047FF4A2
:100A20000DAF52EA43057FF4EBAE12E74A0011D254
:100A300012F5001211D20DD56FF47873B3EB625238
:100A40000ED44FEAC12343F0004343EA505323FA44
:100A500002F070474FF00000704750EA013002D1B9
:100A60004FF0FF3070474FF00000704753B94AB95C
:100A7000002908BF00281CBF4FF0FF314FF0FF30A6
:100A800000F074B9ADF1080C6DE904CE00F006F881
:100A9000DDF804E0DDE9022304B070472DE9F047FA
:100AA000089D04468E46002B4DD18A42944669D952
:100AB000B2FA82F252B101FA02F3C2F1200120FA35
:100AC00001F10CFA02FC41EA030E94404FEA1C4883
:100AD000210CBEFBF8F61FFA8CF708FB16E341EA7F
:100AE000034306FB07F199420AD91CEB030306F105
:100AF000FF3080F01F81994240F21C81023E634426
:100B00005B1AA4B2B3FBF8F008FB103344EA0344C9
:100B100000FB07F7A7420AD91CEB040400F1FF33DE
:100B200080F00A81A74240F207816444023840EA1B
:100B30000640E41B00261DB1D4400023C5E9004354
:100B40003146BDE8F0878B4209D9002D00F0EF80D7
:100B50000026C5E9000130463146BDE8F087B3FA0A
:100B600083F6002E4AD18B4202D3824200F2F980F2
:100B7000841A61EB030301209E46002DE0D0C5E9F5
:100B8000004EDDE702B9FFDEB2FA82F2002A40F041
:100B90009280A1EB0C014FEA1C471FFA8CFE012644
:100BA000200CB1FBF7F307FB131140EA01410EFBE8
:100BB00003F0884208D91CEB010103F1FF3802D28F
:100BC000884200F2CB804346091AA4B2B1FBF7F089
:100BD00007FB101144EA01440EFB00FEA64508D9AC
:100BE0001CEB040400F1FF3102D2A64500F2BB80E9
:100BF0000846A4EB0E0440EA03409CE7C6F1200738
:100C0000B34022FA07FC4CEA030C20FA07F401FA7D
:100C100006F31C43F9404FEA1C4900FA06F3B1FB06
:100C2000F9F8200C1FFA8CFE09FB181140EA01416B
:100C300008FB0EF0884202FA06F20BD91CEB010108
:100C400008F1FF3A80F08880884240F28580A8F160
:100C500002086144091AA4B2B1FBF9F009FB1011B2
:100C600044EA014100FB0EFE8E4508D91CEB010150
:100C700000F1FF346CD28E456AD90238614440EAF3
:100C80000840A0FB0294A1EB0E01A142C846A64673
:100C900056D353D05DB1B3EB080261EB0E0101FAFC
:100CA00007F722FA06F3F1401F43C5E90071002659
:100CB0003146BDE8F087C2F12003D8400CFA02FCAF
:100CC00021FA03F3914001434FEA1C471FFA8CFEBF
:100CD000B3FBF7F007FB10360B0C43EA064300FBAF
:100CE0000EF69E4204FA02F408D91CEB030300F14D
:100CF000FF382FD29E422DD9023863449B1B89B204
:100D0000B3FBF7F607FB163341EA034106FB0EF38C
:100D10008B4208D91CEB010106F1FF3816D28B4239
:100D200014D9023E6144C91A46EA004638E72E4605
:100D3000284605E70646E3E61846F8E64B45A9D2FD
:100D4000B9EB020864EB0C0E0138A3E74646EAE76C
:100D5000204694E74046D1E7D0467BE7023B61441A
:100D600032E7304609E76444023842E7704700BF83
:100D70002DE9F0418AB00024059406940794089464
:100D800009940194344B1A6B42F004021A631A6BF3
:100D900002F004020192019A02941A6B42F080025E
:100DA0001A631A6B02F080020292029A03941A6B81
:100DB00042F001021A631A6B02F001020392039AD5
:100DC00004941A6B42F002021A631B6B03F00203D5
:100DD0000493049BDFF88C8022462021404602F0D9
:100DE000C5FD1E4D22464FF40051284602F0BEFDBF
:100DF0004FF4005705974FF4041306930794184EC9
:100E000005A9304602F0D2FC042305934FF4881361
:100E10000693079405A9304602F0C8FC20230593E9
:100E2000012606960794089405A9404602F0BEFCE8
:100E3000059706960794089405A9284602F0B6FC83
:100E400022462146082002F075FF082002F0AAFF82
:100E50000AB0BDE8F08100BF003802400004024043
:100E6000000802400000024000B583B0002101915B
:100E7000094B1A6B42F400121A631B6B03F4001344
:100E80000193019B0A46112002F054FF112002F049
:100E900089FF03B05DF804FB0038024072B6FEE73C
:100EA00008B50A480A4B03604FF4E133436000235E
:100EB0008360C36003610C2242618361C36103F0FC
:100EC000C5F800B908BDFFF7E9FF00BFF401002035
:100ED0000044004008B50A480A4B03600A4B4360CF
:100EE00000238360C3604FF48042026143618361E9
:100EF000C361036201F060FD00B908BDFFF7CEFFDA
:100F00004801002000540040A086010008B50D48AB
:100F10000D4B03604FF48273436000238360C36012
:100F2000036143614FF4007282611022C261036267
:100F3000436283620A23C36203F0C2F900B908BDA9
:100F4000FFF7ACFF9C0100200038004000B595B0D1
:100F50003022002108A805F0ADFE0023039304937E
:100F600005930693079301931E4A116C41F080513B
:100F70001164126C02F080520192019A02931A4A93
:100F8000116841F440411160126802F4404202923B
:100F9000029A0221089101220B9210220C920E91CA
:100FA0000F9310924FF4A873119304231293139389
:100FB00008A802F0BFF880B90F230393022104911F
:100FC000002305934FF480520692079303A802F082
:100FD00017FB20B915B05DF804FBFFF75FFFFFF7C3
:100FE0005DFF00BF003802400070004008B502F00D
:100FF00021FFFFF7ABFFFFF7BBFEFFF735FFFFF762
:101000004FFFFFF767FFFFF781FF05F0F5FD00F0E9
:101010008BF8FCE708B50E4B1B78012B12D0802013
:1010200000F008FC0B4800F092FCC02000F002FC2D
:10103000094800F08CFC942000F0FCFB074800F00D
:1010400086FC08BD00F076FC014B00221A70E6E732
:10105000B0160020D4750008E4750008FC7500087F
:1010600010B500F067FC154B00221A70144C224694
:101070003B21D0209FED130A00F0CCFC124B1860EE
:101080000268124B1A6042685A6082689A6022466F
:101090004321D0209FED0E0A00F0BCFC0D4B1860E0
:1010A00002680D4B1A6042685A6082689A6080201C
:1010B00000F0C0FB094800F04AFC10BDB01600204B
:1010C0004027002000008046440200203802002013
:1010D0000000034304270020F82600200C760008B7
:1010E0000346002000E0013013F8012B002AFAD15A
:1010F00070470000002303E0034A0021D15401336C
:10110000B3F5806FF8DB70477C02002010B5044611
:10111000FFF766F84FF4FA63C2B22146014802F0C5
:10112000C4FF10BDF401002080B500248D4B1C705D
:101130008D4B02221A6000F0A1FB00F013FC8B48DB
:1011400000F005FC40F2DC5002F0A0FE2246884987
:10115000884804F077FE884B1870002800F0F28071
:101160008648FFF7D3FF864C864D224629468048A5
:1011700005F09CFB2268D369023B508903FB00F019
:10118000FFF7C8F90022804BFFF73EFAFFF74EFC4D
:1011900002467E4B18607E4E7E49304605F092FD39
:1011A0003046FFF7B3FFFFF7A5FF23685B89286888
:1011B00003FB00F0FFF7AEF90022734BFFF724FAB0
:1011C000FFF734FC0246744B18607449304605F052
:1011D00079FD3046FFF79AFF714D724C1322294674
:1011E000204604F05DFE644F387021466E4805F0DD
:1011F00053FC3870204605F0F1F938706B48FFF762
:1012000085FF01222946204604F04AFE3870224616
:10121000E168304605F015FC204605F0DFF9304660
:10122000FFF774FFFFF766FFDFF8B4811322414632
:10123000204604F035FE38703546DFF8A8C1BCE81A
:101240000F000FC5BCE80F000FC59CE80F0007C5D5
:101250002B803046FFF744FF0246554B314620466F
:1012600005F024F838705348FFF750FF204605F08A
:10127000B5F9FFF73FFF01224146204604F010FE7A
:1012800038704D4D2B46E2683146204604F022FF6F
:101290003046FFF73BFF204605F0A0F9FFF72AFF95
:1012A00003224146204604F0FBFD3870E1682046E9
:1012B00005F0A9F938702146404805F0EDFB38707B
:1012C000204605F08BF9FFF715FF01224146204625
:1012D00004F0E6FD38702B46E2683146204604F003
:1012E000F9FE3046FFF712FF204605F077F9FFF7C9
:1012F00001FF334805F049FB387038B3314805F039
:1013000044FB1D4B187028B301222F49002004F024
:1013100099FD194B187008B32C4D134C23681B0111
:10132000EB589847236805EB0313586802F0AEFDAD
:1013300022680C4B1B7803EB8203023355F82330F1
:101340002360E9E72248FFF7E1FE0CE72148FFF7B9
:10135000DDFED3E72048FFF7D9FED5E71F48FFF7AA
:10136000D5FED9E7B01600203827002024760008E3
:101370004C760008C0160020BC160020307600080D
:1013800034270020B41600200000E03F3C27002056
:101390007C02002070760008B81600208C760008C9
:1013A000A876000880060020B4760008D8760008E9
:1013B0007C06002040770008700200206877000853
:1013C0009C770008CC770008FC770008507800086C
:1013D00050760008A8770008D87700080078000841
:1013E0000477000810770008014B01221A7070473B
:1013F000B01600202DE9F0412DED028B82B0884619
:1014000017461E469DF82850B0EE408A0B9C40F0CF
:10141000800000F00FFA304600F099FAB5EEC08A6D
:10142000F1EE10FA1DDB174B83F800806B1CAA1C31
:1014300054F82220009254F8233054F82520124901
:10144000124805F03FFC0F4B187840F0800000F088
:10145000F1F90E4800F07BFA02B0BDEC028BBDE85A
:10146000F081084B1F706B1CAA1C54F822200092BC
:1014700054F8233054F825200549044805F022FC8F
:10148000E1E700BF30270020247800087402002024
:101490002C7800082DE9F0432DED028B83B0D44A5F
:1014A0003B21D0209FEDD30A00F0B4FAD24F386030
:1014B000D0ED007AFDEEE77A17EE903A002BB8BF38
:1014C0005B42CE4E3360D0ED007AF2EE048A67EED6
:1014D000A87AFDEEE77A17EE902AC94C84FB023118
:1014E000D317C3EBA10303EB8303A2EB4303002B4E
:1014F000B8BF5B427360D0ED007A9FEDC28A67EEA1
:10150000887AFDEEE77A17EE902A84FB0231D31732
:10151000C3EBA10303EB8303A2EB4303002BB8BF90
:101520005B42B360D0ED017AFDEEE77A17EE903AB8
:10153000002BB8BF5B42F360D0ED017A67EEA87A6A
:10154000FDEEE77A17EE902A84FB0231D317C3EB46
:10155000A10303EB8303A2EB4303002BB8BF5B4261
:101560003361D0ED017A67EE887AFDEEE77A17EE07
:10157000902A84FB0231D317C3EBA10303EB83034F
:10158000A2EB4303002BB8BF5B427361D0ED027A3C
:10159000FDEEE77A17EE903A002BB8BF5B42B361DD
:1015A000D0ED027A67EEA87AFDEEE77A17EE902A80
:1015B00084FB0231D317C3EBA10303EB8303A2EB3C
:1015C0004303002BB8BF5B42F361D0ED027A67EEB4
:1015D000887AFDEEE77A17EE902A84FB0231D31762
:1015E000C3EBA10303EB8303A2EB4303002BB8BFC0
:1015F0005B423362844A4321D0209FED840A00F08D
:1016000009FADFF82C82C8F80000D0ED007AFDEE70
:10161000E77A17EE903A002BB8BF5B427C4D2B6007
:10162000D0ED007A67EEA87AFDEEE77A17EE902A01
:1016300084FB0231D317C3EBA10303EB8303A2EBBB
:101640004303002BB8BF5B426B60D0ED007A67EEBE
:10165000887AFDEEE77A17EE902A84FB0231D317E1
:10166000C3EBA10303EB8303A2EB4303002BB8BF3F
:101670005B42AB60D0ED017AFDEEE77A17EE903A6F
:10168000002BB8BF5B42EB60D0ED017A67EEA87A21
:10169000FDEEE77A17EE902A84FB0231D317C3EBF5
:1016A000A10303EB8303A2EB4303002BB8BF5B4210
:1016B0002B61D0ED017A67EE887AFDEEE77A17EEBE
:1016C000902A84FB0231D317C3EBA10303EB8303FE
:1016D000A2EB4303002BB8BF5B426B61D0ED027AF3
:1016E000FDEEE77A17EE903A002BB8BF5B42AB6194
:1016F000D0ED027A67EEA87AFDEEE77A17EE902A2F
:1017000084FB0231D317C3EBA10303EB8303A2EBEA
:101710004303002BB8BF5B42EB61D0ED027A67EE6A
:10172000887AFDEEE77A17EE902A84FB0234D3170D
:10173000C3EBA40404EB8404A2EB4404002CB8BF64
:1017400064422C623B6893ED000A019600240094E9
:10175000304B032204212046FFF74CFE3B6893EDFB
:10176000010A01964FF00309CDF800902A4B43225D
:1017700044214020FFF73EFE3B6893ED020A0196AC
:1017800006260096254B172218211420FFF732FE5B
:10179000D8F8003093ED000A01950094204B0D22FB
:1017A0000E210A20FFF726FED8F8003093ED010A3B
:1017B0000195CDF800901B4B4D224E214A20FFF79A
:1017C00019FED8F8003093ED020A01950096164BE9
:1017D000212222211E20FFF70DFED42000F02AF83E
:1017E000124800F0B4F803B0BDEC028BBDE8F08302
:1017F0003802002000008046480200204C020020F1
:10180000676666660000C842F826002000000343B1
:101810000C270020000000200C00002018000020F1
:1018200024000020300000203C0000203878000810
:101830000827002000B585B000F0F0030001C0B219
:1018400043F00C028DF80C2043F008038DF80D30A6
:1018500040F00C038DF80E3040F008008DF80F00BA
:1018600064230093042303AA4E21034801F082F964
:1018700005B05DF804FB00BF4801002008B5322028
:1018800002F004FB3020FFF7D5FF052002F0FEFA3E
:101890003020FFF7CFFF012002F0F8FA3020FFF7E9
:1018A000C9FF0A2002F0F2FA2020FFF7C3FF0A2046
:1018B00002F0ECFA2820FFF7BDFF012002F0E6FA63
:1018C0000820FFF7B7FF012002F0E0FA0120FFF740
:1018D000B1FF012002F0DAFA0620FFF7ABFF01208A
:1018E00002F0D4FA0C20FFF7A5FF08BD00B585B0C3
:1018F00000F0F0030001C0B243F00D028DF80C209F
:1019000043F009038DF80D3040F00D038DF80E30D3
:1019100040F009008DF80F0064230093042303AA0C
:101920004E21034801F026F905B05DF804FB00BF25
:101930004801002010B50020FFF77CFF002403E0E1
:101940002020FFF7D3FF0134632CF9DD10BD10B563
:10195000044602E00134FFF7C9FF20780028F9D1DE
:1019600010BD00002DE9F04186B04FF47A73029368
:10197000012301930DF1170200927522D021234813
:1019800001F066FA9DF81730682B09D02048FFF760
:10199000DEFF41F2883002F079FA06B0BDE8F0814E
:1019A0004FF000088DF81680184D4FF47A770297A3
:1019B000012401940DF11606009623466B22D021D6
:1019C000284601F093F907238DF816300297019409
:1019D000009623461922D021284601F087F98DF878
:1019E000168002970194009623461C22D021284697
:1019F00001F07CF98DF81680029701940096234639
:101A00001B22D021284601F071F9C6E748010020C9
:101A10008078000830B52DED028B85B0B0EE408A9D
:101A200015464FF47A730293062301931F4C0094DA
:101A300001230A4601461E4801F00AFA227863781B
:101A400043EA02231BB207EE903AF8EEE77A87EEFC
:101A5000887AD5ED007A77EE677A1648C0ED007A7D
:101A6000A278E37843EA02231BB207EE903AF8EE3D
:101A7000E77A87EE887AD5ED017A77EE677AC0ED5E
:101A8000017A2279637943EA02231BB207EE903A86
:101A9000F8EEE77A87EE887AD5ED027A77EE677A04
:101AA000C0ED027A05B0BDEC028B30BD5827002096
:101AB000480100204C270020014B00221A7070477B
:101AC0005F270020014B1878704700BF5F27002078
:101AD00008B50A46054B1B689B6813F0020FF9D046
:101AE00064230146014802F04AFC08BD9C01002025
:101AF00000B583B08DF80700074B1B689B6813F097
:101B0000020FF9D0642301220DF10701024802F00F
:101B100036FC03B05DF804FB9C01002008B50022F0
:101B20004FF40051034801F021FF012002F0AEF90B
:101B300008BD00BF0004024008B501224FF4005167
:101B4000034801F013FF012002F0A0F908BD00BF17
:101B50000004024000B585B0FF238DF80F300A4B1A
:101B60001B689B6813F0020FF9D0642300930123D4
:101B70000DF10E020DF10F01034802F0DCFC9DF89F
:101B80000E0005B05DF804FB9C01002010B582B08A
:101B9000FFF7D2FF002403E0FF20FFF7A9FF013485
:101BA000092CF9DDFFF7BAFF40238DF80030002340
:101BB0008DF801308DF802308DF803308DF8043047
:101BC00095238DF8053006216846FFF781FF41F621
:101BD000FF74FFF7BFFF012802D00CB1013CF8E70A
:101BE000FFF7AAFFFF20FFF783FF024B01221A70C5
:101BF00002B010BD5F27002008B5074B4FF4FA7202
:101C00001A80FFF7A7FFFF2804D0034B1B889BB265
:101C1000002BF6D108BD00BF6227002038B505466D
:101C20000C46FFF7E9FFFF2801D0FF2038BD28460A
:101C3000FFF75EFF200EFFF75BFFC4F30740FFF7DF
:101C400057FFC4F30720FFF753FFE0B2FFF750FF41
:101C5000402D13D0482D0FD00120FFF749FF4C2D08
:101C60000ED00A24FFF776FF10F0800FDED0631E3F
:101C700013F0FF04F6D1D9E78720EEE79520ECE7D3
:101C8000FFF768FFEDE710B50446FFF763FF20702C
:101C900010BD000038B504460D460F4BC8221A800F
:101CA000FFF758FFFF2804D10B4B1B889BB2002B7A
:101CB000F6D1FE280DD120460134FFF7E4FF2B4674
:101CC000013D002BF7D1FFF745FFFFF743FF012050
:101CD00038BD0020FCE700BF6127002070B5064634
:101CE0000D46FFF789FFFF2801D0002070BD0024BA
:101CF0002846FFF7FDFEFD2D05D104F01F04052C3D
:101D00001CD00020F2E74FF400713046FFF7E0FEF0
:101D1000FFF720FFFFF71EFF254601E00135EDB27A
:101D2000402D06D8FFF716FF044600F01F03052BD1
:101D3000F4D1FFF70FFF0028FBD0DEE70120D5E745
:101D4000002840F0B68030B583B05B4B1B7813F0B1
:101D5000020404D0584B1878C0B203B030BDFFF76E
:101D600015FFFFF7DBFE00214020FFF757FF054678
:101D7000012811D0514B1C70FFF7DEFEFFF7EAFE81
:101D8000002C00F093804C4A137803F0FE0313708C
:101D9000494B1878C0B2E0E7494B4FF47A721A8089
:101DA0004FF4D5714820FFF739FF012845D125466A
:101DB00008E0FFF7CFFE05F108036B4403F8040CBD
:101DC0000135EDB2032DF4D99DF80630012BD1D1A8
:101DD0009DF80730AA2BCDD103E0394B1B889BB26D
:101DE00063B100217720FFF719FF0128F5D84FF0E4
:101DF00080416920FFF712FF0028EED1304B1B888D
:101E00009BB2002BB6D000217A20FFF707FF0546D2
:101E10000028AFD1032D09D8FFF79CFE05F1080378
:101E20006B4403F8040C0135EDB2F3E79DF8043080
:101E300013F0400F38D00C249CE700217720FFF7E7
:101E4000EDFE012811D800216920FFF7E7FE0128E7
:101E50000BD8022509E000217720FFF7DFFE0128DB
:101E60001BD9174B1B889BB23BB1022DF3D000212D
:101E70004120FFF7D3FE0028F3D1114B1B889BB202
:101E8000002B3FF477AF4FF400715020FFF7C6FEF0
:101E900000287FF46FAF2C466CE700216920FFF724
:101EA000BDFE0028DDD1E8E7042463E7FFF704FE68
:101EB0006EE70120704700BF470000205E2700202A
:101EC0006127002018B9034B1878C0B27047012071
:101ED000704700BF4700002000283ED170B50D4676
:101EE00016461C46002B3AD01F4B1B7813F0010FEF
:101EF00037D11E4B1B7813F0040F00D15602FFF7A9
:101F00000DFE012C1AD031465220FFF787FE68B92A
:101F10004FF400712846FFF7BDFE18B105F50075B6
:101F2000013CF5D100214C20FFF778FEFFF704FEBD
:101F3000FFF710FE201E18BF012070BD3146512052
:101F4000FFF76CFE0028F1D14FF400712846FFF72F
:101F5000A1FE0028EAD00024E8E70420704704200E
:101F6000EBE70320E9E700BF470000205E270020E1
:101F7000002852D170B50D4616461C46002B4ED097
:101F80002A4B1B7813F0010F4BD1284B1B7813F011
:101F9000040F48D1264B1B7813F0040F00D15602D2
:101FA000FFF7BCFD012C1FD0214B1B7813F0020F53
:101FB00028D131465920FFF731FE68B9FC21284667
:101FC000FFF78CFE18B105F50075013CF6D1FD2137
:101FD0000020FFF783FEF0B1FFF7AEFDFFF7BAFD7B
:101FE000201E18BF012070BD31465820FFF716FE95
:101FF0000028F1D1FE212846FFF770FE0028EBD023
:102000000024E9E700217720FFF708FE214657204A
:10201000FFF704FECDE70124DEE70420704704202B
:10202000E1E70320DFE70220DDE700BF47000020F3
:102030005E270020F0B585B0002840F0B2800D4644
:1020400016460746052913D0584B1C7814F0010496
:1020500040F0A980FFF762FD0D2D00F29680DFE8C9
:1020600005F05E1B5A9494949494949494647382AF
:102070001478012C07D0022C09D00CB1042489E07B
:10208000FFF71AFD86E0FFF781FD3C4682E0FFF78F
:1020900019FD70703C467DE000214920FFF7BEFD30
:1020A000044608B12C4671E010216846FFF7F2FDA6
:1020B000002872D09DF800309B09012B1FD09DF89D
:1020C000052002F00F029DF80A3002EBD3129DF8B2
:1020D00009305B0003F006031A449DF808309DF8B0
:1020E00007109B0903EB81039DF80610890201F498
:1020F00040610B440133073A9340336046E09DF85A
:1021000009309DF8082003EB02239BB201339BB2F8
:102110009B0233603AE04FF40073338036E0FFF700
:102120006BFDFF283BD0012430E000214920FFF760
:1021300075FD044608B1012428E010213046FFF760
:10214000A9FD18BB012421E000214A20FFF766FD0C
:10215000044608B1012419E010213046FFF79AFD2A
:10216000A0B9012412E000217A20FFF757FD0446B0
:1021700038B104240AE0FFF7EDFC06F8010B013446
:10218000E4B2032CF7D9042400E00424FFF7D4FCC4
:10219000FFF7E0FC204605B0F0BD2C46F6E72C46E4
:1021A000F4E70424F6E70324F4E700BF4700002027
:1021B00008B5FFF7C5FD08BD08B5FFF783FE08BDEC
:1021C00008B5FFF789FE08BD08B5FFF7D1FE08BDC9
:1021D00008B5FFF72FFF08BD084B1B7823B1074A4E
:1021E0001378013BDBB21370054B1B7823B1044A13
:1021F0001378013BDBB21370704700BF61270020EA
:1022000062270020FEE7FEE7FEE7FEE7FEE77047F5
:102210007047704708B5094A13780133DBB2137071
:102220001378DBB2092B02D801F01EFE08BD13465D
:1022300000221A70FFF7D0FFF6E700BF60270020EA
:1022400008B5042001F098FB08BD000008B502485D
:1022500001F070FC08BD00BFE800002000B583B0AD
:10226000002100910C4B5A6C42F480425A645A6C23
:1022700002F480420092009A01911A6C42F080525E
:102280001A641B6C03F080530193019B072001F03B
:102290003FFD03B05DF804FB0038024030B589B063
:1022A0000023039304930593069307930268144B4A
:1022B0009A4201D009B030BD00250195114C236B25
:1022C00043F002032363236B03F002030193019B9A
:1022D000C023039312230493032306930423079339
:1022E00003A9094801F062FA0295236C43F4001334
:1022F0002364236C03F400130293029BDAE700BF0C
:10230000005400400038024000040240F0B589B09B
:1023100000230393049305930693079302681F4BCE
:102320009A4201D009B0F0BD0024009403F50033B7
:102330001A6C42F480421A641A6C02F480420092D1
:10234000009A01941A6B42F004021A631A6B02F0AD
:1023500004020192019A02941A6B42F002021A637B
:102360001B6B03F002030293029B082303930227D3
:102370000497032606960525079503A9084801F04A
:1023800015FA4FF48843039304970594069607952E
:1023900003A9044801F00AFAC4E700BF003800406E
:1023A000000802400004024030B589B000230393C6
:1023B00004930593069307930268234B9A4201D036
:1023C00009B030BD04460025019503F5FA331A6CB7
:1023D00042F400321A641A6C02F400320192019A3B
:1023E00002951A6B42F001021A631B6B03F00103A2
:1023F0000293029B0C23039302230493032306936B
:102400000723079303A9114801F0D0F91048114B95
:1024100003604FF00063436040238360C5604FF466
:1024200080630361456185614FF48073C361056218
:10243000456201F019FB18B9054B63639C63BFE764
:10244000FEF72CFDF8E700BF00440040000002400A
:10245000E8000020A0600240034AD2F8883043F42C
:102460007003C2F88830704700ED00E003685A69D5
:1024700012F4806F01D1002070476FF480625A61BE
:1024800000230363202280F83D2080F83E30026C58
:1024900042F00402026480F83C30012070472DE9CC
:1024A000F04107460D4690461E4624E001F0E8FC48
:1024B000069BC01AB04200D8EEB900233B6320222D
:1024C00087F83D2087F83E303A6C42F020023A64AB
:1024D00087F83C3001201EE03B689C6925EA040C2B
:1024E0001FFA8CFCBCFA8CFC4FEA5C1CE04511D155
:1024F000B6F1FF3FDAD1C5F30743012BECD13B68BE
:102500005B6925EA030C1FFA8CFCBCFA8CFC4FEAD1
:102510005C1CEBE70020BDE8F0812DE9F0410546A9
:102520000E46174698463DE01A6842F400721A605B
:102530002B686FF480625A6100232B63202285F898
:102540003D2085F83E302A6C42F004022A6485F86A
:102550003C30012034E001F093FCA0EB0800B842CD
:1025600000D8FFB900232B63202285F83D2085F891
:102570003E302A6C42F020022A6485F83C3001206B
:102580001EE02B689C6926EA0404A4B2003C18BF34
:102590000124A4B12B685A6912F4806FC4D1B7F139
:1025A000FF3FD8D1C6F30743012BEAD12B685C6902
:1025B00026EA0404A4B2003C18BF0124E9E7002085
:1025C000BDE8F081F0B583B004460D4616461F46BF
:1025D000C36A082B0DD0012B0BD013F5803F08D018
:1025E000036B122B0AD10268136843F480731360E3
:1025F00004E02268136843F4807313600097334645
:1026000000224FF001112046FFF749FF80B92369EE
:10261000B3F5804F16D1236805F0FE051D613B46DA
:10262000324613492046FFF778FFF8B903B0F0BDF2
:1026300023681B6813F4807F02D04FF40073236477
:102640000320F3E7EB11226803F0060343F0F003E5
:1026500013613B46324607492046FFF75EFF18B933
:102660002368EDB21D61DAE70120DFE70120DDE735
:10267000020001000800010070B504460D46164630
:1026800023685B6913F0800F1CD12046FFF7EEFE34
:10269000D0B9B5F1FF3FF3D001F0F2FB801BA842A7
:1026A00001D8002DECD100232363202284F83D20A3
:1026B00084F83E30226C42F02002226484F83C30E0
:1026C000012000E0002070BD0120FCE72DE9F0436F
:1026D00085B004460D4691461F46DDF830800D9EBC
:1026E0000368196841F4807119600096434600221E
:1026F0004FF00111FFF7D3FE60B9236805F0FE0526
:102700001D613346424626492046FFF706FF68B161
:10271000012008E023681B6813F4807F02D04FF487
:1027200000732364032005B0BDE8F0830023039306
:1027300023685A6903929B690393039B324641467F
:102740002046FFF799FF30B9012F0FD123685FFAB8
:1027500089F61E61E7E7236C042B01D00120E2E734
:102760002268136843F400731360F7E723684FEAA5
:1027700019221A61324641462046FFF77DFF20B9F3
:1027800023685FFA89F61E61CDE7236C042B01D024
:102790000120C8E72268136843F400731360F7E769
:1027A000020001002DE9F04784B004460D461646AC
:1027B00099460C9FDDF834800268136843F4806307
:1027C00013600368196841F480711960CDF80080C6
:1027D0003B4600224FF00111FFF761FE70B95FFA2E
:1027E00085FA236805F0FE051D6143463A464149D6
:1027F0002046FFF792FE68B1012008E023681B68BD
:1028000013F4807F02D04FF400732364032004B0DC
:10281000BDE8F0870023039323685A6903929B69FC
:102820000393039B424639462046FFF725FF80B9B4
:10283000B9F1010F18D12368F6B21E61424639463C
:102840002046FFF719FF68B3236C042B24D0012026
:10285000DDE7236C042B01D00120D8E72268136840
:1028600043F400731360F7E72368320A1A614246A3
:1028700039462046FFF700FF18B92368F6B21E61FB
:10288000DCE7236C042B01D00120C0E72268136829
:1028900043F400731360F7E72268136843F400738E
:1028A0001360D4E72268136843F480731360CDF893
:1028B00000803B4600224FF001112046FFF7EFFD5C
:1028C00068B922684AF00103136143463A46094950
:1028D0002046FFF722FE002899D0012097E72368C1
:1028E0001B6813F4807F02D04FF40073236403202D
:1028F0008DE700BF0200010070B504460D46164684
:1029000023685B6913F0040F1CD12046FFF7AEFD6E
:10291000D0B9B5F1FF3FF3D001F0B2FA801BA84265
:1029200001D8002DECD100232363202284F83D2020
:1029300084F83E30226C42F02002226484F83C305D
:10294000012000E0002070BD0120FCE770B50546C5
:102950000C4616462B68596911F0400F29D1596968
:1029600011F0100F15D101F08BFA801BA04201D895
:10297000002CEFD100232B63202285F83D2085F821
:102980003E302A6C42F020022A6485F83C30012057
:1029900070BD6FF010025A6100232B63202285F86E
:1029A0003D2085F83E302A6C2A6485F83C300120B1
:1029B000EEE70020ECE70000002800F0CC8070B5C6
:1029C000044690F83D30002B77D0242384F83D3026
:1029D0002268136823F0010313602268136843F42C
:1029E000004313602268136823F40043136000F06F
:1029F000BDFE62685A4B9A4264D85A4B98428CBFCB
:102A000000230123002B40F0A8805749A1FB00318F
:102A10008B0C25686A6822F03F0242EA91426A60A4
:102A200021680A6A22F03F0266684D4DAE424FD8D7
:102A3000013313430B622168CA6922F44F4222F02A
:102A4000FF026668464B9E424CD8431E7600B3FB9D
:102A5000F6F3013340F6FC70034278D0C3F30B0366
:102A60001343CB6121680B6823F0C003E269206A3D
:102A7000024313430B6021688B6823F4034323F064
:102A8000FF032269E068024313438B602168CB682F
:102A900023F0FF036269A06902431343CB602268FD
:102AA000136843F00103136000202064202384F89E
:102AB0003D30206384F83E0070BD80F83C30FFF765
:102AC000EDFB82E7294B98428CBF0023012399E755
:102AD0004FF4967505FB03F3254DA5FB03539B09A6
:102AE0000133A6E7A368BBB9451E06EB460CB5FB50
:102AF000FCF50135C5F30B05B5FA85F56D0945BB48
:102B0000C3B9013806EB4603B0FBF3F30133C3F35B
:102B10000B0343F40043A3E7451E06EB860C0CEBC6
:102B20008C0CB5FBFCF50135C5F30B05B5FA85F545
:102B30006D09E4E7013806EB860303EB8303B0FB82
:102B4000F3F30133C3F30B0343F4404388E7042357
:102B500086E7012384E7012070470120ACE700BF2E
:102B6000A08601007F841E0083DE1B43FF083D001A
:102B7000D34D62102DE9F04385B004460F469146CF
:102B800098460C9E01F07CF9054694F83D00C0B2D1
:102B9000202804D00227384605B0BDE8F083009510
:102BA000192301224F492046FFF779FC002840F005
:102BB000928094F83C30012B00F08F80012384F840
:102BC0003C3023681A6812F0010F03D11A6842F0F2
:102BD00001021A602268136823F400631360212342
:102BE00084F83D30102384F83E3000232364C4F879
:102BF0002490A4F82A80638D23853B4BE3622B4607
:102C0000324639462046FFF7DDFC0746002866D1EC
:102C10000023039323685A6903929B690393039BE0
:102C200011E0236C042B01D00127B4E7226813685C
:102C300043F400731360F7E72A4631462046FFF756
:102C40005BFE00282ED1238D002B36D02A4631463C
:102C50002046FFF711FD0028E3D1626A236812784D
:102C60001A61606A431C6362618D89B2013989B25D
:102C70006185238D013B9BB223852268516911F048
:102C8000040FD9D0002BD7D043781361636A013386
:102C90006362638D9BB2013B9BB26385238D013BD5
:102CA0002385C9E7236C042B01D0012773E7226831
:102CB000136843F400731360F7E72268136843F462
:102CC00000731360202384F83D30002384F83E30E5
:102CD00084F83C305FE702275DE702275BE70127C6
:102CE00059E700BF020010000000FFFF2DE9F0438C
:102CF00083B004460F46904699460C9E01F0C0F8FA
:102D0000054694F83D00C0B2202803D0022003B04D
:102D1000BDE8F0830095192301224B492046FFF7B7
:102D2000BEFB002840F0898094F83C30012B00F075
:102D30008680012384F83C3023681A6812F0010F62
:102D400003D11A6842F001021A602268136823F462
:102D500000631360212384F83D30402384F83E3023
:102D6000002323640A9B6362BDF82C306385638D66
:102D70002385364BE362019500964B464246394621
:102D80002046FFF7A3FC00285BD1238D002B35D014
:102D90002A4631462046FFF76FFC20BB626A236853
:102DA00012781A61626A531C6362218D013989B2FB
:102DB0002185638D9BB2013B9BB263852368586973
:102DC00010F0040FE1D00029DFD052781A61636A55
:102DD00001336362238D013B2385638D9BB2013BED
:102DE0009BB26385D1E7236C042B01D001208EE7D1
:102DF0002268136843F400731360F7E72A463146EC
:102E00002046FFF779FD50B1236C042B01D001203F
:102E10007DE72268136843F400731360F7E72268C4
:102E2000136843F400731360202384F83D300023BB
:102E300084F83E3084F83C3069E7022067E70220DE
:102E400065E7012063E700BF020010000000FFFFFC
:102E50002DE9F04387B004460F4690469946109EF0
:102E600001F00EF8054694F83D00C0B2202804D0C9
:102E70000227384607B0BDE8F083009519230122E8
:102E800088492046FFF70BFB002840F0438194F867
:102E90003C30012B00F04081012384F83C30236852
:102EA0001A6812F0010F03D11A6842F001021A6089
:102EB0002268136823F400631360222384F83D30F2
:102EC000402384F83E30002323640E9B6362BDF8E8
:102ED0003C306385638D2385734BE36201950096D7
:102EE0004B46424639462046FFF75CFC0746002821
:102EF00040F01481238D5BB9029323685A690292D2
:102F00009A690292029A1A6842F400721A6075E095
:102F1000012B0AD0022B1AD00023059323685A698B
:102F200005929B690593059B68E02268136823F46A
:102F3000806313600023039323685A6903929A699C
:102F40000392039A1A6842F400721A6056E02268EB
:102F5000136823F4806313602268136843F40063EA
:102F600013600023049323685A6904929B690493B5
:102F7000049B43E02A4631462046FFF7E7FC002841
:102F800040F0CE8023681A69636A1A70636A01335D
:102F90006362238D013B2385638D9BB2013B9BB212
:102FA00063852BE000953346002240492046FFF719
:102FB00076FA002840F0B6802268136843F4007364
:102FC000136023681A69636A1A70626A531C636229
:102FD000238D013B2385638D9BB2013B9BB26385AF
:102FE00023681B695370636A01336362238D013B5D
:102FF0002385638D9BB2013B9BB26385238D002BA0
:103000007FD0032B54D8012BB4D0022BCAD000950B
:103010003346002225492046FFF741FA002840F0B8
:1030200083802268136823F48063136023681A691D
:10303000636A1A70636A01336362238D013B2385DF
:10304000638D9BB2013B9BB26385009533460022A2
:1030500016492046FFF723FA002867D12268136833
:1030600043F40073136023681A69636A1A70626A12
:10307000531C6362238D013B2385638D9BB2013B0F
:103080009BB2638523681B695370636A0133636273
:10309000238D013B2385638D9BB2013B9BB26385EE
:1030A000ACE700BF020010000000FFFF04000100B9
:1030B0002A4631462046FFF749FC002838D12368CC
:1030C0001A69636A1A70626A531C6362238D013B3A
:1030D0002385638D9BB2013B9BB26385236859694D
:1030E00011F0040F8AD01B695370636A0133636265
:1030F000238D013B2385638D9BB2013B9BB263858E
:103100007CE7202384F83D30002384F83E3084F8A7
:103110003C30AEE60227ACE60227AAE60127A8E685
:103120000127A6E60127A4E60127A2E60127A0E6DB
:1031300001279EE6002800F0E08170B582B00446C9
:10314000036813F0010F3BD09F4B9B6803F00C0307
:10315000042B2CD09C4B9B6803F00C03082B21D034
:103160006368B3F5803F4FD0B3F5A02F52D0964B94
:103170001A6822F480321A601A6822F480221A60D7
:103180006368002B50D000F07BFE05468E4B1B6819
:1031900013F4003F14D100F073FE401B6428F5D9EE
:1031A0000320B1E1884B5B6813F4800FD8D0864BC5
:1031B0001B6813F4003F03D06368002B00F09F816D
:1031C000236813F0020F54D07F4B9B6813F00C0F51
:1031D0003ED07D4B9B6803F00C03082B33D0E36893
:1031E000002B68D0794B01221A6000F049FE054699
:1031F000754B1B6813F0020F54D100F041FE401BC9
:103200000228F5D903207FE16F4A136843F4803325
:103210001360B5E76C4B1A6842F480221A601A6892
:1032200042F480321A60ABE700F02AFE0546664B96
:103230001B6813F4003FC3D000F022FE401B64283B
:10324000F5D9032060E1604B5B6813F4800FC6D1B1
:103250005D4B1B6813F0020F03D0E368012B40F0B5
:103260005081594A136823F0F803216943EAC103E6
:103270001360236813F0080F42D063696BB3534B9C
:103280000122C3F8802E00F0FBFD05464E4B5B6F1C
:1032900013F0020F34D100F0F3FD401B0228F5D9E2
:1032A000032031E1484A136823F0F803216943EA17
:1032B000C1031360DDE7454B00221A6000F0E0FD1A
:1032C0000546414B1B6813F0020FD2D000F0D8FD29
:1032D000401B0228F5D9032016E13C4B0022C3F81D
:1032E000802E00F0CDFD0546374B5B6F13F0020FCB
:1032F00006D000F0C5FD401B0228F5D9032003E1EC
:10330000236813F0040F77D02F4B1B6C13F0805FF2
:1033100033D1002301932C4B1A6C42F080521A6473
:103320001B6C03F080530193019B0125284B1B6804
:1033300013F4807F23D0A368012B34D0052B38D021
:10334000214B1A6F22F001021A671A6F22F0040251
:103350001A67A368002B3DD000F092FD06461A4B79
:103360001B6F13F0020F46D100F08AFD801B41F263
:1033700088339842F3D90320C6E00025D6E7144AE3
:10338000136843F48073136000F07AFD0646104B17
:103390001B6813F4807FCED100F072FD801B0228E1
:1033A000F5D90320B0E0084A136F43F00103136717
:1033B000CFE7054B1A6F42F004021A671A6F42F00A
:1033C00001021A67C5E700BF00380240000047420B
:1033D0000070004000F054FD0646524B1B6F13F086
:1033E000020F08D000F04CFD801B41F28833984258
:1033F000F3D9032088E0EDB9A369002B00F08380A6
:10340000484A926802F00C02082A51D0022B17D0C9
:10341000454B00221A6600F033FD0446414B1B6801
:1034200013F0007F42D000F02BFD001B0228F5D9DD
:10343000032069E03B4A136C23F080531364DBE7FD
:10344000394B00221A6600F01BFD0546354B1B6800
:1034500013F0007F06D000F013FD401B0228F5D9C1
:10346000032051E0E369226A1343626A43EA82134C
:10347000A26A5208013A43EA0243E26A43EA02635B
:10348000284A5360284B01221A6600F0F9FC0446D2
:10349000244B1B6813F0007F06D100F0F1FC001BE9
:1034A0000228F5D903202FE000202DE000202BE09A
:1034B000012B2BD01B4B5B6803F48001E269914226
:1034C00026D103F03F02216A8A4223D1616A47F67E
:1034D000C0721A40B2EB811F1ED103F44031A26AC0
:1034E0005208013AB1EB024F18D103F07063E26A5F
:1034F000B3EB026F14D1002006E0012070470120D9
:1035000002E0012000E0002002B070BD0120FBE7D6
:103510000120F9E70120F7E70120F5E70120F3E7B3
:103520000120F1E7003802400000474208B5314B66
:103530009B6803F00C03042B57D0082B57D12D4B5D
:103540005A6802F03F025B6813F4800F2AD0294BBF
:103550005968C1F3881C4FEA4C11B1EB0C006EEBBB
:103560000E0E4FEA8E1343EA90638101091A63EB52
:103570000E03DB0043EA5173C90011EB0C0C43F15D
:103580000003590200234FEA4C2041EADC51FDF7C9
:103590006DFA184B5B68C3F3014301335B00B0FB6A
:1035A000F3F025E0134B5968C1F3881C4FEA4C1126
:1035B000B1EB0C006EEB0E0E4FEA8E1343EA9063F4
:1035C0008101091A63EB0E03DB0043EA5173C90062
:1035D00011EB0C0C43F10003990200234FEA8C20FD
:1035E00041EA9C51FDF742FAD3E7034800E0034863
:1035F00008BD00BF0038024000127A000024F40029
:10360000002800F09B8070B50D4604464F4B1B68A8
:1036100003F007038B4208D2CBB24C4A13701368F5
:1036200003F007038B4240F08B80236813F0020FF6
:1036300017D013F0040F04D0454A936843F4E053C5
:103640009360236813F0080F04D0414A936843F451
:10365000604393603E4A936823F0F003A1680B43F4
:103660009360236813F0010F32D06368012B21D0DF
:103670009A1E012A25D9364A126812F0020F61D02B
:1036800033498A6822F0030213438B6000F0F8FB91
:1036900006462F4B9B6803F00C036268B3EB820F66
:1036A00016D000F0EDFB801B41F288339842F0D930
:1036B000032042E0264A126812F4003FE0D10120C4
:1036C0003BE0234A126812F0007FD9D1012034E098
:1036D0001E4B1B6803F00703AB4207D9EAB21B4B32
:1036E0001A701B6803F00703AB422DD1236813F057
:1036F000040F06D0164A936823F4E053E1680B43A5
:103700009360236813F0080F07D0114A936823F4DD
:103710006043216943EAC1039360FFF707FF0C4B45
:103720009B68C3F303130B4AD35CD8400A4B186061
:103730000A4B186800F058FB002070BD012070474C
:103740000120FAE70120F8E70120F6E7003C0240FB
:1037500000380240907800085C00002064000020DF
:10376000014B1868704700BF5C00002008B5FFF7E8
:10377000F7FF044B9B68C3F38223034AD35CD84012
:1037800008BD00BF00380240A078000808B5FFF768
:10379000E7FF044B9B68C3F34233034AD35CD84032
:1037A00008BD00BF00380240A078000800230F2B9E
:1037B00000F2D28070B582B060E085685E000324BC
:1037C000B44025EA0405CC68B4402C4384604568C5
:1037D00025EA02054C68C4F300129A402A4342606D
:1037E0005AE0DC08083450F8246003F00702950022
:1037F0000F22AA4026EA020E0A69AA4042EA0E02F5
:1038000040F824205CE0042200E0002202FA0EF2DC
:103810002A430234514D45F82420514A14686FEA76
:103820000C0224EA0C054E6816F4803F01D04CEAE5
:1038300004054B4C2560646802EA04054E6816F4E2
:10384000003F01D04CEA0405454C6560A46802EADB
:1038500004054E6816F4801F01D04CEA0405404C64
:10386000A560E46822404D6815F4001F01D04CEAC1
:1038700004023B4CE26001330F2B6BD801229A40CB
:103880000C6804EA020C32EA0404F4D14C6804F037
:103890000304013C012C90D94A6802F00302032A78
:1038A00009D0C4685D000322AA4024EA02048A68A1
:1038B000AA402243C2604A6802F00302022A90D062
:1038C00004684FEA430E032202FA0EF224EA0204CD
:1038D0004A6802F0030202FA0EF2224302604A68CA
:1038E00012F4403FC7D0002201921E4A546C44F4A7
:1038F00080445464526C02F480420192019A9C0804
:10390000A51C164A52F8255003F003024FEA820E16
:103910000F2202FA0EF225EA0205134A90423FF402
:1039200074AF02F5806290420ED002F58062904240
:103930000CD002F5806290420AD002F5806290427B
:103940003FF461AF072261E701225FE702225DE7F2
:1039500003225BE702B070BD704700BF0038014032
:10396000003C014000380240000002400AB1816181
:10397000704709048161704708B5054B5B690342D4
:1039800000D108BD024B5861FDF72EFDF9E700BFDD
:10399000003C014010B40368D9B210390C4AA2FBB4
:1039A000014212090B4CA25CC2655F2909D923F4BC
:1039B0007F7323F0030304338365806D5DF8044B4C
:1039C000704723F47F7323F003038365F5E700BF9B
:1039D000ABAAAAAAA8780008836A826992B9012BC7
:1039E0000AD0022B02D00BB100207047C36A13F03B
:1039F000807F28D100207047C36AB3F1C07F24D0F4
:103A000000207047B2F5005F09D0022B25D9032BA7
:103A100025D1C36A13F0807F23D100207047032B88
:103A200003D8DFE803F01404140A00207047C36AC7
:103A300013F0807F0DD100207047C36AB3F1C07FBF
:103A400009D00020704701207047012070470120F5
:103A50007047012070470120704701207047002007
:103A6000704701207047000070B5044600F008FA66
:103A7000002C5BD00546022384F83530002384F8FF
:103A800034302268136823F00103136023681A6836
:103A900012F0010F0AD000F0F3F9431B052BF5D902
:103AA00020236365032084F8350070BD1A68204820
:103AB00010406168A2680A43E1680A4321690A4329
:103AC00061690A43A1690A43E1690A43216A0A4319
:103AD0000243616A04291ED01A602668756925F0C0
:103AE0000705636A1D43042B07D1A36A1D43E36ADC
:103AF0001BB12046FFF770FF90B975612046FFF7B4
:103B000049FFE26D3F2393408360002060650123FD
:103B100084F83530C9E7E16A206B01430A43DBE7EB
:103B200040236365012084F83500BEE70120BCE72F
:103B30003F8010F0F0B583B0044600230193724B30
:103B40001D68724BA3FB0535AD0A876D3E68C26DDB
:103B500008239340334210D003681A6812F0040F10
:103B60000BD01A6822F004021A60C26D0823934039
:103B7000BB60436D43F001034365E26D0123934055
:103B8000334209D02268526912F0800F04D0BB6022
:103B9000636D43F002036365E26D04239340334297
:103BA00009D02268126812F0020F04D0BB60636D66
:103BB00043F004036365E26D10239340334224D045
:103BC0002268126812F0080F1FD0BB6023681A68C1
:103BD00012F4802F0DD01B6813F4002F04D1236C36
:103BE0009BB12046984710E0A36C73B120469847DC
:103BF0000BE01A6812F4807F03D11A6822F00802E1
:103C00001A60236C0BB120469847E26D2023934045
:103C1000334255D02268126812F0100F50D0BB60AA
:103C200094F83530DBB2052B0ED023681A6812F4F5
:103C3000802F33D01B6813F4002F2AD1636C002B24
:103C40003ED0204698473BE02268136823F01603D5
:103C500013602268536923F080035361236CA3B17E
:103C60002268136823F008031360E26D3F2393403A
:103C7000BB60012384F83530002384F83430236D91
:103C8000002B3FD0204698473CE0A36C002BE7D1A7
:103C9000EBE7E36BA3B12046984711E01A6812F4F2
:103CA000807F09D11A6822F010021A60012384F87B
:103CB0003530002384F83430E36B0BB1204698474D
:103CC000636DFBB1636D13F0010F17D0052384F80A
:103CD00035302268136823F001031360019B013320
:103CE0000193AB4204D823681B6813F0010FF5D190
:103CF000012384F83530002384F83430E36C0BB1B1
:103D00002046984703B0F0BD5C000020B5814E1BF3
:103D1000074AD36823F4E0631B041B0C000200F481
:103D2000E060034343F0BF6343F40033D360704764
:103D300000ED00E000B5194BDB68C3F30223C3F1CB
:103D4000070CBCF1040F28BF4FF0040C03F1040E64
:103D5000BEF1060F18D9033B4FF0FF3E0EFA0CFCE4
:103D600021EA0C0199400EFA03F322EA03031943F6
:103D700000280BDB0901C9B200F1604000F5614089
:103D800080F800135DF804FB0023E5E700F00F0066
:103D90000901C9B2024B1954F4E700BF00ED00E07D
:103DA00014ED00E0002807DB00F01F0240090123AA
:103DB0009340024A42F82030704700BF00E100E023
:103DC0000138B0F1807F0BD24FF0E0235861054AF3
:103DD000F02182F823100020986107221A617047B1
:103DE0000120704700ED00E010B504460E4B187836
:103DF0004FF47A73B3FBF0F30C4A1068B0FBF3F0A6
:103E0000FFF7DEFF68B90F2C01D901200AE000227C
:103E100021464FF0FF30FFF78DFF054B1C6000205F
:103E200000E0012010BD00BF600000205C00002009
:103E30006400002008B50B4B1A6842F400721A6047
:103E40001A6842F480621A601A6842F480721A603A
:103E50000320FFF75DFF0020FFF7C6FFFEF7FEF926
:103E6000002008BD003C0240034A1168034B1B7848
:103E70000B441360704700BF6427002060000020DF
:103E8000014B1868704700BF6427002038B504460E
:103E9000FFF7F6FF0546B4F1FF3F02D0044B1B7855
:103EA0001C44FFF7EDFF401BA042FAD338BD00BF12
:103EB0006000002038B504460268136923F44053BB
:103EC000C1680B431361836802691343426913435A
:103ED000C2691A430168CB6823F4164323F00C032C
:103EE0001343CB600268536923F4407381690B4329
:103EF00053610368314A934206D002F580629342CF
:103F000002D0FFF733FC01E0FFF740FCE369B3F5B3
:103F1000004F29D00021031849411B1841F100012D
:103F2000C90041EA5371DB00181863684FEA830245
:103F30004FEA937341F10001FCF798FD204DA5FB7A
:103F400000325109642303FB11031B013233A5FB2B
:103F500003235B0903F0F00202EB011203F00F03ED
:103F6000216813448B6038BD0023021843EB030122
:103F7000121841F10001C90041EA5271D200101833
:103F800041F10001626892185B41FCF76FFD0C4D36
:103F9000A5FB00325109642303FB1103DB0032331C
:103FA000A5FB03235B095A0002F4F87202EB01122D
:103FB00003F00703216813448B60D4E7001001402D
:103FC0001F85EB512DE9F84305460F4616469946E5
:103FD000DDF820802C68246837EA04030CBF4FF01A
:103FE000010C4FF0000CB4452DD1B8F1FF3FF1D0DA
:103FF000B8F1000F05D0FFF743FFA0EB09004045E3
:10400000E8D92A6802F10C0353E8003F23F4D07387
:104010000C3242E800310029F3D12A6802F114037E
:1040200053E8003F23F00103143242E80031002935
:10403000F3D1202385F83D3085F83E30002385F804
:104040003C30032000E00020BDE8F88358B310B5F1
:10405000044690F83D300BB3242384F83D302268A9
:10406000D36823F40053D3602046FFF723FF226870
:10407000136923F4904313612268536923F02A03E0
:1040800053612268D36843F40053D3600020206456
:10409000202384F83D3084F83E3010BD80F83C3059
:1040A000FEF782F9D8E7012070472DE9F04182B090
:1040B0001E4690F83D30DBB2202B54D104460D460D
:1040C0009046002953D0002A53D090F83C30012B61
:1040D00051D0012380F83C3000230364212380F871
:1040E0003D30FFF7CDFE0746A4F82480A4F82680D3
:1040F000A368B3F5805F05D04FF00008002384F873
:104100003C3012E0236913B14FF00008F6E7A846EF
:104110000025F3E738F8023B2268C3F30803536035
:10412000E28C92B2013A92B2E284E38C9BB273B118
:1041300000963B46002280212046FFF743FFE0B96E
:10414000002DE7D015F8012B23685A60E8E70096A8
:104150003B46002240212046FFF734FF78B9202358
:1041600084F83D3000E0022002B0BDE8F08101207B
:10417000FAE70120F8E70220F6E70320F4E703203E
:10418000F2E700002DE9F04782B005468846174661
:104190001E46FFF775FE0A9B1B1A03EB0609FFF785
:1041A0006FFE82462B4B1B68C3F3CB3309FB03F333
:1041B00001932B689C6838EA04030CBF4FF0010C94
:1041C0004FF0000CBC4540D0B6F1FF3FF1D0FFF7F7
:1041D00057FEA0EB0A0048450AD2B9F1000F07D0FC
:1041E000019A02B14A46019B013B01939146E0E7E7
:1041F0002A68536823F0E00353606B68B3F5827F4D
:104200000BD0AB6AB3F5005F14D0012385F85130B1
:10421000002385F85030032018E0AB68B3F5004F59
:1042200002D0B3F5806FECD12A68136823F0400305
:104230001360E6E72A68136823F4005313602A68C2
:10424000136843F400531360DFE7002002B0BDE8B9
:10425000F08700BF5C00002010B584B00446164B08
:104260001868164BA3FB0030400D4FF47A7303FB24
:1042700000F003906368B3F5827F0BD0039BBBB162
:10428000039B013B039323689B6813F0800FF5D1D8
:1042900000200EE000920B46002280212046FFF70E
:1042A00071FF30B1636D43F020036365032000E0CC
:1042B000002004B010BD00BF5C000020819F5E168E
:1042C00000285AD010B50446436A33B94368B3F5A1
:1042D000827F05D00023C36102E0002303614361B4
:1042E0000023A36294F85130002B40D0022384F8BD
:1042F00051302268136823F040031360636803F4AD
:104300008273A26802F404421343E26802F400627A
:104310001343226902F002021343626902F00102B0
:104320001343A26902F400721343E26902F03802F7
:104330001343226A02F080021343A26A02F400527D
:10434000216813430B60638B03F00403626A02F07D
:104350001002216813434B602268D36923F4006381
:10436000D36100206065012384F8513010BD84F8CA
:1043700050302046FDF7CAFFB8E7012070472DE90D
:10438000F04383B01D4690F85030012B00F0D180EF
:10439000044688469146012380F85030FFF770FDAF
:1043A000074694F85160F6B2012E40F0AF80B8F1A4
:1043B000000F00F0AC80B9F1000F00F0A8800323DB
:1043C00084F8513000236365C4F83080A4F8349039
:1043D000A4F83690A363A387E38763642364A36888
:1043E000B3F5004F1ED023681A6812F0400F03D1B6
:1043F0001A6842F040021A60E368B3F5006F1CD0FF
:10440000636813B1B9F1010F52D1226B236812789E
:104410001A73236B01332363E38E9BB2013B9BB280
:10442000E38645E02268136823F0400313602268A6
:10443000136843F480431360D5E7636813B1B9F19F
:10444000010F16D1226B23681288DA60236B0233C6
:104450002363E38E9BB2013B9BB2E38609E0FFF747
:104460000FFDC01BA84202D3B5F1FF3F59D1002D6B
:1044700059D0E38E9BB2002B33D023689A6812F098
:10448000020FECD0226B1288DA60236B02332363B5
:10449000E38E9BB2013B9BB2E386EAE7FFF7F0FCB9
:1044A000C01BA84202D3B5F1FF3F3ED1002D3ED044
:1044B000E38E9BB2ABB123689A6812F0020FEDD085
:1044C000226B12781A73236B01332363B4F836C05E
:1044D0001FFA8CFC0CF1FF3C1FFA8CFCA4F836C0D0
:1044E000E6E73A4629462046FFF7B6FE08B1202304
:1044F0006365A36833B901932368DA6801929B6806
:104500000193019B636D13B9002600E0022601238D
:1045100084F85130002384F85030304603B0BDE8B1
:10452000F0830326F3E70326F1E70326EFE70326EC
:10453000EDE70226F1E72DE9F04383B01F460A9D1F
:1045400090F85030012B00F01081044688469146C7
:10455000012380F85030FFF793FC064694F8513061
:10456000DBB26268012B0AD0B2F5827F40F0E380B3
:10457000A268002A40F0E980042B40F0E880B8F1FE
:10458000000F00F0E680B9F1000F00F0E480002F8A
:1045900000F0E38094F85130DBB2042B02D0052305
:1045A00084F8513000236365C4F83890E787A78703
:1045B000C4F83080E786A7862364636423681A689A
:1045C00012F0400F03D11A6842F040021A60E3680B
:1045D000B3F5006F11D063680BB1012F0BD1226BC3
:1045E000236812781A73236B01332363E38E9BB223
:1045F000013B9BB2E38601276BE063680BB1012F9F
:104600000BD1226B23681288DA60236B0233236399
:10461000E38E9BB2013B9BB2E38601271CE023683B
:104620009A6812F0010F0ED0E28F92B25AB1DA6896
:10463000A36B1A80A36B0233A363E38F9BB2013B8E
:104640009BB2E3870127FFF71BFC801BA84203D323
:10465000B5F1FF3F40F08380E38E9BB21BB9E38F3F
:104660009BB2002B53D023689A6812F0020FD6D069
:10467000E28E92B2002AD2D0002FD0D0226B1288C4
:10468000DA60236B02332363E38E9BB2013B9BB260
:10469000E3860027C3E723689A6812F0010F0ED063
:1046A000E28F92B25AB1DA68A36B1A70A36B01332E
:1046B000A363E38F9BB2013B9BB2E3870127FFF724
:1046C000DFFB831BAB4202D3B5F1FF3F49D1002D85
:1046D00049D0E38E9BB213B9E38F9BB2BBB1236881
:1046E0009A6812F0020FD6D0E28E92B2002AD2D08F
:1046F000002FD0D0226B12781A73236B01332363FF
:10470000E38E9BB2013B9BB2E3860027C3E73246B0
:1047100029462046FFF7A0FD48B9A36863B9019375
:104720002368DA6801929B680193019B04E02023CF
:104730006365012000E00220012384F8513000234A
:1047400084F8503003B0BDE8F0830220F4E7022083
:10475000F2E70120F0E70120EEE70120ECE703207B
:10476000EAE70320E8E70320E6E70220EAE70000A3
:1047700008B5044B03EB8002526852680344187A70
:10478000904708BD9029002008B5084B1B5C53B921
:10479000064B01221A5403EB800252681268184437
:1047A000007A904708BD0020FCE700BF9029002058
:1047B00038B5044C04EB80056D68AD680444207A7C
:1047C000A84738BD9029002038B5044C04EB80057B
:1047D0006D68ED680444207AA84738BD9029002010
:1047E00010B5044B03EB8004646824690344187A11
:1047F000A04710BD902900204278007840EA0220AE
:104800007047C278837843EA0222437843EA02235E
:10481000007840EA032070470170090A4170704730
:104820000170C1F307234370C1F307438370090E7E
:10483000C1707047944632B10A780131027001307C
:10484000BCF1010CF8D1704701700130013AFBD185
:10485000704784469CF800000CF1010C0B78013184
:10486000C01A013A01D00028F4D07047034600E096
:104870000133187808B18842FAD1704730B4002566
:104880002B4601E001250133012B15D81A01174CE5
:10489000A258002AF6D00468A242F4D1134A02EBCF
:1048A0000312546882689442EDD1104A02EB03125D
:1048B000946842699442E6D1022B0AD0A1B90B4A0E
:1048C00002EB03139B89B3F5807F0BD0002030BC33
:1048D00070472DB9022901D01220F8E70020F6E731
:1048E0000020F4E71020F2E71020F0E76C2700200A
:1048F000002000E00130012804D80301034AD35806
:10490000002BF7D1023818BF012070476C27002018
:1049100070B4002300E00133012B13D81A01244C9A
:10492000A45802689442F6D1214A02EB031254685B
:1049300082689442EFD11E4A02EB031294684269E6
:104940009442E8D1022B0DD021B1194A02EB031297
:10495000928952BBF1B9164A02EB031291890131D7
:1049600089B219E00023012B05D81A01104CA25876
:104970000AB10133F7E7022B15D00D4D1C0105EBF1
:10498000031206682E5184685460406990600020CC
:104990009081D9E74FF48071054A02EB03129181AF
:1049A000581C70BC70470020FBE70020F9E700BFEF
:1049B0006C2700200138012815D80D4B03EB00139C
:1049C0009B89B3F5807F03D01BB1013B9BB200E014
:1049D0000023074A02EB0012938133B90301002040
:1049E000034AD0507047022070470020704700BF34
:1049F0006C270020002303E05DF8044B704701336F
:104A0000012B11D81A0109498A588242F7D110B4F2
:104A10001A0100248C500133012BEDD81A010349EF
:104A20008A588242F7D1F3E7704700BF6C27002015
:104A30000239C369023B8B4204D94389006B01FBF5
:104A400003007047002070470268C36A04339089EE
:104A5000B1FBF0F15289B1FBF2F101E0091A083320
:104A6000186818B18142F9D258680844704770B587
:104A700006460D4601F11A00FFF7BEFE3378032B00
:104A800000D070BD044605F11400FFF7B5FE44EAFE
:104A90000040F6E770B506460C46154691B204F1A3
:104AA0001A00FFF7B9FE3378032B00D070BD290C34
:104AB00004F11400FFF7B0FEF8E700002DE9F04123
:104AC00080460E4601F11A00FFF796FE50BB35787E
:104AD00025F04005013D05EB450305EB8305012766
:104AE000002404E04FF6FF73984220D101340C2CCF
:104AF0000DD8124B185D3044FFF77EFE002FF1D029
:104B0000FE2D12D828F8150007460135EEE7337858
:104B100013F0400F0DD0FE2D0DD8002328F81530CE
:104B2000012000E00020BDE8F0810020FBE700202C
:104B3000F9E70120F7E70020F5E700BF4479000816
:104B40002DE9F84380460F4691464B730F23CB72F5
:104B500000240C73214607F11A00FFF75DFE09F1EE
:104B6000FF3606EB460306EB8306254602E00134DA
:104B70000C2C11D84FF6FF739D4202D038F8165016
:104B800001360C4B185D29463844FFF745FE002DD1
:104B9000EDD14FF6FF75EAE74FF6FF739D4202D065
:104BA00038F816300BB949F0400987F80090BDE895
:104BB000F88300BF4479000870B582B005461646F8
:104BC0001C460B22FFF736FE052C11D807231FE0E9
:104BD00001310F290CD803F0010C0CEB44045B08E5
:104BE00014F4803FF4D084F4883484F02104EFE797
:104BF0003388002BEAD002360021EAE75A1E083338
:104C00006B4403F8081C21090F2C0AD913460C46E3
:104C100004F00F0202F130013929EFD902F1370116
:104C2000ECE77E2102F108036B4403F8081C002323
:104C300000E00133934209D2E95C2029F9D105E073
:104C40002020591CE854072909D80B46072AF7D811
:104C500002F10801694411F8080C0132F1E702B0D1
:104C600070BD01464FF00B0C0020C30143EA500316
:104C70000878013150FA83F3D8B2BCF1010CF4D1B9
:104C800070470146006838B1024613781F2B06D9D9
:104C90003A2B04D00132F8E74FF0FF3070473A2B3F
:104CA00001D00020704710B4034613F8010B3038D0
:104CB000092808D89A4202D04FF0FF3005E038B9F1
:104CC00001320A6001E04FF0FF305DF8044B70479D
:104CD0004FF0FF30F9E701600023436083607047C5
:104CE00038B50D46044698B103689BB11A78A2B155
:104CF0008188DA88914203D0092000242C6038BDD5
:104D00005878FFF735FD10F0010009D12468F5E768
:104D10000920F3E71C460920F0E709200024EDE70D
:104D200009200024EAE72DE9F041C57815B92846A5
:104D3000BDE8F0810446476B00F1380801233A468C
:104D400041464078FFF740FD0546A0B90023E370D7
:104D5000A36AFB1A226A9342E9D2A67808E0236A82
:104D60001F4401233A4641466078FFF72DFD013E7E
:104D7000012EF4D8DBE70125D9E770B5436B8B42F0
:104D800002D10026304670BD04460D46FFF7CBFF2A
:104D900006460028F6D101232A4604F1380160783E
:104DA000FFF706FD10B101264FF0FF356563E9E717
:104DB00038B504460023C3704FF0FF334363FFF759
:104DC000DCFF30BB054604F23620FFF715FD4AF63E
:104DD000552398421FD194F83830E92B07D0A36BA4
:104DE00003F0FF130D4A934201D0022514E004F1B1
:104DF0006E00FFF706FD20F07F40094B98420BD074
:104E000004F18A00FFF7FDFC064B984204D002250E
:104E100002E0042500E00325284638BDEB009000A1
:104E200046415400464154332DE9F04F87B00D46BA
:104E3000164600230B60FFF724FF071EC0F26881AF
:104E4000BE4B53F82740002C00F067812C6006F021
:104E5000FE06237873B16078FFF78AFC10F0010535
:104E600008D1002E00F0558110F0040F00F05181A0
:104E70000A254EE100232370F8B26070FFF784FC2E
:104E800010F0010F40F04B811EB110F0040F40F004
:104E9000488104F10C0202216078FFF7A1FC05466D
:104EA000002840F04081A289A2F500739BB2B3F5BF
:104EB000606F00F23A81531E1A4201D0012528E1A9
:104EC00000212046FFF774FF022800F0C38000266F
:104ED000042800F02C81012800F22B8104F143000A
:104EE000FFF78AFCB4F80C80404540F0248104F1BF
:104EF0004E00FFF781FC074620B904F15C00FFF784
:104F000080FC0746276294F84820A270531EDBB24B
:104F1000012B00F21D8107FB02F3009394F84590EA
:104F2000A4F80A90B9F1000F00F0148109F1FF33E1
:104F300019EA030F40F0108104F14900FFF75CFC0F
:104F4000824620814FEA581BB0FBFBF30BFB130397
:104F50009BB2002B40F0028104F14B00FFF74CFCA8
:104F6000019020B904F15800FFF74BFC019004F1C7
:104F70004600FFF741FC0146002800F0F180009B4D
:104F8000C318BAFBFBFB5B44019A9A42C0F0EA806B
:104F9000D21AB2FBF9F04A45C0F0E6804FF6F5723E
:104FA00090426FD94FF0030B40F6F572904201D852
:104FB0004FF0010B00F10209C4F81C9066628A19D7
:104FC000A26233442363BBF1030F5ED0BAF1000F3A
:104FD00000F0D080009B1A44E262BBF1020F65D062
:104FE00009EB490209F0010303EB52034344013B7F
:104FF000B3FBF8F8B84500F2BF804FF0FF33A36170
:10500000636180232371BBF1030F52D084F800B099
:105010004B4A138801339BB21380E380494B2361D1
:105020002046FFF7E7FC74E0002006AB03EB8603A5
:1050300043F8100C0136032E0ED804F1380033016A
:1050400003F5DF7318440379002BEDD00830FFF728
:10505000D8FBEAE70026EEE700270AE031462046C3
:10506000FFF7A6FE01287FF633AF0137032F3FF687
:105070002FAF06AB03EB870353F8106C002EEDD176
:105080000320F2E74FF0020B8EE704F16200FFF716
:10509000B3FB00286AD1BAF1000F69D104F16400B2
:1050A000FFF7AFFBE0624FEA89039FE74FEA49034E
:1050B0009CE704F16800FFF79FFB0128A6D1711C53
:1050C0002046FFF75AFE0028A0D10023237104F2E6
:1050D0003620FFF791FB4AF65523984296D104F10A
:1050E0003800FFF78EFB184B98428FD104F50770FC
:1050F000FFF787FB154B984288D104F50870FFF73E
:1051000080FBA06104F50970FFF77BFB60617DE720
:105110000B25284607B0BDE8F08F0C25F9E70325DD
:10512000F7E70A25F5E70125F3E70125F1E7012572
:10513000EFE70D25EDE70D25EBE700BF6827002021
:105140008C270020902700205252614172724161E9
:105150000D25DEE70D25DCE70D25DAE70D25D8E77F
:105160000D25D6E70D25D4E70D25D2E70D25D0E78F
:105170000D25CEE70D25CCE70D25CAE72DE9F04733
:10518000012940F2968004460D461746C3698B42BA
:1051900040F291800378022B4FD0032B67D0012B74
:1051A00003D002263046BDE8F08701EB5108816A42
:1051B0008389B8FBF3F31944FFF7DFFD06460028A7
:1051C000F0D104F1380A08F10109A389B8FBF3F220
:1051D00003FB128815F0010524D01AF9083003F0FA
:1051E0000F033A0102F47F621343DBB20AF808307E
:1051F0000123E370A16AA389B9FBF3F319442046A4
:10520000FFF7BBFD06460028CCD1A389B9FBF3F21A
:1052100003FB129945B1C7F307120AF809200123CD
:10522000E370BFE7FBB2E1E71AF9092022F00F02B1
:10523000C7F303273A43D2B2EFE7816A83895B0859
:10524000B5FBF3F31944FFF798FD06460028A9D1F2
:1052500004F138006D00A389B5FBF3F203FB12558E
:10526000B9B22844FFF7D8FA0123E3709AE7816ABC
:1052700083899B08B5FBF3F31944FFF77EFD0646CF
:1052800000288FD127F0704704F13803AD00A289C0
:10529000B5FBF2F102FB11551D442846FFF7B1FAA8
:1052A00000F0704139432846FFF7BAFA0123E37052
:1052B00078E7022676E7022674E7F8B50568012943
:1052C0006CD90C46EB698B426AD92B78022B37D00C
:1052D000032B4BD0012B01D0012060E001EB5106E4
:1052E000A96AAB89B6FBF3F319442846FFF745FDDD
:1052F00010B14FF0FF3052E0771CAB89B6FBF3F2F0
:1053000003FB12662E4496F83860A96AB7FBF3F3E4
:1053100019442846FFF731FD002843D1AB89B7FB7C
:10532000F3F203FB12773D4495F8380046EA00207B
:1053300014F0010F01D0000931E0C0F30B002EE0A2
:10534000A96AAB895B08B4FBF3F319442846FFF75D
:1053500014FD50BB05F138006400AB89B4FBF3F2D7
:1053600003FB12442044FFF747FA18E0A96AAB890F
:105370009B08B4FBF3F319442846FFF7FEFCB8B9C9
:1053800005F13800A400AB89B4FBF3F203FB12442F
:105390002044FFF736FA20F0704000E00120F8BD0D
:1053A0000120FCE74FF0FF30F9E74FF0FF30F6E760
:1053B0004FF0FF30F3E72DE9F041D0F80080B1F570
:1053C000001F4AD207460E4611F01F0F47D1416118
:1053D00084682CB998F80030022B01D9D8F82C40F9
:1053E000ECB9B8F80830B3EB561F3AD9D8F82C30DE
:1053F000FB61BC61FB69E3B3B8F80C20B6FBF2F2C9
:105400001344FB6108F13803B8F80C10B6FBF1F255
:1054100001FB1261194439620020BDE8F081B8F83F
:105420000A50B8F80C3003FB05F5AE420FD3214605
:105430003846FFF742FF0446B0F1FF3F13D0012882
:1054400013D9D8F81C30834211D9761BEDE72146D9
:105450004046FFF7EDFAF861CBE70220DDE70220D6
:10546000DBE70220D9E70120D7E70220D5E70220B9
:10547000D3E70220D1E72DE9F041054606680F4643
:1054800051B9D6F81480B8F1000F12D0F369434532
:1054900011D84FF001080EE0FFF70FFF0346012877
:1054A00047D9B0F1FF3F49D0F269824246D8B846A9
:1054B00001E04FF0010844460CE021462846FFF782
:1054C000FCFE034678B1012838D0B0F1FF3F35D05B
:1054D000444532D00134F369A342EED8B8F1010F4C
:1054E00029D90224E9E74FF0FF3221463046FFF781
:1054F00045FE034600B977B9A3B97461B269F3698F
:10550000023B9A4201D8013AB261337943F0010378
:105510003371234612E0224639463046FFF72EFE0D
:105520000346E9E7012B01D0012307E04FF0FF33E9
:1055300004E0012302E0002300E000231846BDE858
:10554000F081F8B50C46056801292ED906461146AA
:10555000EB69A3422BD94AB14FF0FF322846FFF73F
:105560000DFE074610B123E0A24221D9274621466D
:105570003046FFF7A2FE0446E0B101281CD0B0F18E
:10558000FF3F1BD0002239462846FFF7F7FD0746AC
:1055900070B9AB69EA69911E8B42E5D20133AB6108
:1055A0002B7943F001032B71DEE7022700E002278D
:1055B0003846F8BD0027FBE70227F9E70127F7E7A0
:1055C0002DE9F84306684469C369002B74D0054689
:1055D0000F462034B4F5001F70D2B189B4FBF1F24C
:1055E00001FB12423AB90133C3618169A1B9338920
:1055F000B3EB541F0CD96C6106F13803B289B4FBCC
:10560000F2F102FB11441C442C620020BDE8F88337
:105610000023C3610420F9E7B289B4FBF2F2738975
:10562000013B12EA0308E6D1FFF747FE8146012855
:1056300046D9B0F1FF3F45D0F369834234D88FB1EA
:10564000A9692846FFF717FF814600283CD00128AA
:105650003CD0B0F1FF3F3BD03046FFF764FB28B1B0
:105660000120D3E70023EB610420CFE7B2890021BA
:1056700006F13800FFF7E8F849463046FFF7D8F959
:105680007063738998450BD20123F3703046FFF79E
:105690004AFBF8B908F10108736B01337363F0E753
:1056A000736BA3EB08037363C5F818904946304643
:1056B000FFF7BEF9E8619EE70420A7E70420A5E70D
:1056C0000220A3E70120A1E707209FE702209DE732
:1056D00001209BE7012099E7F8B504460E460768CC
:1056E0000021FFF768FE0246C0B9002508E0013539
:1056F000B54213D001212046FFF762FF024668B988
:10570000E1693846FFF739FB024638B9236A1B784E
:10571000E52BECD0002BEAD00025EBE7042A01D0E2
:105720001046F8BD0722FBE72DE9F84304468846FA
:1057300007684FF0FF094E4604252EE00F2B19D1C4
:1057400012F0400F06D091F80D9002F0BF0263698D
:1057500023631646B24201D0FF2618E04B7B4B452F
:1057600001D0FF2613E03869FFF7A8F988B3013E9E
:10577000F6B20CE026B90846FFF773FA48452BD07D
:105780004FF0FF33236327E0FF2600E0FF260021D0
:105790002046FFF715FF0546F0B9E169E1B138464B
:1057A000FFF7EBFA0546B8B9216A0A789AB1CB7AC5
:1057B00003F03F03A371E52AE6D02E2AE6D023F0BA
:1057C0002000082814BF002001204045B6D0FF2645
:1057D000DDE7FF26DBE704250DB10023E361284662
:1057E000BDE8F88370B5044605684669016BB1F100
:1057F000FF3F18D1E1692846FFF7BFFA034670B9A9
:10580000226AE52111700122EA706269B24206D271
:1058100000212046FFF7D4FE03460028EAD0042BDF
:1058200007D0184670BDFFF7C6FD03460028F8D123
:10583000E0E70223F5E7000070B50446FFF773FACE
:10584000054648B92378032B08D00022114660781A
:10585000FEF7C6FF00B10125284670BD2379012B54
:10586000F3D104F13806A28900213046FEF7ECFF9F
:105870004AF6552104F23620FEF7CEFF0E49304697
:10588000FEF7CEFF0D4904F50770FEF7C9FFA169C9
:1058900004F50870FEF7C4FF616904F50970FEF7AE
:1058A000BFFF626A01326263012331466078FEF70E
:1058B0008BFF00232371C8E752526141727241612C
:1058C0002DE9F04F83B007468A46D1F8009003686F
:1058D0001D690024234612E0013619F806302F2BEB
:1058E000FAD05C2BF8D04E44CAF800601F2823D8A9
:1058F0004FF0040824E025F81480013433465E1C80
:1059000019F803001F28EED92F28E6D05C28E4D030
:10591000FE2C00F2DF80012101F002F98046002810
:1059200000F0DA807F28E6D801466D48FEF79EFF3A
:105930000028E0D0062085E04FF0000800E0013CA0
:1059400044B104F10043013B35F81330202BF6D06D
:105950002E2BF4D0002325F81430002C00F0BE804C
:105960000B22202107F12400FEF76EFF002300E048
:10597000013335F81320202AFAD02E2AF8D01BB193
:1059800048F0030800E0013C6CB104F10042013A28
:1059900035F812202E2AF6D14FF0080B4FF0000AEE
:1059A000CDF804A00AE0A2464FF0080B00220192B5
:1059B00004E04C450BD048F003084B4603F10109C5
:1059C00035F81360FEB1202EF5D02E2EF1D0DA4539
:1059D00010D24C450ED07F2E44D8002E4FD148F027
:1059E00003085F2607EB0A0383F824604B460AF19D
:1059F000010AE3E7BBF10B0F27D04C4501D048F07B
:105A000003084C4524D297F82430E52B53D0BBF142
:105A1000080F54D0019B03F00C020C2A03D003F0B2
:105A20000303032B01D148F0020818F0020F06D13E
:105A3000019B03F00303012B46D0042A47D087F8CB
:105A40002F80002003B0BDE8F08F48F00308DAE7AC
:105A5000019B9B00DBB2019323464FF00B0B4FF0F1
:105A6000080AABE70021304601F05AF8064618B1A3
:105A7000A0F180061B4B9E5D48F00208ADE7314661
:105A80001948FEF7F3FE0028A9D1A6F141039BB205
:105A9000192B04D8019B43F002030193A2E7A6F15E
:105AA00061039BB2192B9DD8019B43F00103019325
:105AB000203EB6B296E7052387F82430A7E7019B7E
:105AC0009B00DBB20193A5E748F01008B5E748F06A
:105AD0000808B4E70620B5E70620B3E70620B1E7DB
