:020000040800F2
:1000000000000220314D0008391800083B18000894
:100010003D1800083F1800084118000800000000C3
:10002000000000000000000000000000431800086D
:10003000451800080000000047180008491800088B
:10004000814D0008814D0008814D0008814D000858
:10005000814D0008814D0008814D0008814D000848
:1000600075180008814D0008814D0008814D000879
:10007000814D0008814D0008814D0008814D000828
:10008000814D000881180008814D00080000000023
:10009000000000000000000000000000814D00088A
:1000A000814D0008814D0008814D0008814D0008F8
:1000B000814D0008814D0008814D0008814D0008E8
:1000C000814D0008814D0008814D0008814D0008D8
:1000D000814D0008814D0008814D0008000000009E
:1000E000814D0008814D0008814D0008000000008E
:1000F000000000000000000000000000814D00082A
:1001000000000000814D0008814D0008814D00086D
:1001100000000000000000000000000000000000DF
:10012000814D0008814D0008814D0008814D000877
:10013000814D0008000000000000000000000000E9
:10014000000000000000000000000000814D0008D9
:10015000814D0008814D0008814D0008814D000847
:10016000814D0008814D00080000000000000000E3
:10017000000000000000000000000000000000007F
:1001800000000000814D0008000000000000000099
:08019000814D0008814D0008BB
:1001A00010B5054C237833B9044B13B10448AFF3B1
:1001B00000800123237010BDD0000020000000004B
:1001C000D456000808B5034B1BB103490348AFF3ED
:1001D000008008BD00000000D4000020D4560008B4
:1001E00001F0FF01102A2BDB10F0070F08D010F8E8
:1001F000013B013A8B422DD010F0070F42B3F6D1EC
:10020000F0B441EA012141EA014122F007047FF004
:1002100000070023F0E80256083C85EA010586EA5B
:10022000010685FA47F5A3FA87F586FA47F6A5FA97
:1002300087F68EB9EED1F0BC01F0FF0102F00702A3
:1002400032B110F8013B013A83EA010313B1F8D14E
:100250000020704701387047002D06BF354603382F
:10026000073815F0010F07D1013015F4807F02BF68
:10027000013015F4C03F0130F0BC0138704700BFB9
:1002800081F0004102E000BF83F0004330B54FEA47
:1002900041044FEA430594EA050F08BF90EA020FB4
:1002A0001FBF54EA000C55EA020C7FEA645C7FEA47
:1002B000655C00F0E2804FEA5454D4EB5555B8BF6A
:1002C0006D420CDD2C4480EA020281EA030382EADB
:1002D000000083EA010180EA020281EA0303362D6D
:1002E00088BF30BD11F0004F4FEA01314FF4801C40
:1002F0004CEA113102D0404261EB410113F0004F52
:100300004FEA03334CEA133302D0524263EB430308
:1003100094EA050F00F0A780A4F10104D5F1200EA6
:100320000DDB02FA0EFC22FA05F2801841F1000101
:1003300003FA0EF2801843FA05F359410EE0A5F1D5
:1003400020050EF1200E012A03FA0EFC28BF4CF006
:10035000020C43FA05F3C01851EBE37101F00045BC
:1003600007D54FF0000EDCF1000C7EEB00006EEBC9
:100370000101B1F5801F1BD3B1F5001F0CD3490853
:100380005FEA30004FEA3C0C04F101044FEA4452AA
:1003900012F5800F80F09A80BCF1004F08BF5FEA31
:1003A000500C50F1000041EB045141EA050130BD11
:1003B0005FEA4C0C404141EB0101013C28BFB1F523
:1003C000801FE9D291F0000F04BF01460020B1FA6E
:1003D00081F308BF2033A3F10B03B3F120020CDA41
:1003E0000C3208DD02F1140CC2F10C0201FA0CF01F
:1003F00021FA02F10CE002F11402D8BFC2F1200C84
:1004000001FA02F120FA0CFCDCBF41EA0C01904039
:10041000E41AA2BF01EB0451294330BD6FEA040482
:100420001F3C1CDA0C340EDC04F11404C4F120026D
:1004300020FA04F001FA02F340EA030021FA04F37F
:1004400045EA030130BDC4F10C04C4F1200220FAD6
:1004500002F001FA04F340EA0300294630BD21FA14
:1004600004F0294630BD94F0000F83F4801306BFDA
:1004700081F480110134013D4EE77FEA645C18BFCE
:100480007FEA655C29D094EA050F08BF90EA020F65
:1004900005D054EA000C04BF1946104630BD91EA5D
:1004A000030F1EBF0021002030BD5FEA545C05D160
:1004B0004000494128BF41F0004130BD14F580049F
:1004C0003CBF01F5801130BD01F0004545F0FE4113
:1004D00041F470014FF0000030BD7FEA645C1ABF48
:1004E000194610467FEA655C1CBF0B46024650EA7F
:1004F000013406BF52EA033591EA030F41F40021AB
:1005000030BD00BF90F0000F04BF0021704730B530
:100510004FF4806404F132044FF000054FF0000105
:1005200050E700BF90F0000F04BF0021704730B5C6
:100530004FF4806404F1320410F0004548BF40429B
:100540004FF000013EE700BF42004FEAE2014FEAF0
:1005500031014FEA02701FBF12F07F4393F07F4FCB
:1005600081F06051704732F07F4208BF704793F0CE
:100570007F4F04BF41F40021704730B54FF46074E1
:1005800001F0004521F000411CE700BF50EA0102E4
:1005900008BF704730B54FF000050AE050EA01028D
:1005A00008BF704730B511F0004502D5404261EBFD
:1005B00041014FF4806404F132045FEA915C3FF43E
:1005C000D8AE4FF003025FEADC0C18BF03325FEADB
:1005D000DC0C18BF033202EBDC02C2F1200300FA8C
:1005E00003FC20FA02F001FA03FE40EA0E0021FAB1
:1005F00002F11444BDE600BF70B54FF0FF0C4CF49F
:10060000E06C1CEA11541DBF1CEA135594EA0C0F50
:1006100095EA0C0F00F0DEF82C4481EA030621EA8B
:100620004C5123EA4C5350EA013518BF52EA0335C6
:1006300041F4801143F4801338D0A0FB02CE4FF078
:100640000005E1FB02E506F00042E0FB03E54FF0A8
:100650000006E1FB03569CF0000F18BF4EF0010EA0
:10066000A4F1FF04B6F5007F64F5407404D25FEA9C
:100670004E0E6D4146EB060642EAC62141EA55514F
:100680004FEAC52040EA5E504FEACE2EB4F1FD0C91
:1006900088BFBCF5E06F1ED8BEF1004F08BF5FEA0F
:1006A000500E50F1000041EB045170BD06F00046C1
:1006B00046EA010140EA020081EA0301B4EB5C046E
:1006C000C2BFD4EB0C0541EA045170BD41F4801166
:1006D0004FF0000E013C00F3AB8014F1360FDEBF8B
:1006E000002001F0004170BDC4F10004203C35DA67
:1006F0000C341BDC04F11404C4F1200500FA05F3EA
:1007000020FA04F001FA05F240EA020001F000428A
:1007100021F0004110EBD37021FA04F642EB060100
:100720005EEA430E08BF20EAD37070BDC4F10C042A
:10073000C4F1200500FA04F320FA05F001FA04F2EE
:1007400040EA020001F0004110EBD37041F10001DA
:100750005EEA430E08BF20EAD37070BDC4F12005E5
:1007600000FA05F24EEA020E20FA04F301FA05F24D
:1007700043EA020321FA04F001F0004121FA04F2F5
:1007800020EA020000EBD3705EEA430E08BF20EAC5
:10079000D37070BD94F0000F0FD101F000464000FF
:1007A00041EB010111F4801F08BF013CF7D041EA81
:1007B000060195F0000F18BF704703F00046520085
:1007C00043EB030313F4801F08BF013DF7D043EA56
:1007D0000603704794EA0C0F0CEA135518BF95EA0C
:1007E0000C0F0CD050EA410618BF52EA4306D1D193
:1007F00081EA030101F000414FF0000070BD50EAB2
:10080000410606BF1046194652EA430619D094EA3B
:100810000C0F02D150EA013613D195EA0C0F05D125
:1008200052EA03361CBF104619460AD181EA030179
:1008300001F0004141F0FE4141F470014FF0000031
:1008400070BD41F0FE4141F4780170BD70B54FF0CC
:10085000FF0C4CF4E06C1CEA11541DBF1CEA13554C
:1008600094EA0C0F95EA0C0F00F0A7F8A4EB05042E
:1008700081EA030E52EA03354FEA013100F0888025
:100880004FEA03334FF0805545EA131343EA1263EE
:100890004FEA022245EA111545EA10654FEA0026A3
:1008A0000EF000419D4208BF964244F1FD0404F55C
:1008B000407402D25B084FEA3202B61A65EB0305B8
:1008C0005B084FEA32024FF480104FF4002CB6EB75
:1008D000020E75EB030E22BFB61A754640EA0C00F5
:1008E0005B084FEA3202B6EB020E75EB030E22BF35
:1008F000B61A754640EA5C005B084FEA3202B6EB76
:10090000020E75EB030E22BFB61A754640EA9C0034
:100910005B084FEA3202B6EB020E75EB030E22BF04
:10092000B61A754640EADC0055EA060E18D04FEAC2
:10093000051545EA16754FEA06164FEAC30343EA62
:1009400052734FEAC2025FEA1C1CC0D111F4801F2F
:100950000BD141EA00014FF000004FF0004CB6E728
:1009600011F4801F04BF01430020B4F1FD0C88BFC7
:10097000BCF5E06F3FF6AFAEB5EB030C04BFB6EBD2
:10098000020C5FEA500C50F1000041EB045170BDC5
:100990000EF0004E4EEA113114EB5C04C2BFD4EBF2
:1009A0000C0541EA045170BD41F480114FF0000E76
:1009B000013C90E645EA060E8DE60CEA135594EAF2
:1009C0000C0F08BF95EA0C0F3FF43BAF94EA0C0FF5
:1009D0000AD150EA01347FF434AF95EA0C0F7FF46A
:1009E00025AF104619462CE795EA0C0F06D152EABE
:1009F00003353FF4FDAE1046194622E750EA4106A2
:100A000018BF52EA43067FF4C5AE50EA41047FF4B2
:100A10000DAF52EA43057FF4EBAE12E74A0011D264
:100A200012F5001211D20DD56FF47873B3EB625248
:100A30000ED44FEAC12343F0004343EA505323FA54
:100A400002F070474FF00000704750EA013002D1C9
:100A50004FF0FF3070474FF00000704753B94AB96C
:100A6000002908BF00281CBF4FF0FF314FF0FF30B6
:100A700000F074B9ADF1080C6DE904CE00F006F891
:100A8000DDF804E0DDE9022304B070472DE9F0470A
:100A9000089D04468E46002B4DD18A42944669D962
:100AA000B2FA82F252B101FA02F3C2F1200120FA45
:100AB00001F10CFA02FC41EA030E94404FEA1C4893
:100AC000210CBEFBF8F61FFA8CF708FB16E341EA8F
:100AD000034306FB07F199420AD91CEB030306F115
:100AE000FF3080F01F81994240F21C81023E634436
:100AF0005B1AA4B2B3FBF8F008FB103344EA0344DA
:100B000000FB07F7A7420AD91CEB040400F1FF33EE
:100B100080F00A81A74240F207816444023840EA2B
:100B20000640E41B00261DB1D4400023C5E9004364
:100B30003146BDE8F0878B4209D9002D00F0EF80E7
:100B40000026C5E9000130463146BDE8F087B3FA1A
:100B500083F6002E4AD18B4202D3824200F2F98002
:100B6000841A61EB030301209E46002DE0D0C5E905
:100B7000004EDDE702B9FFDEB2FA82F2002A40F051
:100B80009280A1EB0C014FEA1C471FFA8CFE012654
:100B9000200CB1FBF7F307FB131140EA01410EFBF8
:100BA00003F0884208D91CEB010103F1FF3802D29F
:100BB000884200F2CB804346091AA4B2B1FBF7F099
:100BC00007FB101144EA01440EFB00FEA64508D9BC
:100BD0001CEB040400F1FF3102D2A64500F2BB80F9
:100BE0000846A4EB0E0440EA03409CE7C6F1200748
:100BF000B34022FA07FC4CEA030C20FA07F401FA8E
:100C000006F31C43F9404FEA1C4900FA06F3B1FB16
:100C1000F9F8200C1FFA8CFE09FB181140EA01417B
:100C200008FB0EF0884202FA06F20BD91CEB010118
:100C300008F1FF3A80F08880884240F28580A8F170
:100C400002086144091AA4B2B1FBF9F009FB1011C2
:100C500044EA014100FB0EFE8E4508D91CEB010160
:100C600000F1FF346CD28E456AD90238614440EA03
:100C70000840A0FB0294A1EB0E01A142C846A64683
:100C800056D353D05DB1B3EB080261EB0E0101FA0C
:100C900007F722FA06F3F1401F43C5E90071002669
:100CA0003146BDE8F087C2F12003D8400CFA02FCBF
:100CB00021FA03F3914001434FEA1C471FFA8CFECF
:100CC000B3FBF7F007FB10360B0C43EA064300FBBF
:100CD0000EF69E4204FA02F408D91CEB030300F15D
:100CE000FF382FD29E422DD9023863449B1B89B214
:100CF000B3FBF7F607FB163341EA034106FB0EF39D
:100D00008B4208D91CEB010106F1FF3816D28B4249
:100D100014D9023E6144C91A46EA004638E72E4615
:100D2000284605E70646E3E61846F8E64B45A9D20D
:100D3000B9EB020864EB0C0E0138A3E74646EAE77C
:100D4000204694E74046D1E7D0467BE7023B61442A
:100D500032E7304609E76444023842E7704700BF93
:100D60002DE9F0418AB00024059406940794089474
:100D700009940194344B1A6B42F004021A631A6B03
:100D800002F004020192019A02941A6B42F080026E
:100D90001A631A6B02F080020292029A03941A6B91
:100DA00042F001021A631A6B02F001020392039AE5
:100DB00004941A6B42F002021A631B6B03F00203E5
:100DC0000493049BDFF88C8022462021404602F0E9
:100DD000E7F81E4D22464FF40051284602F0E0F895
:100DE0004FF4005705974FF4041306930794184ED9
:100DF00005A9304601F0F4FF042305934FF488134E
:100E00000693079405A9304601F0EAFF20230593D5
:100E1000012606960794089405A9404601F0E0FFD4
:100E2000059706960794089405A9284601F0D8FF6F
:100E300022462146082002F097FA082002F0CCFA58
:100E40000AB0BDE8F08100BF003802400004024053
:100E5000000802400000024000B583B0002101916B
:100E6000094B1A6B42F400121A631B6B03F4001354
:100E70000193019B0A46112002F076FA112002F03C
:100E8000ABFA03B05DF804FB0038024072B6FEE72F
:100E900008B50A480A4B03604FF4E133436000236E
:100EA0008360C36003610C2242618361C36102F00D
:100EB000A3FB00B908BDFFF7E9FF00BFF801002060
:100EC0000044004008B50A480A4B03600A4B4360DF
:100ED00000238360C3604FF48042026143618361F9
:100EE000C361036201F082F800B908BDFFF7CEFFCD
:100EF0004C01002000540040A086010008B50D48B8
:100F00000D4B03604FF48273436000238360C36022
:100F1000036143614FF4007282611022C261036277
:100F2000436283620A23C36202F034FC00B908BD45
:100F3000FFF7ACFFA00100200038004000B595B0DD
:100F40003022002108A803F041FF002303930493FB
:100F500005930693079301931E4A116C41F080514B
:100F60001164126C02F080520192019A02931A4AA3
:100F7000116841F440411160126802F4404202924B
:100F8000029A0221089101220B9210220C920E91DA
:100F90000F9310924FF4A873119304231293139399
:100FA00008A801F0E1FB80B90F230393022104910B
:100FB000002305934FF480520692079303A801F093
:100FC00039FE20B915B05DF804FBFFF75FFFFFF7AE
:100FD0005DFF00BF003802400070004008B502F01D
:100FE00043FAFFF7ABFFFFF7BBFEFFF735FFFFF755
:100FF0004FFFFFF767FFFFF781FF03F037FA00F0BD
:1010000067F8FCE708B50E4B1B78012B12D0802047
:1010100000F0BAFA0B4800F044FBC02000F0B4FA2C
:10102000094800F03EFB942000F0AEFA074800F0BB
:1010300038FB08BD00F028FB014B00221A70E6E7E0
:101040007A020020EC560008FC56000814570008ED
:1010500010B500F019FB154B00221A70144C2246F3
:101060003B21D0209FED130A00F07EFB124B18604D
:101070000268124B1A6042685A6082689A6022467F
:101080004321D0209FED0E0A00F06EFB0D4B18603F
:1010900002680D4B1A6042685A6082689A6080202C
:1010A00000F072FA094800F0FCFA10BD7A02002044
:1010B000BC02002000008046480200203C020020C4
:1010C00000000343880200207C020020245700080F
:1010D00008B50024154B1C70154B02221A6000F055
:1010E00077FA00F0E9FA134800F0DBFA40F2DC503E
:1010F00002F0E6F9204603F00BFE042003F008FEA0
:101100000D4D0B4C23681B01EB589847236805EBEA
:101110000313586802F0D4F92268044B1B7803EBE0
:101120008203023355F823302360E9E77A02002076
:10113000B80200203C57000874570008014B0122F8
:101140001A7070477A0200202DE9F0412DED028BD4
:1011500082B0884617461E469DF82850B0EE408A59
:101160000B9C40F0800000F00FFA304600F099FA36
:10117000B5EEC08AF1EE10FA1DDB174B83F8008044
:101180006B1CAA1C54F82220009254F8233054F807
:1011900025201249124803F021FE0F4B187840F029
:1011A000800000F0F1F90E4800F07BFA02B0BDECCF
:1011B000028BBDE8F081084B1F706B1CAA1C54F811
:1011C0002220009254F8233054F825200549044881
:1011D00003F004FEE1E700BFB40200204857000816
:1011E00074020020505700082DE9F0432DED028BCA
:1011F00083B0D44A3B21D0209FEDD30A00F0B4FA4B
:10120000D24F3860D0ED007AFDEEE77A17EE903AD3
:10121000002BB8BF5B42CE4E3360D0ED007AF2EEC9
:10122000048A67EEA87AFDEEE77A17EE902AC94C99
:1012300084FB0231D317C3EBA10303EB8303A2EBBF
:101240004303002BB8BF5B427360D0ED007A9FED83
:10125000C28A67EE887AFDEEE77A17EE902A84FB61
:101260000231D317C3EBA10303EB8303A2EB4303C8
:10127000002BB8BF5B42B360D0ED017AFDEEE77A98
:1012800017EE903A002BB8BF5B42F360D0ED017AC5
:1012900067EEA87AFDEEE77A17EE902A84FB02311A
:1012A000D317C3EBA10303EB8303A2EB4303002B90
:1012B000B8BF5B423361D0ED017A67EE887AFDEE0C
:1012C000E77A17EE902A84FB0231D317C3EBA10310
:1012D00003EB8303A2EB4303002BB8BF5B427361B4
:1012E000D0ED027AFDEEE77A17EE903A002BB8BF08
:1012F0005B42B361D0ED027A67EEA87AFDEEE77A41
:1013000017EE902A84FB0231D317C3EBA10303EB42
:101310008303A2EB4303002BB8BF5B42F361D0ED24
:10132000027A67EE887AFDEEE77A17EE902A84FB60
:101330000231D317C3EBA10303EB8303A2EB4303F7
:10134000002BB8BF5B423362844A4321D0209FED1B
:10135000840A00F009FADFF82C82C8F80000D0ED0A
:10136000007AFDEEE77A17EE903A002BB8BF5B42A9
:101370007C4D2B60D0ED007A67EEA87AFDEEE77A1F
:1013800017EE902A84FB0231D317C3EBA10303EBC2
:101390008303A2EB4303002BB8BF5B426B60D0ED2D
:1013A000007A67EE887AFDEEE77A17EE902A84FBE2
:1013B0000231D317C3EBA10303EB8303A2EB430377
:1013C000002BB8BF5B42AB60D0ED017AFDEEE77A4F
:1013D00017EE903A002BB8BF5B42EB60D0ED017A7C
:1013E00067EEA87AFDEEE77A17EE902A84FB0231C9
:1013F000D317C3EBA10303EB8303A2EB4303002B3F
:10140000B8BF5B422B61D0ED017A67EE887AFDEEC2
:10141000E77A17EE902A84FB0231D317C3EBA103BE
:1014200003EB8303A2EB4303002BB8BF5B426B616A
:10143000D0ED027AFDEEE77A17EE903A002BB8BFB6
:101440005B42AB61D0ED027A67EEA87AFDEEE77AF7
:1014500017EE902A84FB0231D317C3EBA10303EBF1
:101460008303A2EB4303002BB8BF5B42EB61D0EDDB
:10147000027A67EE887AFDEEE77A17EE902A84FB0F
:101480000234D317C3EBA40404EB8404A2EB44049A
:10149000002CB8BF64422C623B6893ED000A0196B1
:1014A00000240094304B032204212046FFF74CFE19
:1014B0003B6893ED010A01964FF00309CDF80090C7
:1014C0002A4B432244214020FFF73EFE3B6893ED28
:1014D000020A019606260096254B17221821142091
:1014E000FFF732FED8F8003093ED000A0195009422
:1014F000204B0D220E210A20FFF726FED8F80030DF
:1015000093ED010A0195CDF800901B4B4D224E2121
:101510004A20FFF719FED8F8003093ED020A019532
:101520000096164B212222211E20FFF70DFED4200B
:1015300000F02AF8124800F0B4F803B0BDEC028BBA
:10154000BDE8F0833C020020000080464C020020F1
:1015500050020020676666660000C8427C020020D8
:101560000000034390020020000000200C00002037
:101570001800002024000020300000203C00002043
:101580005C5700088C02002000B585B000F0F00325
:101590000001C0B243F00C028DF80C2043F00803A8
:1015A0008DF80D3040F00C038DF80E3040F008003F
:1015B0008DF80F0064230093042303AA4E210348EF
:1015C00000F0F2FD05B05DF804FB00BF4C01002007
:1015D00008B5322001F074FF3020FFF7D5FF052059
:1015E00001F06EFF3020FFF7CFFF012001F068FF10
:1015F0003020FFF7C9FF0A2001F062FF2020FFF72B
:10160000C3FF0A2001F05CFF2820FFF7BDFF012087
:1016100001F056FF0820FFF7B7FF012001F050FF4F
:101620000120FFF7B1FF012001F04AFF0620FFF77C
:10163000ABFF012001F044FF0C20FFF7A5FF08BD20
:1016400000B585B000F0F0030001C0B243F00D0218
:101650008DF80C2043F009038DF80D3040F00D0398
:101660008DF80E3040F009008DF80F0064230093D0
:10167000042303AA4E21034800F096FD05B05DF84F
:1016800004FB00BF4C01002010B50020FFF77CFFD9
:10169000002403E02020FFF7D3FF0134632CF9DDA1
:1016A00010BD10B5044602E00134FFF7C9FF2078F1
:1016B0000028F9D110BD00002DE9F04186B04FF4AB
:1016C0007A730293012301930DF1170200927522A0
:1016D000D021234800F0D6FE9DF81730682B09D0A2
:1016E0002048FFF7DEFF41F2883001F0E9FE06B046
:1016F000BDE8F0814FF000088DF81680184D4FF4CA
:101700007A770297012401940DF11606009623467C
:101710006B22D021284600F003FE07238DF81630F7
:1017200002970194009623461922D021284600F002
:10173000F7FD8DF8168002970194009623461C222F
:10174000D021284600F0ECFD8DF816800297019418
:10175000009623461B22D021284600F0E1FDC6E773
:101760004C010020A457000830B52DED028B85B048
:10177000B0EE408A15464FF47A7302930623019324
:101780001F4C009401230A4601461E4800F07AFED1
:101790002278637843EA02231BB207EE903AF8EE10
:1017A000E77A87EE887AD5ED007A77EE677A164881
:1017B000C0ED007AA278E37843EA02231BB207EE79
:1017C000903AF8EEE77A87EE887AD5ED017A77EEEF
:1017D000677AC0ED017A2279637943EA02231BB26A
:1017E00007EE903AF8EEE77A87EE887AD5ED027A3E
:1017F00077EE677AC0ED027A05B0BDEC028B30BDA2
:10180000D40200204C010020C8020020084B1B78A5
:1018100023B1074A1378013BDBB21370054B1B78E9
:1018200023B1044A1378013BDBB21370704700BF49
:10183000DB020020DC020020FEE7FEE7FEE7FEE719
:10184000FEE770477047704708B5094A13780133BF
:10185000DBB213701378DBB2092B02D801F01EFE45
:1018600008BD134600221A70FFF7D0FFF6E700BF4D
:10187000DA02002008B5042001F098FB08BD000042
:1018800008B5024801F070FC08BD00BFEC00002064
:1018900000B583B0002100910C4B5A6C42F4804299
:1018A0005A645A6C02F480420092009A01911A6CB8
:1018B00042F080521A641B6C03F080530193019B29
:1018C000072001F03FFD03B05DF804FB0038024043
:1018D00030B589B0002303930493059306930793CF
:1018E0000268144B9A4201D009B030BD0025019521
:1018F000114C236B43F002032363236B03F00203B9
:101900000193019BC02303931223049303230693A3
:101910000423079303A9094801F062FA0295236C96
:1019200043F400132364236C03F400130293029B1B
:10193000DAE700BF005400400038024000040240D3
:10194000F0B589B00023039304930593069307939E
:1019500002681F4B9A4201D009B0F0BD00240094E8
:1019600003F500331A6C42F480421A641A6C02F4D4
:1019700080420092009A01941A6B42F004021A63AA
:101980001A6B02F004020192019A02941A6B42F05F
:1019900002021A631B6B03F002030293029B0823EB
:1019A000039302270497032606960525079503A9A6
:1019B000084801F015FA4FF48843039304970594FF
:1019C0000696079503A9044801F00AFAC4E700BF88
:1019D00000380040000802400004024030B589B0E1
:1019E0000023039304930593069307930268234B04
:1019F0009A4201D009B030BD04460025019503F597
:101A0000FA331A6C42F400321A641A6C02F400328F
:101A10000192019A02951A6B42F001021A631B6B44
:101A200003F001030293029B0C230393022304930C
:101A3000032306930723079303A9114801F0D0F964
:101A40001048114B03604FF00063436040238360F4
:101A5000C5604FF480630361456185614FF4807315
:101A6000C3610562456201F019FB18B9054B636358
:101A70009C63BFE7FFF70AFAF8E700BF00440040A5
:101A800000000240EC000020A0600240034AD2F8AF
:101A9000883043F47003C2F88830704700ED00E0EE
:101AA00003685A6912F4806F01D1002070476FF407
:101AB00080625A6100230363202280F83D2080F871
:101AC0003E30026C42F00402026480F83C30012097
:101AD00070472DE9F04107460D4690461E4624E02A
:101AE00001F0E8FC069BC01AB04200D8EEB9002312
:101AF0003B63202287F83D2087F83E303A6C42F065
:101B000020023A6487F83C3001201EE03B689C6963
:101B100025EA040C1FFA8CFCBCFA8CFC4FEA5C1C16
:101B2000E04511D1B6F1FF3FDAD1C5F30743012BF0
:101B3000ECD13B685B6925EA030C1FFA8CFCBCFA0C
:101B40008CFC4FEA5C1CEBE70020BDE8F0812DE93E
:101B5000F04105460E46174698463DE01A6842F4A5
:101B600000721A602B686FF480625A6100232B6345
:101B7000202285F83D2085F83E302A6C42F0040290
:101B80002A6485F83C30012034E001F093FCA0EB9E
:101B90000800B84200D8FFB900232B63202285F843
:101BA0003D2085F83E302A6C42F020022A6485F8F8
:101BB0003C3001201EE02B689C6926EA0404A4B294
:101BC000003C18BF0124A4B12B685A6912F4806F3D
:101BD000C4D1B7F1FF3FD8D1C6F30743012BEAD1F7
:101BE0002B685C6926EA0404A4B2003C18BF0124F7
:101BF000E9E70020BDE8F081F0B583B004460D466A
:101C000016461F46C36A082B0DD0012B0BD013F5C7
:101C1000803F08D0036B122B0AD10268136843F48B
:101C20008073136004E02268136843F480731360C8
:101C30000097334600224FF001112046FFF749FF7D
:101C400080B92369B3F5804F16D1236805F0FE05EE
:101C50001D613B46324613492046FFF778FFF8B92D
:101C600003B0F0BD23681B6813F4807F02D04FF4EB
:101C7000007323640320F3E7EB11226803F00603EB
:101C800043F0F00313613B46324607492046FFF715
:101C90005EFF18B92368EDB21D61DAE70120DFE7C6
:101CA0000120DDE7020001000800010070B50446D4
:101CB0000D46164623685B6913F0800F1CD1204641
:101CC000FFF7EEFED0B9B5F1FF3FF3D001F0F2FB24
:101CD000801BA84201D8002DECD1002323632022D1
:101CE00084F83D2084F83E30226C42F020022264C9
:101CF00084F83C30012000E0002070BD0120FCE7AA
:101D00002DE9F04385B004460D4691461F46DDF8A7
:101D100030800D9E0368196841F480711960009647
:101D2000434600224FF00111FFF7D3FE60B923684C
:101D300005F0FE051D613346424626492046FFF761
:101D400006FF68B1012008E023681B6813F4807F58
:101D500002D04FF400732364032005B0BDE8F08384
:101D60000023039323685A6903929B690393039B9F
:101D7000324641462046FFF799FF30B9012F0FD177
:101D800023685FFA89F61E61E7E7236C042B01D014
:101D90000120E2E72268136843F400731360F7E759
:101DA00023684FEA19221A61324641462046FFF75E
:101DB0007DFF20B923685FFA89F61E61CDE7236CA9
:101DC000042B01D00120C8E72268136843F4007394
:101DD0001360F7E7020001002DE9F04784B00446E4
:101DE0000D46164699460C9FDDF83480026813684C
:101DF00043F4806313600368196841F480711960CB
:101E0000CDF800803B4600224FF00111FFF761FE44
:101E100070B95FFA85FA236805F0FE051D61434637
:101E20003A4641492046FFF792FE68B1012008E09A
:101E300023681B6813F4807F02D04FF4007323647F
:101E4000032004B0BDE8F0870023039323685A6998
:101E500003929B690393039B424639462046FFF752
:101E600025FF80B9B9F1010F18D12368F6B21E61C0
:101E7000424639462046FFF719FF68B3236C042B0E
:101E800024D00120DDE7236C042B01D00120D8E70A
:101E90002268136843F400731360F7E72368320A7B
:101EA0001A61424639462046FFF700FF18B92368F9
:101EB000F6B21E61DCE7236C042B01D00120C0E7E1
:101EC0002268136843F400731360F7E7226813680D
:101ED00043F400731360D4E72268136843F48073FB
:101EE0001360CDF800803B4600224FF001112046E0
:101EF000FFF7EFFD68B922684AF00103136143461A
:101F00003A4609492046FFF722FE002899D00120D1
:101F100097E723681B6813F4807F02D04FF40073A7
:101F2000236403208DE700BF0200010070B5044662
:101F30000D46164623685B6913F0040F1CD120463A
:101F4000FFF7AEFDD0B9B5F1FF3FF3D001F0B2FA23
:101F5000801BA84201D8002DECD10023236320224E
:101F600084F83D2084F83E30226C42F02002226446
:101F700084F83C30012000E0002070BD0120FCE727
:101F800070B505460C4616462B68596911F0400F8E
:101F900029D1596911F0100F15D101F08BFA801B6E
:101FA000A04201D8002CEFD100232B63202285F81A
:101FB0003D2085F83E302A6C42F020022A6485F8E4
:101FC0003C30012070BD6FF010025A6100232B637A
:101FD000202285F83D2085F83E302A6C2A6485F859
:101FE0003C300120EEE70020ECE70000002800F084
:101FF000CC8070B5044690F83D30002B77D0242378
:1020000084F83D302268136823F0010313602268CE
:10201000136843F4004313602268136823F40043F9
:10202000136000F0BDFE62685A4B9A4264D85A4B66
:1020300098428CBF00230123002B40F0A880574911
:10204000A1FB00318B0C25686A6822F03F0242EA4E
:1020500091426A6021680A6A22F03F0266684D4D2B
:10206000AE424FD8013313430B622168CA6922F490
:102070004F4222F0FF026668464B9E424CD8431EF8
:102080007600B3FBF6F3013340F6FC70034278D0E0
:10209000C3F30B031343CB6121680B6823F0C00328
:1020A000E269206A024313430B6021688B6823F4C2
:1020B000034323F0FF032269E068024313438B606C
:1020C0002168CB6823F0FF036269A06902431343D0
:1020D000CB602268136843F0010313600020206482
:1020E000202384F83D30206384F83E0070BD80F8E2
:1020F0003C30FFF7EDFB82E7294B98428CBF002371
:10210000012399E74FF4967505FB03F3254DA5FBD5
:1021100003539B090133A6E7A368BBB9451E06EB31
:10212000460CB5FBFCF50135C5F30B05B5FA85F595
:102130006D0945BBC3B9013806EB4603B0FBF3F3A9
:102140000133C3F30B0343F40043A3E7451E06EB3F
:10215000860C0CEB8C0CB5FBFCF50135C5F30B05BF
:10216000B5FA85F56D09E4E7013806EB860303EB64
:102170008303B0FBF3F30133C3F30B0343F4404396
:1021800088E7042386E7012384E7012070470120C4
:10219000ACE700BFA08601007F841E0083DE1B43E6
:1021A000FF083D00D34D62102DE9F04385B0044691
:1021B0000F46914698460C9E01F07CF9054694F82E
:1021C0003D00C0B2202804D00227384605B0BDE843
:1021D000F0830095192301224F492046FFF779FC2F
:1021E000002840F0928094F83C30012B00F08F8062
:1021F000012384F83C3023681A6812F0010F03D1E0
:102200001A6842F001021A602268136823F400631E
:102210001360212384F83D30102384F83E300023DE
:102220002364C4F82490A4F82A80638D23853B4B53
:10223000E3622B46324639462046FFF7DDFC07466F
:10224000002866D10023039323685A6903929B698F
:102250000393039B11E0236C042B01D00127B4E707
:102260002268136843F400731360F7E72A46314687
:102270002046FFF75BFE00282ED1238D002B36D0A1
:102280002A4631462046FFF711FD0028E3D1626A55
:10229000236812781A61606A431C6362618D89B297
:1022A000013989B26185238D013B9BB22385226868
:1022B000516911F0040FD9D0002BD7D043781361A6
:1022C000636A01336362638D9BB2013B9BB263859A
:1022D000238D013B2385C9E7236C042B01D0012703
:1022E00073E72268136843F400731360F7E722680A
:1022F000136843F400731360202384F83D300023F7
:1023000084F83E3084F83C305FE702275DE702271F
:102310005BE7012759E700BF020010000000FFFF44
:102320002DE9F04383B004460F46904699460C9E33
:1023300001F0C0F8054694F83D00C0B2202803D053
:10234000022003B0BDE8F0830095192301224B4918
:102350002046FFF7BEFB002840F0898094F83C300F
:10236000012B00F08680012384F83C3023681A6832
:1023700012F0010F03D11A6842F001021A602268BC
:10238000136823F400631360212384F83D30402355
:1023900084F83E30002323640A9B6362BDF82C302E
:1023A0006385638D2385364BE362019500964B462A
:1023B000424639462046FFF7A3FC00285BD1238D17
:1023C000002B35D02A4631462046FFF76FFC20BB54
:1023D000626A236812781A61626A531C6362218DF3
:1023E000013989B22185638D9BB2013B9BB2638524
:1023F0002368586910F0040FE1D00029DFD052782B
:102400001A61636A01336362238D013B2385638D07
:102410009BB2013B9BB26385D1E7236C042B01D0B7
:1024200001208EE72268136843F400731360F7E716
:102430002A4631462046FFF779FD50B1236C042B24
:1024400001D001207DE72268136843F40073136014
:10245000F7E72268136843F400731360202384F8BD
:102460003D30002384F83E3084F83C3069E7022098
:1024700067E7022065E7012063E700BF0200100064
:102480000000FFFF2DE9F04387B004460F46904659
:102490009946109E01F00EF8054694F83D00C0B232
:1024A000202804D00227384607B0BDE8F083009505
:1024B0001923012288492046FFF70BFB002840F032
:1024C000438194F83C30012B00F04081012384F8D3
:1024D0003C3023681A6812F0010F03D11A6842F0E9
:1024E00001021A602268136823F400631360222338
:1024F00084F83D30402384F83E30002323640E9B53
:102500006362BDF83C306385638D2385734BE36262
:10251000019500964B46424639462046FFF75CFC43
:102520000746002840F01481238D5BB9029323688D
:102530005A6902929A690292029A1A6842F40072E7
:102540001A6075E0012B0AD0022B1AD000230593E4
:1025500023685A6905929B690593059B68E0226888
:10256000136823F4806313600023039323685A697C
:1025700003929A690392039A1A6842F400721A60ED
:1025800056E02268136823F480631360226813689E
:1025900043F4006313600023049323685A69049290
:1025A0009B690493049B43E02A4631462046FFF78B
:1025B000E7FC002840F0CE8023681A69636A1A702D
:1025C000636A01336362238D013B2385638D9BB274
:1025D000013B9BB263852BE00095334600224049C6
:1025E0002046FFF776FA002840F0B680226813688C
:1025F00043F40073136023681A69636A1A70626A8D
:10260000531C6362238D013B2385638D9BB2013B89
:102610009BB2638523681B695370636A01336362ED
:10262000238D013B2385638D9BB2013B9BB2638568
:10263000238D002B7FD0032B54D8012BB4D0022B39
:10264000CAD000953346002225492046FFF741FABB
:10265000002840F083802268136823F480631360AD
:1026600023681A69636A1A70636A01336362238D8F
:10267000013B2385638D9BB2013B9BB26385009533
:102680003346002216492046FFF723FA002867D177
:102690002268136843F40073136023681A69636A3D
:1026A0001A70626A531C6362238D013B2385638D1C
:1026B0009BB2013B9BB2638523681B695370636ABD
:1026C00001336362238D013B2385638D9BB2013B04
:1026D0009BB26385ACE700BF020010000000FFFF63
:1026E000040001002A4631462046FFF749FC002835
:1026F00038D123681A69636A1A70626A531C63626C
:10270000238D013B2385638D9BB2013B9BB2638587
:102710002368596911F0040F8AD01B695370636AEA
:1027200001336362238D013B2385638D9BB2013BA3
:102730009BB263857CE7202384F83D30002384F836
:102740003E3084F83C30AEE60227ACE60227AAE62B
:102750000127A8E60127A6E60127A4E60127A2E6AD
:102760000127A0E601279EE6002800F0E08170B571
:1027700082B00446036813F0010F3BD09F4B9B6867
:1027800003F00C03042B2CD09C4B9B6803F00C0330
:10279000082B21D06368B3F5803F4FD0B3F5A02F4D
:1027A00052D0964B1A6822F480321A601A6822F4CA
:1027B00080221A606368002B50D000F07BFE054633
:1027C0008E4B1B6813F4003F14D100F073FE401BC6
:1027D0006428F5D90320B1E1884B5B6813F4800FBE
:1027E000D8D0864B1B6813F4003F03D06368002BDE
:1027F00000F09F81236813F0020F54D07F4B9B6839
:1028000013F00C0F3ED07D4B9B6803F00C03082B9C
:1028100033D0E368002B68D0794B01221A6000F0B6
:1028200049FE0546754B1B6813F0020F54D100F0AA
:1028300041FE401B0228F5D903207FE16F4A13684F
:1028400043F480331360B5E76C4B1A6842F480227E
:102850001A601A6842F480321A60ABE700F02AFE70
:102860000546664B1B6813F4003FC3D000F022FE00
:10287000401B6428F5D9032060E1604B5B6813F4CA
:10288000800FC6D15D4B1B6813F0020F03D0E368C5
:10289000012B40F05081594A136823F0F803216955
:1028A00043EAC1031360236813F0080F42D0636941
:1028B0006BB3534B0122C3F8802E00F0FBFD05469D
:1028C0004E4B5B6F13F0020F34D100F0F3FD401B51
:1028D0000228F5D9032031E1484A136823F0F803B0
:1028E000216943EAC1031360DDE7454B00221A600A
:1028F00000F0E0FD0546414B1B6813F0020FD2D0FB
:1029000000F0D8FD401B0228F5D9032016E13C4B0E
:102910000022C3F8802E00F0CDFD0546374B5B6FDB
:1029200013F0020F06D000F0C5FD401B0228F5D9B8
:10293000032003E1236813F0040F77D02F4B1B6CA7
:1029400013F0805F33D1002301932C4B1A6C42F0BB
:1029500080521A641B6C03F080530193019B012584
:10296000284B1B6813F4807F23D0A368012B34D03D
:10297000052B38D0214B1A6F22F001021A671A6F0B
:1029800022F004021A67A368002B3DD000F092FDEC
:1029900006461A4B1B6F13F0020F46D100F08AFD5A
:1029A000801B41F288339842F3D90320C6E000250A
:1029B000D6E7144A136843F48073136000F07AFD7D
:1029C0000646104B1B6813F4807FCED100F072FDD9
:1029D000801B0228F5D90320B0E0084A136F43F0AA
:1029E00001031367CFE7054B1A6F42F004021A6721
:1029F0001A6F42F001021A67C5E700BF00380240B3
:102A0000000047420070004000F054FD0646524B63
:102A10001B6F13F0020F08D000F04CFD801B41F239
:102A200088339842F3D9032088E0EDB9A369002BDD
:102A300000F08380484A926802F00C02082A51D0C4
:102A4000022B17D0454B00221A6600F033FD0446D6
:102A5000414B1B6813F0007F42D000F02BFD001BA0
:102A60000228F5D9032069E03B4A136C23F0805318
:102A70001364DBE7394B00221A6600F01BFD0546A4
:102A8000354B1B6813F0007F06D000F013FD401B90
:102A90000228F5D9032051E0E369226A1343626AF0
:102AA00043EA8213A26A5208013A43EA0243E26A05
:102AB00043EA0263284A5360284B01221A6600F059
:102AC000F9FC0446244B1B6813F0007F06D100F08C
:102AD000F1FC001B0228F5D903202FE000202DE097
:102AE00000202BE0012B2BD01B4B5B6803F48001F3
:102AF000E269914226D103F03F02216A8A4223D142
:102B0000616A47F6C0721A40B2EB811F1ED103F40E
:102B10004031A26A5208013AB1EB024F18D103F0DA
:102B20007063E26AB3EB026F14D1002006E001206B
:102B30007047012002E0012000E0002002B070BDDB
:102B40000120FBE70120F9E70120F7E70120F5E785
:102B50000120F3E70120F1E700380240000047427E
:102B600008B5314B9B6803F00C03042B57D0082B9E
:102B700057D12D4B5A6802F03F025B6813F4800F67
:102B80002AD0294B5968C1F3881C4FEA4C11B1EB8C
:102B90000C006EEB0E0E4FEA8E1343EA9063810138
:102BA000091A63EB0E03DB0043EA5173C90011EB12
:102BB0000C0C43F10003590200234FEA4C2041EA78
:102BC000DC51FDF74BFF184B5B68C3F30143013346
:102BD0005B00B0FBF3F025E0134B5968C1F3881C90
:102BE0004FEA4C11B1EB0C006EEB0E0E4FEA8E1358
:102BF00043EA90638101091A63EB0E03DB0043EAA9
:102C00005173C90011EB0C0C43F10003990200232E
:102C10004FEA8C2041EA9C51FDF720FFD3E703489F
:102C200000E0034808BD00BF0038024000127A00EF
:102C30000024F400002800F09B8070B50D46044687
:102C40004F4B1B6803F007038B4208D2CBB24C4AB0
:102C50001370136803F007038B4240F08B802368E6
:102C600013F0020F17D013F0040F04D0454A9368F5
:102C700043F4E0539360236813F0080F04D0414AF3
:102C8000936843F4604393603E4A936823F0F003F3
:102C9000A1680B439360236813F0010F32D063687F
:102CA000012B21D09A1E012A25D9364A126812F02A
:102CB000020F61D033498A6822F0030213438B600C
:102CC00000F0F8FB06462F4B9B6803F00C0362688C
:102CD000B3EB820F16D000F0EDFB801B41F288337E
:102CE0009842F0D9032042E0264A126812F4003FCD
:102CF000E0D101203BE0234A126812F0007FD9D1D5
:102D0000012034E01E4B1B6803F00703AB4207D9D8
:102D1000EAB21B4B1A701B6803F00703AB422DD1BC
:102D2000236813F0040F06D0164A936823F4E05387
:102D3000E1680B439360236813F0080F07D0114A32
:102D4000936823F46043216943EAC1039360FFF76A
:102D500007FF0C4B9B68C3F303130B4AD35CD840AB
:102D60000A4B18600A4B186800F058FB002070BD31
:102D7000012070470120FAE70120F8E70120F6E77B
:102D8000003C024000380240B457000848000020D0
:102D900050000020014B1868704700BF4800002019
:102DA00008B5FFF7F7FF044B9B68C3F38223034A80
:102DB000D35CD84008BD00BF00380240C4570008AB
:102DC00008B5FFF7E7FF044B9B68C3F34233034AA0
:102DD000D35CD84008BD00BF00380240C45700088B
:102DE00000230F2B00F2D28070B582B060E08568BE
:102DF0005E000324B44025EA0405CC68B4402C43AB
:102E00008460456825EA02054C68C4F300129A40C4
:102E10002A4342605AE0DC08083450F8246003F08A
:102E2000070295000F22AA4026EA020E0A69AA406C
:102E300042EA0E0240F824205CE0042200E0002276
:102E400002FA0EF22A430234514D45F82420514A29
:102E500014686FEA0C0224EA0C054E6816F4803FF1
:102E600001D04CEA04054B4C2560646802EA040575
:102E70004E6816F4003F01D04CEA0405454C6560ED
:102E8000A46802EA04054E6816F4801F01D04CEADB
:102E90000405404CA560E46822404D6815F4001F0D
:102EA00001D04CEA04023B4CE26001330F2B6BD89B
:102EB00001229A400C6804EA020C32EA0404F4D1BC
:102EC0004C6804F00304013C012C90D94A6802F0DC
:102ED0000302032A09D0C4685D000322AA4024EA41
:102EE00002048A68AA402243C2604A6802F00302D0
:102EF000022A90D004684FEA430E032202FA0EF22F
:102F000024EA02044A6802F0030202FA0EF22243A3
:102F100002604A6812F4403FC7D0002201921E4A64
:102F2000546C44F480445464526C02F48042019224
:102F3000019A9C08A51C164A52F8255003F003027A
:102F40004FEA820E0F2202FA0EF225EA0205134A18
:102F500090423FF474AF02F5806290420ED002F5C9
:102F6000806290420CD002F5806290420AD002F555
:102F7000806290423FF461AF072261E701225FE780
:102F800002225DE703225BE702B070BD704700BF1D
:102F900000380140003C014000380240000002407F
:102FA0000AB18161704709048161704708B5054B1A
:102FB0005B69034200D108BD024B5861FEF7BEF8C1
:102FC000F9E700BF003C014010B40368D9B21039E2
:102FD0000C4AA2FB014212090B4CA25CC2655F299C
:102FE00009D923F47F7323F0030304338365806DD1
:102FF0005DF8044B704723F47F7323F0030383656C
:10300000F5E700BFABAAAAAACC570008836A826979
:1030100092B9012B0AD0022B02D00BB100207047CD
:10302000C36A13F0807F28D100207047C36AB3F1D0
:10303000C07F24D000207047B2F5005F09D0022B7A
:1030400025D9032B25D1C36A13F0807F23D100201B
:103050007047032B03D8DFE803F01404140A0020A0
:103060007047C36A13F0807F0DD100207047C36A98
:10307000B3F1C07F09D000207047012070470120C4
:1030800070470120704701207047012070470120E0
:1030900070470020704701207047000070B504465B
:1030A00000F008FA002C5BD00546022384F8353086
:1030B000002384F834302268136823F0010313607E
:1030C00023681A6812F0010F0AD000F0F3F9431BCD
:1030D000052BF5D920236365032084F8350070BDE6
:1030E0001A68204810406168A2680A43E1680A43F0
:1030F00021690A4361690A43A1690A43E1690A43F4
:10310000216A0A430243616A04291ED01A602668B4
:10311000756925F00705636A1D43042B07D1A36A6F
:103120001D43E36A1BB12046FFF770FF90B975613C
:103130002046FFF749FFE26D3F2393408360002064
:103140006065012384F83530C9E7E16A206B0143EB
:103150000A43DBE740236365012084F83500BEE7BE
:103160000120BCE73F8010F0F0B583B00446002397
:103170000193724B1D68724BA3FB0535AD0A876D39
:103180003E68C26D08239340334210D003681A682A
:1031900012F0040F0BD01A6822F004021A60C26DFC
:1031A00008239340BB60436D43F001034365E26D28
:1031B00001239340334209D02268526912F0800FF4
:1031C00004D0BB60636D43F002036365E26D0423CA
:1031D0009340334209D02268126812F0020F04D0E3
:1031E000BB60636D43F004036365E26D102393409D
:1031F000334224D02268126812F0080F1FD0BB603F
:1032000023681A6812F4802F0DD01B6813F4002F66
:1032100004D1236C9BB12046984710E0A36C73B196
:10322000204698470BE01A6812F4807F03D11A6891
:1032300022F008021A60236C0BB120469847E26D19
:1032400020239340334255D02268126812F0100FA9
:1032500050D0BB6094F83530DBB2052B0ED023681C
:103260001A6812F4802F33D01B6813F4002F2AD170
:10327000636C002B3ED0204698473BE022681368E1
:1032800023F0160313602268536923F0800353610F
:10329000236CA3B12268136823F008031360E26D66
:1032A0003F239340BB60012384F83530002384F82A
:1032B0003430236D002B3FD0204698473CE0A36C70
:1032C000002BE7D1EBE7E36BA3B12046984711E071
:1032D0001A6812F4807F09D11A6822F010021A606D
:1032E000012384F83530002384F83430E36B0BB1CC
:1032F00020469847636DFBB1636D13F0010F17D043
:10330000052384F835302268136823F00103136025
:10331000019B01330193AB4204D823681B6813F06F
:10332000010FF5D1012384F83530002384F83430BF
:10333000E36C0BB12046984703B0F0BD4800002075
:10334000B5814E1B074AD36823F4E0631B041B0CB2
:10335000000200F4E060034343F0BF6343F4003332
:10336000D360704700ED00E000B5194BDB68C3F394
:103370000223C3F1070CBCF1040F28BF4FF0040C6B
:1033800003F1040EBEF1060F18D9033B4FF0FF3EC8
:103390000EFA0CFC21EA0C0199400EFA03F322EA22
:1033A0000303194300280BDB0901C9B200F1604097
:1033B00000F5614080F800135DF804FB0023E5E7A9
:1033C00000F00F000901C9B2024B1954F4E700BF25
:1033D00000ED00E014ED00E0002807DB00F01F0224
:1033E000400901239340024A42F82030704700BF51
:1033F00000E100E00138B0F1807F0BD24FF0E02314
:103400005861054AF02182F82310002098610722B4
:103410001A6170470120704700ED00E010B50446C6
:103420000E4B18784FF47A73B3FBF0F30C4A106824
:10343000B0FBF3F0FFF7DEFF68B90F2C01D90120D4
:103440000AE0002221464FF0FF30FFF78DFF054BC9
:103450001C60002000E0012010BD00BF4C000020D7
:10346000480000205000002008B50B4B1A6842F4B9
:1034700000721A601A6842F480621A601A6842F494
:1034800080721A600320FFF75DFF0020FFF7C6FF80
:10349000FEF7FEF9002008BD003C0240034A116817
:1034A000034B1B780B441360704700BFE002002001
:1034B0004C000020014B1868704700BFE00200205C
:1034C00038B50446FFF7F6FF0546B4F1FF3F02D0DA
:1034D000044B1B781C44FFF7EDFF401BA042FAD3BE
:1034E00038BD00BF4C00002038B50446026813699F
:1034F00023F44053C1680B4313618368026913438B
:1035000042691343C2691A430168CB6823F4164326
:1035100023F00C031343CB600268536923F4407318
:1035200081690B4353610368314A934206D002F527
:103530008062934202D0FFF733FC01E0FFF740FCCA
:10354000E369B3F5004F29D00021031849411B1846
:1035500041F10001C90041EA5371DB0018186368AA
:103560004FEA83024FEA937341F10001FDF776FAC7
:10357000204DA5FB00325109642303FB11031B01FD
:103580003233A5FB03235B0903F0F00202EB0112C7
:1035900003F00F03216813448B6038BD0023021829
:1035A00043EB0301121841F10001C90041EA5271D5
:1035B000D200101841F10001626892185B41FDF7DA
:1035C0004DFA0C4DA5FB00325109642303FB110396
:1035D000DB003233A5FB03235B095A0002F4F872C7
:1035E00002EB011203F00703216813448B60D4E758
:1035F000001001401F85EB5158B310B5044690F8F8
:103600003D300BB3242384F83D302268D36823F483
:103610000053D3602046FFF767FF2268136923F445
:10362000904313612268536923F02A03536122688F
:10363000D36843F40053D36000202064202384F82F
:103640003D3084F83E3010BD80F83C30FEF7C6F9BE
:10365000D8E70120704700002DE9F04782B0054609
:10366000884617461E46FFF725FF0A9B1B1A03EBE9
:103670000609FFF71FFF82462B4B1B68C3F3CB33B2
:1036800009FB03F301932B689C6838EA04030CBF21
:103690004FF0010C4FF0000CBC4540D0B6F1FF3F9D
:1036A000F1D0FFF707FFA0EB0A0048450AD2B9F1B5
:1036B000000F07D0019A02B14A46019B013B0193DA
:1036C0009146E0E72A68536823F0E00353606B6893
:1036D000B3F5827F0BD0AB6AB3F5005F14D0012342
:1036E00085F85130002385F85030032018E0AB688E
:1036F000B3F5004F02D0B3F5806FECD12A681368A0
:1037000023F040031360E6E72A68136823F40053AC
:1037100013602A68136843F400531360DFE7002046
:1037200002B0BDE8F08700BF4800002010B584B0AB
:103730000446164B1868164BA3FB0030400D4FF49F
:103740007A7303FB00F003906368B3F5827F0BD0BC
:10375000039BBBB1039B013B039323689B6813F05E
:10376000800FF5D100200EE000920B460022802150
:103770002046FFF771FF30B1636D43F020036365AE
:10378000032000E0002004B010BD00BF480000206E
:10379000819F5E1600285AD010B50446436A33B99B
:1037A0004368B3F5827F05D00023C36102E00023A4
:1037B000036143610023A36294F85130002B40D091
:1037C000022384F851302268136823F04003136009
:1037D000636803F48273A26802F404421343E2684C
:1037E00002F400621343226902F002021343626989
:1037F00002F001021343A26902F400721343E2696A
:1038000002F038021343226A02F080021343A26AD4
:1038100002F40052216813430B60638B03F004032E
:10382000626A02F01002216813434B602268D36978
:1038300023F40063D36100206065012384F85130D4
:1038400010BD84F850302046FEF77AF8B8E7012022
:1038500070472DE9F04383B01D4690F85030012B9E
:1038600000F0D180044688469146012380F850300C
:10387000FFF720FE074694F85160F6B2012E40F0A3
:10388000AF80B8F1000F00F0AC80B9F1000F00F08C
:10389000A880032384F8513000236365C4F8308086
:1038A000A4F83490A4F83690A363A387E3876364F5
:1038B0002364A368B3F5004F1ED023681A6812F082
:1038C000400F03D11A6842F040021A60E368B3F572
:1038D000006F1CD0636813B1B9F1010F52D1226B94
:1038E000236812781A73236B01332363E38E9BB230
:1038F000013B9BB2E38645E02268136823F0400356
:1039000013602268136843F480431360D5E763684B
:1039100013B1B9F1010F16D1226B23681288DA6056
:10392000236B02332363E38E9BB2013B9BB2E3869E
:1039300009E0FFF7BFFDC01BA84202D3B5F1FF3F6E
:1039400059D1002D59D0E38E9BB2002B33D0236880
:103950009A6812F0020FECD0226B1288DA60236BA7
:1039600002332363E38E9BB2013B9BB2E386EAE71B
:10397000FFF7A0FDC01BA84202D3B5F1FF3F3ED127
:10398000002D3ED0E38E9BB2ABB123689A6812F053
:10399000020FEDD0226B12781A73236B013323636D
:1039A000B4F836C01FFA8CFC0CF1FF3C1FFA8CFCFB
:1039B000A4F836C0E6E73A4629462046FFF7B6FEA9
:1039C00008B120236365A36833B901932368DA68DB
:1039D00001929B680193019B636D13B9002600E07F
:1039E0000226012384F85130002384F850303046F9
:1039F00003B0BDE8F0830326F3E70326F1E70326CF
:103A0000EFE70326EDE70226F1E72DE9F04383B067
:103A10001F460A9D90F85030012B00F0108104469B
:103A200088469146012380F85030FFF743FD064653
:103A300094F85130DBB26268012B0AD0B2F5827F74
:103A400040F0E380A268002A40F0E980042B40F0B7
:103A5000E880B8F1000F00F0E680B9F1000F00F047
:103A6000E480002F00F0E38094F85130DBB2042BA7
:103A700002D0052384F8513000236365C4F83890E0
:103A8000E787A787C4F83080E786A7862364636446
:103A900023681A6812F0400F03D11A6842F04002FE
:103AA0001A60E368B3F5006F11D063680BB1012FA2
:103AB0000BD1226B236812781A73236B01332363B3
:103AC000E38E9BB2013B9BB2E38601276BE0636808
:103AD0000BB1012F0BD1226B23681288DA60236BA4
:103AE00002332363E38E9BB2013B9BB2E386012743
:103AF0001CE023689A6812F0010F0ED0E28F92B298
:103B00005AB1DA68A36B1A80A36B0233A363E38F05
:103B10009BB2013B9BB2E3870127FFF7CBFC801BE5
:103B2000A84203D3B5F1FF3F40F08380E38E9BB200
:103B30001BB9E38F9BB2002B53D023689A6812F015
:103B4000020FD6D0E28E92B2002AD2D0002FD0D06F
:103B5000226B1288DA60236B02332363E38E9BB2FD
:103B6000013B9BB2E3860027C3E723689A6812F003
:103B7000010F0ED0E28F92B25AB1DA68A36B1A70BD
:103B8000A36B0133A363E38F9BB2013B9BB2E3873B
:103B90000127FFF78FFC831BAB4202D3B5F1FF3F38
:103BA00049D1002D49D0E38E9BB213B9E38F9BB26C
:103BB000BBB123689A6812F0020FD6D0E28E92B29F
:103BC000002AD2D0002FD0D0226B12781A73236B28
:103BD00001332363E38E9BB2013B9BB2E386002754
:103BE000C3E7324629462046FFF7A0FD48B9A3683F
:103BF00063B901932368DA6801929B680193019B82
:103C000004E020236365012000E00220012384F802
:103C10005130002384F8503003B0BDE8F083022017
:103C2000F4E70220F2E70120F0E70120EEE70120AF
:103C3000ECE70320EAE70320E8E70320E6E70220B9
:103C4000EAE7000008B5044B03EB800252685268B3
:103C50000344187A904708BD0C05002008B5084BAE
:103C60001B5C53B9064B01221A5403EB80025268C5
:103C700012681844007A904708BD0020FCE700BF96
:103C80000C05002038B5044C04EB80056D68AD6868
:103C90000444207AA84738BD0C05002038B5044CF0
:103CA00004EB80056D68ED680444207AA84738BDB0
:103CB0000C05002010B5044B03EB800464682469F4
:103CC0000344187AA04710BD0C0500204278007804
:103CD00040EA02207047C278837843EA02224378A0
:103CE00043EA0223007840EA03207047002303E000
:103CF0005DF8044B70470133012B11D81A010949B3
:103D00008A588242F7D110B41A0100248C50013332
:103D1000012BEDD81A0103498A588242F7D1F3E703
:103D2000704700BFE80200200146006838B1024633
:103D300013781F2B06D93A2B04D00132F8E74FF045
:103D4000FF3070473A2B01D00020704710B4034673
:103D500013F8010B3038092808D89A4202D04FF0E6
:103D6000FF3005E038B901320A6001E04FF0FF3062
:103D70005DF8044B70474FF0FF30F9E72DE9F04153
:103D8000C57815B92846BDE8F0810446476B00F1B7
:103D9000380801233A4641464078FFF77FFF054641
:103DA000A0B90023E370A36AFB1A226A9342E9D206
:103DB000A67808E0236A1F4401233A46414660780A
:103DC000FFF76CFF013E012EF4D8DBE70125D9E7B0
:103DD00070B5436B8B4202D10026304670BD04465D
:103DE0000D46FFF7CBFF06460028F6D101232A46F1
:103DF00004F138016078FFF745FF10B101264FF05C
:103E0000FF356563E9E7000038B504460023C37059
:103E10004FF0FF334363FFF7DBFF30BB054604F28F
:103E20003620FFF753FF4AF6552398421FD194F8E6
:103E30003830E92B07D0A36B03F0FF130D4A9342F0
:103E400001D0022514E004F16E00FFF744FF20F0DA
:103E50007F40094B98420BD004F18A00FFF73BFFEB
:103E6000064B984204D0022502E0042500E0032519
:103E7000284638BDEB00900046415400464154337B
:103E80002DE9F04F87B00D46164600230B60FFF773
:103E90004BFF071EC0F26881BE4B53F82740002C31
:103EA00000F067812C6006F0FE06237873B160781D
:103EB000FFF7C8FE10F0010508D1002E00F0558173
:103EC00010F0040F00F051810A254EE10023237009
:103ED000F8B26070FFF7C2FE10F0010F40F04B81A6
:103EE0001EB110F0040F40F0488104F10C020221D1
:103EF0006078FFF7DFFE0546002840F04081A28988
:103F0000A2F500739BB2B3F5606F00F23A81531EC5
:103F10001A4201D0012528E100212046FFF774FF55
:103F2000022800F0C3800026042800F02C8101281C
:103F300000F22B8104F14300FFF7C8FEB4F80C80B7
:103F4000404540F0248104F14E00FFF7BFFE0746D4
:103F500020B904F15C00FFF7BEFE0746276294F823
:103F60004820A270531EDBB2012B00F21D8107FB1B
:103F700002F3009394F84590A4F80A90B9F1000F69
:103F800000F0148109F1FF3319EA030F40F01081AA
:103F900004F14900FFF79AFE824620814FEA581B40
:103FA000B0FBFBF30BFB13039BB2002B40F0028131
:103FB00004F14B00FFF78AFE019020B904F158008C
:103FC000FFF789FE019004F14600FFF77FFE0146EE
:103FD000002800F0F180009BC318BAFBFBFB5B4498
:103FE000019A9A42C0F0EA80D21AB2FBF9F04A452F
:103FF000C0F0E6804FF6F57290426FD94FF0030B98
:1040000040F6F572904201D84FF0010B00F1020921
:10401000C4F81C9066628A19A26233442363BBF120
:10402000030F5ED0BAF1000F00F0D080009B1A445D
:10403000E262BBF1020F65D009EB490209F001030E
:1040400003EB52034344013BB3FBF8F8B84500F2DD
:10405000BF804FF0FF33A361636180232371BBF105
:10406000030F52D084F800B04B4A138801339BB23F
:104070001380E380494B23612046FFF737FE74E04D
:10408000002006AB03EB860343F8100C0136032E29
:104090000ED804F13800330103F5DF7318440379B7
:1040A000002BEDD00830FFF716FEEAE70026EEE71A
:1040B00000270AE031462046FFF7A6FE01287FF6DA
:1040C00033AF0137032F3FF62FAF06AB03EB870368
:1040D00053F8106C002EEDD10320F2E74FF0020BE5
:1040E0008EE704F16200FFF7F1FD00286AD1BAF112
:1040F000000F69D104F16400FFF7EDFDE0624FEAC3
:1041000089039FE74FEA49039CE704F16800FFF742
:10411000DDFD0128A6D1711C2046FFF759FE0028BD
:10412000A0D10023237104F23620FFF7CFFD4AF619
:104130005523984296D104F13800FFF7CCFD184B77
:1041400098428FD104F50770FFF7C5FD154B9842D3
:1041500088D104F50870FFF7BEFDA06104F5097071
:10416000FFF7B9FD60617DE70B25284607B0BDE884
:10417000F08F0C25F9E70325F7E70A25F5E7012578
:10418000F3E70125F1E70125EFE70D25EDE70D2523
:10419000EBE700BFE4020020080300200C0300202E
:1041A00052526141727241610D25DEE70D25DCE757
:1041B0000D25DAE70D25D8E70D25D6E70D25D4E73F
:1041C0000D25D2E70D25D0E70D25CEE70D25CCE74F
:1041D0000D25CAE7F8B5056801296CD90C46EB69CD
:1041E0008B426AD92B78022B37D0032B4BD0012B73
:1041F00001D0012060E001EB5106A96AAB89B6FB52
:10420000F3F319442846FFF7E3FD10B14FF0FF30F8
:1042100052E0771CAB89B6FBF3F203FB12662E4427
:1042200096F83860A96AB7FBF3F319442846FFF7FC
:10423000CFFD002843D1AB89B7FBF3F203FB127724
:104240003D4495F8380046EA002014F0010F01D0F3
:10425000000931E0C0F30B002EE0A96AAB895B08CE
:10426000B4FBF3F319442846FFF7B2FD50BB05F148
:1042700038006400AB89B4FBF3F203FB1244204422
:10428000FFF724FD18E0A96AAB899B08B4FBF3F3A0
:1042900019442846FFF79CFDB8B905F13800A40081
:1042A000AB89B4FBF3F203FB12442044FFF713FD88
:1042B00020F0704000E00120F8BD0120FCE74FF045
:1042C000FF30F9E74FF0FF30F6E74FF0FF30F3E74C
:1042D00070B584B0019000911646039103A8FFF7D2
:1042E00023FD041E1CDB104B53F8245025B1284637
:1042F000FFF7FCFC00232B70019B0BB100221A700E
:10430000019B094A42F8243063B1012E02D00020FB
:1043100004B070BD002201A96846FFF7B1FDF7E7C0
:104320000B20F5E70020F3E7E40200202DE9F04F31
:1043300089B0019088461446002207A901A8FFF71A
:104340009FFD8146002859D1079B23609A69DD694A
:10435000A91E8A4202D8C8F800204FE01E78012E1C
:1043600005D0D3F828A00024264627462FE0029344
:104370000224002704E00134079BDB69A34235D9FE
:10438000214602A8FFF726FFB0F1FF3F2DD00128FC
:1043900038D00028EFD10137EDE70AF1010B514683
:1043A0000798FFF715FD814600BB079B03F1380412
:1043B0009E89DA460DE02046FFF788FC00B90137F8
:1043C0000234023E01E00434043E013D0ED0002ED2
:1043D000E3D0079B1B78022BEDD02046FFF77BFC38
:1043E00030F07043EFD10137EDE7B146C8F8007007
:1043F000079B9F611A7942F001021A71484609B081
:10440000BDE8F08F4FF00209F0E70000134B5B7A34
:1044100013BB10B5044603F0FF00104B93F809C01E
:104420005FFA8CFC4FF0000E03F80CE093F809C023
:1044300003EB8C0CCCF804405C7A1C4422725A7A50
:10444000541CE4B25C7230320A703A234B702F2352
:104450008B7081F803E010BD012070470C0500202F
:1044600008B50022FFF7D2FF08BD000008B50349D8
:104470000348FFF7F5FF034B187008BD180500202F
:10448000540000201C05002008B500F055F908BDB7
:1044900008B500F013FA08BD08B500F019FA08BD18
:1044A00008B500F061FA08BD08B500F0BFFA08BD14
:1044B000014B00221A7070471E050020014B18782E
:1044C000704700BF1E05002008B50A46054B1B6853
:1044D0009B6813F0020FF9D0642301460148FFF7EF
:1044E000B8F908BDA001002000B583B08DF8070021
:1044F000074B1B689B6813F0020FF9D0642301225D
:104500000DF107010248FFF7A4F903B05DF804FBC1
:10451000A001002008B500224FF400510348FEF727
:104520003FFD0120FEF7CCFF08BD00BF00040240A4
:1045300008B501224FF400510348FEF731FD012078
:10454000FEF7BEFF08BD00BF0004024000B585B005
:10455000FF238DF80F300A4B1B689B6813F0020F86
:10456000F9D06423009301230DF10E020DF10F0128
:104570000348FFF74AFA9DF80E0005B05DF804FB0A
:10458000A001002010B582B0FFF7D2FF002403E0A5
:10459000FF20FFF7A9FF0134092CF9DDFFF7BAFF6F
:1045A00040238DF8003000238DF801308DF8023063
:1045B0008DF803308DF8043095238DF805300621F1
:1045C0006846FFF781FF41F6FF74FFF7BFFF012840
:1045D00002D00CB1013CF8E7FFF7AAFFFF20FFF77C
:1045E00083FF024B01221A7002B010BD1E0500208D
:1045F00008B5074B4FF4FA721A80FFF7A7FFFF28A0
:1046000004D0034B1B889BB2002BF6D108BD00BF22
:10461000DC02002038B505460C46FFF7E9FFFF280D
:1046200001D0FF2038BD2846FFF75EFF200EFFF7C0
:104630005BFFC4F30740FFF757FFC4F30720FFF702
:1046400053FFE0B2FFF750FF402D13D0482D0FD09D
:104650000120FFF749FF4C2D0ED00A24FFF776FF0B
:1046600010F0800FDED0631E13F0FF04F6D1D9E7FF
:104670008720EEE79520ECE7FFF768FFEDE710B540
:104680000446FFF763FF207010BD000038B50446F4
:104690000D460F4BC8221A80FFF758FFFF2804D1A0
:1046A0000B4B1B889BB2002BF6D1FE280DD1204668
:1046B0000134FFF7E4FF2B46013D002BF7D1FFF754
:1046C00045FFFFF743FF012038BD0020FCE700BF96
:1046D000DB02002070B506460D46FFF789FFFF2874
:1046E00001D0002070BD00242846FFF7FDFEFD2DFF
:1046F00005D104F01F04052C1CD00020F2E74FF474
:1047000000713046FFF7E0FEFFF720FFFFF71EFFC6
:10471000254601E00135EDB2402D06D8FFF716FF22
:10472000044600F01F03052BF4D1FFF70FFF00280C
:10473000FBD0DEE70120D5E7002840F0B68030B599
:1047400083B05B4B1B7813F0020404D0584B1878ED
:10475000C0B203B030BDFFF715FFFFF7DBFE00214D
:104760004020FFF757FF0546012811D0514B1C7020
:10477000FFF7DEFEFFF7EAFE002C00F093804C4AC4
:10478000137803F0FE031370494B1878C0B2E0E7CA
:10479000494B4FF47A721A804FF4D5714820FFF7D5
:1047A00039FF012845D1254608E0FFF7CFFE05F186
:1047B00008036B4403F8040C0135EDB2032DF4D962
:1047C0009DF80630012BD1D19DF80730AA2BCDD111
:1047D00003E0394B1B889BB263B100217720FFF7C0
:1047E00019FF0128F5D84FF080416920FFF712FF2B
:1047F0000028EED1304B1B889BB2002BB6D0002195
:104800007A20FFF707FF05460028AFD1032D09D80E
:10481000FFF79CFE05F108036B4403F8040C013517
:10482000EDB2F3E79DF8043013F0400F38D00C24BC
:104830009CE700217720FFF7EDFE012811D8002129
:104840006920FFF7E7FE01280BD8022509E00021C7
:104850007720FFF7DFFE01281BD9174B1B889BB27F
:104860003BB1022DF3D000214120FFF7D3FE0028F9
:10487000F3D1114B1B889BB2002B3FF477AF4FF461
:1048800000715020FFF7C6FE00287FF46FAF2C4662
:104890006CE700216920FFF7BDFE0028DDD1E8E7C5
:1048A000042463E7FFF704FE6EE70120704700BFB2
:1048B000680000201D050020DB02002018B9034B12
:1048C0001878C0B270470120704700BF6800002010
:1048D00000283ED170B50D4616461C46002B3AD036
:1048E0001F4B1B7813F0010F37D11E4B1B7813F0B1
:1048F000040F00D15602FFF70DFE012C1AD03146ED
:104900005220FFF787FE68B94FF400712846FFF781
:10491000BDFE18B105F50075013CF5D100214C2014
:10492000FFF778FEFFF704FEFFF710FE201E18BF0A
:10493000012070BD31465120FFF76CFE0028F1D1F7
:104940004FF400712846FFF7A1FE0028EAD00024AA
:10495000E8E7042070470420EBE70320E9E700BF05
:10496000680000201D050020002852D170B50D46BA
:1049700016461C46002B4ED02A4B1B7813F0010F15
:104980004BD1284B1B7813F0040F48D1264B1B78D2
:1049900013F0040F00D15602FFF7BCFD012C1FD00D
:1049A000214B1B7813F0020F28D131465920FFF715
:1049B00031FE68B9FC212846FFF78CFE18B105F5D9
:1049C0000075013CF6D1FD210020FFF783FEF0B118
:1049D000FFF7AEFDFFF7BAFD201E18BF012070BD26
:1049E00031465820FFF716FE0028F1D1FE21284657
:1049F000FFF770FE0028EBD00024E9E700217720C4
:104A0000FFF708FE21465720FFF704FECDE70124FB
:104A1000DEE7042070470420E1E70320DFE70220FF
:104A2000DDE700BF680000201D050020F0B585B05F
:104A3000002840F0B2800D4616460746052913D0DF
:104A4000584B1C7814F0010440F0A980FFF762FD78
:104A50000D2D00F29680DFE805F05E1B5A949494C9
:104A600094949494946473821478012C07D0022C4B
:104A700009D00CB1042489E0FFF71AFD86E0FFF7A6
:104A800081FD3C4682E0FFF719FD70703C467DE0F9
:104A900000214920FFF7BEFD044608B12C4671E015
:104AA00010216846FFF7F2FD002872D09DF8003013
:104AB0009B09012B1FD09DF8052002F00F029DF8E5
:104AC0000A3002EBD3129DF809305B0003F00603B5
:104AD0001A449DF808309DF807109B0903EB8103E9
:104AE0009DF80610890201F440610B440133073A36
:104AF0009340336046E09DF809309DF8082003EBB1
:104B000002239BB201339BB29B0233603AE04FF425
:104B10000073338036E0FFF76BFDFF283BD00124A4
:104B200030E000214920FFF775FD044608B101245B
:104B300028E010213046FFF7A9FD18BB012421E031
:104B400000214A20FFF766FD044608B1012419E060
:104B500010213046FFF79AFDA0B9012412E0002190
:104B60007A20FFF757FD044638B104240AE0FFF726
:104B7000EDFC06F8010B0134E4B2032CF7D9042450
:104B800000E00424FFF7D4FCFFF7E0FC204605B06A
:104B9000F0BD2C46F6E72C46F4E70424F6E70324A0
:104BA000F4E700BF6800002010B504460022144955
:104BB000FFF78EFB04F5005484F8680090B1802064
:104BC000FCF7E2FC0F48FCF76CFDC020FCF7DCFCB6
:104BD0000D48FCF766FD40F2DC50FEF771FCFCF777
:104BE00053FD10BD8020FCF7CFFC0848FCF759FDB1
:104BF000C020FCF7C9FC0648FCF753FDEBE700BFFB
:104C000070570008D4570008E8570008F05700080C
:104C100000580008002307E0C11842F269024FF073
:104C2000000C01F802C00133B3F5806FF4DB70476C
:104C300070B5044600F51152343200F51151383187
:104C40002D48FFF773FB04F50055D5F87434D86987
:104C500002385B8903FB00F0FBF754FC0022274B72
:104C6000FBF7CAFCFBF7DAFEC5F87C048020FCF7F2
:104C70008BFC2348FCF715FD04F501562936D5F8C1
:104C80007C242049304600F0A9F8C020FCF77CFCC9
:104C900040F6B830FEF714FCFCF7F6FC2046FFF7B0
:104CA000B9FFD5F87834D5F87424508903FB00F0A7
:104CB000FBF728FC0022114BFBF79EFCFBF7AEFE36
:104CC000C5F880048020FCF75FFC0F48FCF7E9FC86
:104CD000D5F880240D49304600F080F8C020FCF75C
:104CE00053FC40F6B830FEF7EBFBFCF7CDFC20465A
:104CF000FFF790FF70BD00BF705700080000E03F55
:104D00001058000824580008285800083C5800088B
:104D100008B510B1042804D008BD0448FFF744FFCB
:104D2000FAE70248FFF784FFF6E700BF20050020FE
:104D3000DFF834D00D480E490E4A002302E0D45863
:104D4000C4500433C4188C42F9D30B4A0B4C0023D3
:104D500001E013600432A242FBD3FCF797FE00F09F
:104D600011F8FCF73BF9704700000220000000201A
:104D7000D000002084580008D0000020B82900206E
:104D8000FEE7000070B50D4D0D4C641BA41000260D
:104D9000A64209D10B4D0C4C00F09CFC641BA410E6
:104DA0000026A64205D170BD55F8043B9847013650
:104DB000EEE755F8043B98470136F2E77C580008C7
:104DC0007C5800087C5800088058000802440346BC
:104DD000934200D1704703F8011BF9E70EB400B508
:104DE0009CB01DAB029006906FF0004109480791FE
:104DF0000491094953F8042B05910068019302A915
:104E000000F068F8029B00221A701CB05DF804EBF9
:104E100003B070476C0000200802FFFF2DE9F04747
:104E20008E689E4282460C4690461F4638D88A8934
:104E300012F4906F32D025680969A5EB0109656904
:104E400005EB450505EBD57501334B446D109D42CF
:104E500038BF1D46530531D5294600F063FB064691
:104E600050B90C23CAF80030A38943F04003A38152
:104E70004FF0FF30BDE8F08721694A4600F0BEFAE6
:104E8000A38923F4906343F08003A38126616561C5
:104E90004E44A5EB09052660A5603E46BE4200D9FA
:104EA0003E4620683246414600F0B6FAA3689B1B96
:104EB000A3602368334423600020DBE72A4600F028
:104EC000A5FB06460028E1D12169504600F0BEFA54
:104ED000C7E700002DE9F04F98468B891B069DB06F
:104EE00007460D4614460ED50B6963B9402100F004
:104EF00019FB2860286120B90C233B604FF0FF307C
:104F0000D1E040236B610023099320238DF82930E1
:104F1000CDF80C803023DFF8A8818DF82A304FF0CF
:104F2000010923469A4613F8012B0AB1252AF9D123
:104F3000BAEB040B0BD05B46224629463846FFF7F6
:104F40006DFF013000F0AA80099A5A4409929AF83C
:104F50000030002B00F0A28000234FF0FF32CDE99B
:104F600005230AF1010A049307938DF853301A932D
:104F70005446052214F8011B5148FBF731F9049AF5
:104F8000D8B9D00644BF20238DF85330110744BF51
:104F90002B238DF853309AF800302A2B15D0079A1E
:104FA000544600204FF00A0C214611F8013B303BDB
:104FB000092B4ED9B0B1079214E0A0EB080309FA0F
:104FC00003F313430493A246D2E7039B191D1B6806
:104FD0000391002BBBBF5B4242F002020793079391
:104FE000B8BF049223782E2B0CD163782A2B35D1AD
:104FF000039B1A1D1B680392002BB8BF4FF0FF33B1
:1050000002340593DFF8C8A0217803225046FBF74D
:10501000E7F840B14023A0EB0A0003FA00F0049B3C
:1050200003430134049314F8011B26488DF828101B
:105030000622FBF7D5F8002838D0234B1BBB039B77
:10504000073323F0070308330393099B3344099381
:1050500067E70CFB02320C460120A5E70023013470
:10506000059319464FF00A0C204610F8012B303AF0
:10507000092A03D9002BC5D00591C3E70CFB0121F8
:1050800004460123F0E703AB00932A460F4B04A923
:105090003846AFF30080421C0646D6D1AB895B068A
:1050A0003FF52CAF09981DB0BDE8F08F03AB00931E
:1050B0002A46064B04A9384600F07AF8EBE700BF11
:1050C000405800084A580008000000001D4E000823
:1050D000465800082DE9F047164699468A680B693C
:1050E000DDF820809342B8BF1346336091F8432027
:1050F00007460C460AB1013333602368990642BF64
:10510000336802333360256815F0060506D104F1D3
:10511000190AE36832689B1AAB4226DC94F84320F4
:10512000131E226818BF012392062BD404F14302F8
:1051300049463846C04701301ED02368E5683268CA
:1051400003F00603042B08BFAD1AA36822690CBF45
:1051500025EAE57500259342C4BF9B1AED18002689
:105160001A34B5421AD1002008E0012352464946BC
:105170003846C047013003D14FF0FF30BDE8F0871B
:105180000135C6E7E1185A1C302081F8430022445B
:1051900094F8451082F843100233C7E701232246F2
:1051A00049463846C0470130E6D00136D9E700000D
:1051B0002DE9FF470F7E0C9D782F914680460C46C7
:1051C0009A4601F1430207D8622F0AD8002F00F057
:1051D000D880582F00F0A38004F1420584F8427073
:1051E0003AE0A7F16303152BF6D801A151F823F09B
:1051F000495200085D520008D9510008D9510008F1
:10520000D9510008D95100085D520008D951000851
:10521000D9510008D9510008D95100086953000834
:105220008D5200084B530008D9510008D95100088D
:105230008B530008D95100088D520008D95100083D
:10524000D9510008535300082B681A1D1B682A60A7
:1052500004F1420584F842300123A3E02068296864
:10526000060601F104030AD50E682B60002E03DA4E
:105270002D23764284F843305E480A2319E00E68F5
:105280002B6010F0400F18BF36B2EFE72B68206894
:10529000191D2960010601D51E6802E04606FBD5EE
:1052A0001E8854486F2F0CBF08230A23002184F85E
:1052B00043106568A560002DA2BF216821F004019C
:1052C00021600EB9002D4DD01546B6FBF3F103FB5E
:1052D0001167C75D05F8017D3746BB420E46F4D91C
:1052E000082B0BD12368DE0708D523696168994232
:1052F000DEBF302305F8013C05F1FF35521B22616A
:10530000CDF800A04B4603AA21464046FFF7E2FE37
:1053100001304CD14FF0FF3004B0BDE8F087354884
:1053200081F845702968236851F8046B29601D06CF
:1053300014D5DF0744BF43F0200323601EB9236860
:1053400023F0200323601023B0E7236843F02003F9
:1053500023607823284884F84530E3E7590648BF9E
:10536000B6B2E6E71546BBE72B6826686169181DEB
:10537000286035061B6801D5196002E07006FBD570
:105380001980002323611546BAE72B681A1D2A608D
:105390001D68626800212846FAF722FF08B1401B09
:1053A000606063682361002384F84330A8E72369C1
:1053B0002A4649464046D0470130ABD023689B0778
:1053C00013D4E068039B9842B8BF1846A4E70123B2
:1053D000324649464046D04701309BD00135E3680C
:1053E00003995B1AAB42F2DCEBE7002504F11906E6
:1053F000F5E700BF51580008625800080A4491427E
:1054000000F1FF3300D1704710B511F8014B03F8DC
:10541000014F9142F9D110BD884210B501EB020451
:1054200002D98442234607D8431EA14208D011F86E
:10543000012B03F8012FF8E7024401468A4200D10C
:1054400010BD13F8014D02F8014DF7E737B50029FB
:1054500044D051F8043C0190002BA1F10404B8BFE2
:10546000E41800F013F91E4A0198136833B9636019
:10547000146003B0BDE8304000F00EB9A34208D973
:10548000256861198B4201BF19685B684919216061
:10549000EDE71A465B680BB1A342FAD911685518BB
:1054A000A5420BD1246821445418A3421160E0D1D5
:1054B0001C685B68536021441160DAE702D90C2351
:1054C0000360D6E7256861198B4204BF19685B68E1
:1054D000636004BF491921605460CAE703B030BD5E
:1054E000A429002070B50E4E0C463168054611B94E
:1054F00000F0BCF830602146284600F0B7F8431CA5
:105500000AD0C41C24F00304A04207D0211A284664
:1055100000F0ACF8013001D14FF0FF34204670BDEF
:10552000A82900202DE9F041CD1C25F00305083500
:105530000C2D38BF0C25002D074601DBA94205D9EB
:105540000C233B6000263046BDE8F0812E4E00F073
:105550009DF833681C4634BB29463846FFF7C2FF26
:10556000431C04464DD134682646002E40D12368A2
:105570003146384604EB030800F078F880453AD10C
:10558000216803356D1A25F0030508350C2D38BF49
:105590000C2529463846FFF7A5FF01302BD023689C
:1055A0002B4423600EE02268521B1ED40B2A16D90E
:1055B0006119A342256018BF5960636808BF316054
:1055C00062514B60384604F10B0600F065F826F096
:1055D0000706231DF21AB6D09B1BA350B3E76268DF
:1055E000A3420CBF32605A60ECE723466468B2E71E
:1055F00034467668B9E70C233B60384600F04CF837
:10560000A1E72560DEE700BFA42900202DE9F041D5
:10561000804614460E4621B9BDE8F0411146FFF719
:1056200081BF2AB9FFF712FF25462846BDE8F08161
:1056300000F038F88442074602D8B4EB500F12D875
:1056400021464046FFF76EFF05460028EDD0BC42DC
:105650002246314628BF3A46FFF7D0FE3146404643
:10566000FFF7F4FEE1E73546DFE7000038B5064D09
:105670000023044608462B6000F01EF8431C02D1AC
:105680002B6803B1236038BDAC290020014800F02D
:1056900011B800BFB0290020014800F00CB800BFCD
:1056A000B029002051F8043C181F002BBCBF0B5838
:1056B000C018704770477047044A05491368002BAB
:1056C00008BF0B461844106018467047B4290020E4
:1056D000B8290020F8B500BFF8BC08BC9E4670474A
:0C56E000F8B500BFF8BC08BC9E4670473F
:1056EC00506F736974696F6E2074686500000000F8
:1056FC00616363656C65726F6D6574657220746F40
:10570C0020697473000000007A65726F20706F73EB
:10571C006974696F6E00000043616C696272617438
:10572C00696F6E20436F6D706C65746500000000CE
:10573C00496E697469616C697A65640025642E250B
:10574C00642564002D25642E25642564000000006A
:10575C00202020202020202020202020202020203D
:10576C002020202000000000E9110008F4010000B6
:10577C00000000000100000005100008E803000014
:10578C00010000000200000051100008D0070000CA
:10579C00000000000000000053656E736F72204E15
:1057AC006F74205265737000000000000000000050
:1057BC0001020304060708090000000001020304AB
:1057CC0000061016000610164572726F72206D6F6F
:1057DC00756E74696E6720534400000063617264D7
:1057EC000000000053442063617264206D6F756E7D
:1057FC00746564007375636365737366756C6C793B
:10580C00000000005344206361726420746F746163
:10581C006C2073697A653A00256C640053442063EC
:10582C0061726420667265652073706163653A000D
:10583C00256C7500232D302B2000686C4C006566A0
:10584C0067454647003031323334353637383941C5
:10585C0042434445460030313233343536373839DB
:08586C006162636465660000DF
:0858740018B2FF7F01000000E3
:04587C00C50100085A
:04588000A10100087A
:1058840041783D20202020202020000041793D2027
:105894002020202020200000417A3D2020202020AC
:1058A4002020000047783D202020202020200000D8
:1058B40047793D202020202020200000477A3D20E9
:1058C40020202020202000000024F40001000000FB
:1058D400100000008944000891440008994400081D
:1058E400A1440008A9440008010000007000002041
:1058F40000000000000000000000000000000000A4
:105904000000000000000000000000000000000093
:105914000000000000000000000000000000000083
:105924000000000000000000000000000000000073
:105934000000000000000000000000000000000063
:105944000000000000000000000000000000000053
:0400000508004D3171
:00000001FF
