:020000040800F2
:10000000000002207130000837130008391300087F
:100010003B1300083D1300083F13000800000000D8
:100020000000000000000000000000004113000874
:1000300043130008000000004513000847130008A0
:10004000C1300008C1300008C1300008C1300008CC
:10005000C1300008C1300008C1300008C1300008BC
:10006000C1300008C1300008C1300008C1300008AC
:10007000C1300008C1300008C1300008C13000089C
:10008000C130000851130008C13000080000000012
:10009000000000000000000000000000C130000867
:1000A000C1300008C1300008C1300008C13000086C
:1000B000C1300008C1300008C1300008C13000085C
:1000C000C1300008C1300008C1300008C13000084C
:1000D000C1300008C1300008C13000080000000035
:1000E000C1300008C1300008C13000080000000025
:1000F000000000000000000000000000C130000807
:1001000000000000C1300008C1300008C130000804
:1001100000000000000000000000000000000000DF
:10012000C1300008C1300008C1300008C1300008EB
:10013000C1300008000000000000000000000000C6
:10014000000000000000000000000000C1300008B6
:10015000C1300008C1300008C1300008C1300008BB
:10016000C1300008C130000800000000000000009D
:10017000000000000000000000000000000000007F
:1001800000000000C1300008000000000000000076
:08019000C1300008C130000875
:1001A00010B5054C237833B9044B13B10448AFF3B1
:1001B00000800123237010BD7000002000000000AB
:1001C000143A000808B5034B1BB103490348AFF3C9
:1001D000008008BD0000000074000020143A0008F0
:1001E00001F0FF01102A2BDB10F0070F08D010F8E8
:1001F000013B013A8B422DD010F0070F42B3F6D1EC
:10020000F0B441EA012141EA014122F007047FF004
:1002100000070023F0E80256083C85EA010586EA5B
:10022000010685FA47F5A3FA87F586FA47F6A5FA97
:1002300087F68EB9EED1F0BC01F0FF0102F00702A3
:1002400032B110F8013B013A83EA010313B1F8D14E
:100250000020704701387047002D06BF354603382F
:10026000073815F0010F07D1013015F4807F02BF68
:10027000013015F4C03F0130F0BC0138704700BFB9
:1002800081F0004102E000BF83F0004330B54FEA47
:1002900041044FEA430594EA050F08BF90EA020FB4
:1002A0001FBF54EA000C55EA020C7FEA645C7FEA47
:1002B000655C00F0E2804FEA5454D4EB5555B8BF6A
:1002C0006D420CDD2C4480EA020281EA030382EADB
:1002D000000083EA010180EA020281EA0303362D6D
:1002E00088BF30BD11F0004F4FEA01314FF4801C40
:1002F0004CEA113102D0404261EB410113F0004F52
:100300004FEA03334CEA133302D0524263EB430308
:1003100094EA050F00F0A780A4F10104D5F1200EA6
:100320000DDB02FA0EFC22FA05F2801841F1000101
:1003300003FA0EF2801843FA05F359410EE0A5F1D5
:1003400020050EF1200E012A03FA0EFC28BF4CF006
:10035000020C43FA05F3C01851EBE37101F00045BC
:1003600007D54FF0000EDCF1000C7EEB00006EEBC9
:100370000101B1F5801F1BD3B1F5001F0CD3490853
:100380005FEA30004FEA3C0C04F101044FEA4452AA
:1003900012F5800F80F09A80BCF1004F08BF5FEA31
:1003A000500C50F1000041EB045141EA050130BD11
:1003B0005FEA4C0C404141EB0101013C28BFB1F523
:1003C000801FE9D291F0000F04BF01460020B1FA6E
:1003D00081F308BF2033A3F10B03B3F120020CDA41
:1003E0000C3208DD02F1140CC2F10C0201FA0CF01F
:1003F00021FA02F10CE002F11402D8BFC2F1200C84
:1004000001FA02F120FA0CFCDCBF41EA0C01904039
:10041000E41AA2BF01EB0451294330BD6FEA040482
:100420001F3C1CDA0C340EDC04F11404C4F120026D
:1004300020FA04F001FA02F340EA030021FA04F37F
:1004400045EA030130BDC4F10C04C4F1200220FAD6
:1004500002F001FA04F340EA0300294630BD21FA14
:1004600004F0294630BD94F0000F83F4801306BFDA
:1004700081F480110134013D4EE77FEA645C18BFCE
:100480007FEA655C29D094EA050F08BF90EA020F65
:1004900005D054EA000C04BF1946104630BD91EA5D
:1004A000030F1EBF0021002030BD5FEA545C05D160
:1004B0004000494128BF41F0004130BD14F580049F
:1004C0003CBF01F5801130BD01F0004545F0FE4113
:1004D00041F470014FF0000030BD7FEA645C1ABF48
:1004E000194610467FEA655C1CBF0B46024650EA7F
:1004F000013406BF52EA033591EA030F41F40021AB
:1005000030BD00BF90F0000F04BF0021704730B530
:100510004FF4806404F132044FF000054FF0000105
:1005200050E700BF90F0000F04BF0021704730B5C6
:100530004FF4806404F1320410F0004548BF40429B
:100540004FF000013EE700BF42004FEAE2014FEAF0
:1005500031014FEA02701FBF12F07F4393F07F4FCB
:1005600081F06051704732F07F4208BF704793F0CE
:100570007F4F04BF41F40021704730B54FF46074E1
:1005800001F0004521F000411CE700BF50EA0102E4
:1005900008BF704730B54FF000050AE050EA01028D
:1005A00008BF704730B511F0004502D5404261EBFD
:1005B00041014FF4806404F132045FEA915C3FF43E
:1005C000D8AE4FF003025FEADC0C18BF03325FEADB
:1005D000DC0C18BF033202EBDC02C2F1200300FA8C
:1005E00003FC20FA02F001FA03FE40EA0E0021FAB1
:1005F00002F11444BDE600BF53B94AB9002908BF4F
:1006000000281CBF4FF0FF314FF0FF3000F074B9ED
:10061000ADF1080C6DE904CE00F006F8DDF804E059
:10062000DDE9022304B070472DE9F047089D044638
:100630008E46002B4DD18A42944669D9B2FA82F295
:1006400052B101FA02F3C2F1200120FA01F10CFAD1
:1006500002FC41EA030E94404FEA1C48210CBEFB09
:10066000F8F61FFA8CF708FB16E341EA034306FB92
:1006700007F199420AD91CEB030306F1FF3080F021
:100680001F81994240F21C81023E63445B1AA4B26E
:10069000B3FBF8F008FB103344EA034400FB07F710
:1006A000A7420AD91CEB040400F1FF3380F00A8151
:1006B000A74240F207816444023840EA0640E41B46
:1006C00000261DB1D4400023C5E900433146BDE8F2
:1006D000F0878B4209D9002D00F0EF800026C5E994
:1006E000000130463146BDE8F087B3FA83F6002EAC
:1006F0004AD18B4202D3824200F2F980841A61EB24
:10070000030301209E46002DE0D0C5E9004EDDE741
:1007100002B9FFDEB2FA82F2002A40F09280A1EB29
:100720000C014FEA1C471FFA8CFE0126200CB1FB7E
:10073000F7F307FB131140EA01410EFB03F0884277
:1007400008D91CEB010103F1FF3802D2884200F204
:10075000CB804346091AA4B2B1FBF7F007FB101196
:1007600044EA01440EFB00FEA64508D91CEB040434
:1007700000F1FF3102D2A64500F2BB800846A4EB8F
:100780000E0440EA03409CE7C6F12007B34022FA7A
:1007900007FC4CEA030C20FA07F401FA06F31C43A9
:1007A000F9404FEA1C4900FA06F3B1FBF9F8200CB6
:1007B0001FFA8CFE09FB181140EA014108FB0EF0FC
:1007C000884202FA06F20BD91CEB010108F1FF3A4C
:1007D00080F08880884240F28580A8F10208614458
:1007E000091AA4B2B1FBF9F009FB101144EA014166
:1007F00000FB0EFE8E4508D91CEB010100F1FF3411
:100800006CD28E456AD90238614440EA0840A0FBA8
:100810000294A1EB0E01A142C846A64656D353D07E
:100820005DB1B3EB080261EB0E0101FA07F722FAA2
:1008300006F3F1401F43C5E9007100263146BDE8CB
:10084000F087C2F12003D8400CFA02FC21FA03F32E
:10085000914001434FEA1C471FFA8CFEB3FBF7F0AF
:1008600007FB10360B0C43EA064300FB0EF69E42D4
:1008700004FA02F408D91CEB030300F1FF382FD26D
:100880009E422DD9023863449B1B89B2B3FBF7F615
:1008900007FB163341EA034106FB0EF38B4208D9EE
:1008A0001CEB010106F1FF3816D28B4214D9023E2F
:1008B0006144C91A46EA004638E72E46284605E74D
:1008C0000646E3E61846F8E64B45A9D2B9EB02081E
:1008D00064EB0C0E0138A3E74646EAE7204694E7AE
:1008E0004046D1E7D0467BE7023B614432E73046E1
:1008F00009E76444023842E7704700BF70B58AB028
:1009000000240594069407940894099401942C4BB0
:100910001A6B42F004021A631A6B02F0040201928D
:10092000019A02941A6B42F080021A631A6B02F069
:1009300080020292029A03941A6B42F001021A6337
:100940001A6B02F001020392039A04941A6B42F0AC
:1009500002021A631B6B03F002030493049B194DFC
:1009600022462021284602F02BF84FF4005305932D
:100970004FF4041306930794134E05A9304601F073
:100980003FFF042305934FF488130693079405A9AA
:10099000304601F035FF2023059301230693079489
:1009A000089405A9284601F02BFF2246214608207D
:1009B00002F0DCF9082002F011FA0AB070BD00BFA5
:1009C00000380240000002400008024000B583B039
:1009D00000210191094B1A6B42F400121A631B6B40
:1009E00003F400130193019B0A46112002F0BEF9A3
:1009F000112002F0F3F903B05DF804FB0038024067
:100A000000B585B000F0F0030001C0B243F00C0265
:100A10008DF80C2043F008038DF80D3040F00C03E6
:100A20008DF80E3040F008008DF80F00642300931D
:100A3000042303AA4E21034801F0C6F805B05DF86F
:100A400004FB00BF3401002000B585B000F0F003C6
:100A50000001C0B243F00D028DF80C2043F00903F1
:100A60008DF80D3040F00D038DF80E3040F0090088
:100A70008DF80F0064230093042303AA4E2103483A
:100A800001F0A2F805B05DF804FB00BF34010020BE
:100A900008B5322002F016FA3020FFF7B1FF05202A
:100AA00002F010FA3020FFF7ABFF012002F00AFA43
:100AB0003020FFF7A5FF0A2002F004FA2020FFF7FC
:100AC0009FFF0A2002F0FEF92820FFF799FF01207E
:100AD00002F0F8F90820FFF793FF012002F0F2F985
:100AE0000120FFF78DFF012002F0ECF90620FFF74F
:100AF00087FF012002F0E6F90C20FFF781FF08BD17
:100B000010B5044602E00134FFF79EFF207800286C
:100B1000F9D110BD2DE9F04186B04FF47A730293FC
:100B2000012301930DF1170200927522D021234871
:100B300001F0B8F99DF81730682B09D02048FFF76D
:100B4000DFFF41F2883002F0BDF906B0BDE8F08168
:100B50004FF000088DF81680184D4FF47A77029701
:100B6000012401940DF11606009623466B22D02134
:100B7000284601F0E5F807238DF816300297019416
:100B8000009623461922D021284601F0D9F88DF885
:100B9000168002970194009623461C22D0212846F5
:100BA00001F0CEF88DF81680029701940096234646
:100BB0001B22D021284601F0C3F8C6E734010020EB
:100BC0002C3A000808B50C4B00221A7000F0A6FB66
:100BD0008020FFF715FF0948FFF792FFC020FFF7BD
:100BE0000FFF0748FFF78CFF9420FFF709FF054828
:100BF000FFF786FF08BD00BFB10000203C3A0008A7
:100C00004C3A0008643A000810B52DED028B86B00E
:100C1000B0EE408A14464FF47A7302930623019390
:100C200004AB009301230A4601461A4801F03AF941
:100C30009DF810209DF8113043EA02231BB207EE05
:100C4000903AF8EEE77A87EE887A84ED007A9DF89C
:100C500012209DF8133043EA02231BB207EE903AAC
:100C6000F8EEE77A87EE887A84ED017A9DF8142011
:100C70009DF8153043EA02231BB207EE903AF8EED6
:100C8000E77A87EE887A84ED027A204606B0BDECDA
:100C9000028B10BD3401002030B52DED028B87B0E2
:100CA000B0EE408A14461D464FF47A730293062331
:100CB000019304AB009301230A460146204801F04A
:100CC000F1F89DF810209DF8113043EA02231BB281
:100CD00007EE903AF8EEE77A87EE887AD5ED007A5B
:100CE00077EE677AC4ED007A9DF812309DF8131004
:100CF00041EA032109B207EE901AF8EEE77A87EE8F
:100D0000887AD5ED017A77EE677AC4ED017A9DF89D
:100D100014309DF8151041EA032109B207EE901A2C
:100D2000F8EEE77A87EE887AD5ED027A77EE677A81
:100D3000C4ED027A204607B0BDEC028B30BD00BF87
:100D40003401002010B52DED028B86B0B0EE408A44
:100D500014464FF47A7302930623019304AB009375
:100D600001230A4601461A4801F09CF89DF810201C
:100D70009DF8113043EA02231BB207EE903AF8EED9
:100D8000E77A87EE887A84ED007A9DF812209DF844
:100D9000133043EA02231BB207EE903AF8EEE77AEB
:100DA00087EE887A84ED017A9DF814209DF815303D
:100DB00043EA02231BB207EE903AF8EEE77A87EE99
:100DC000887A84ED027A204606B0BDEC028B10BD15
:100DD0003401002070B5FFF75BFEFFF79BFE124D5C
:100DE0002A463B21D0209FED110AFFF70DFF104E40
:100DF0003060104C22464321D0209FED0F0AFFF7B0
:100E0000A1FF0E4B186033681A682A605A686A603E
:100E10009B68AB6003682360436863608368A3607A
:100E20000748FFF76DFE70BD8C0000200000804673
:100E300098000020B400002000000343C000002000
:100E4000743A000870B5164B00221A7000F066FA6A
:100E5000144D2A463B21D0209FED130AFFF7D4FE04
:100E6000124E3060124C22464321D0209FED110AD1
:100E7000FFF768FF104B186033681A682A605A68D9
:100E80006A609B68AB600368236043686360836843
:100E9000A3608020FFF7B4FD0848FFF731FE70BD66
:100EA000B10000208C000020000080469800002047
:100EB000B400002000000343C0000020803A000876
:100EC00030B52DED028B87B0B0EE408A14461D463A
:100ED0004FF47A7302930623019304AB009301232A
:100EE0000A460146204800F0DDFF9DF810209DF8DD
:100EF000113043EA02231BB207EE903AF8EEE77A8C
:100F000087EE887AD5ED007A77EE677AC4ED007ABD
:100F10009DF812309DF8131041EA032109B207EE43
:100F2000901AF8EEE77A87EE887AD5ED017A77EEB7
:100F3000677AC4ED017A9DF814309DF8151041EAE6
:100F4000032109B207EE901AF8EEE77A87EE887A65
:100F5000D5ED027A77EE677AC4ED027A204607B0C3
:100F6000BDEC028B30BD00BF3401002070B57F4C5A
:100F70007F4B22463B21D0209FED7E0AFFF78CFE5F
:100F80007D4E30607D4D7E4B2A464321D0209FED23
:100F90007D0AFFF795FF7C4B186033681A68226062
:100FA0005A6862609B68A36003682B6043686B604B
:100FB0008368AB608020FFF723FD7448FFF7A0FD36
:100FC0002068FFF7C1FA02460B467149714802F0EA
:100FD000A5F8D4ED007AF5EEC07AF1EE10FAC0F281
:100FE000B980042040F08000FFF70AFD694D2846D3
:100FF000FFF786FD6848FFF783FDC020FFF700FD7F
:101000006648FFF77DFD594C6068FFF79DFA024680
:101010000B465F49284602F081F8D4ED017AF5EEDF
:10102000C07AF1EE10FAC0F29780442040F08000C0
:10103000FFF7E6FC574D2846FFF762FD5648FFF7DD
:101040005FFD9420FFF7DCFC5548FFF759FD474C46
:10105000A068FFF779FA02460B464D49284602F090
:101060005DF8D4ED027AF5EEC07AF1EE10FA75DB98
:10107000182040F08000FFF7C3FC464D2846FFF7DC
:101080003FFD4548FFF73CFD8A20FFF7B9FC454886
:10109000FFF736FD394C2068FFF756FA02460B463B
:1010A0003B49284602F03AF8D4ED007AF5EEC07AD2
:1010B000F1EE10FA54DB0E2040F08000FFF7A0FCA8
:1010C000344D2846FFF71CFDCA20FFF799FC36482F
:1010D000FFF716FD294C6068FFF736FA02460B460B
:1010E0002B49284602F01AF8D4ED017AF5EEC07AC1
:1010F000F1EE10FA36DB4E2040F08000FFF780FC66
:10110000244D2846FFF7FCFC9E20FFF779FC27487A
:10111000FFF7F6FC194CA068FFF716FA02460B46DB
:101120001B49284601F0FAFFD4ED027AF5EEC07AA9
:10113000F1EE10FA18DB222040F08000FFF760FC8F
:101140001448FFF7DDFCD420FFF75AFC1848FFF7DE
:10115000D7FC70BD032045E7432067E7172088E7E9
:101160000D20A9E74D20C7E72120E5E79C000020DE
:101170008C00002000008046A8000020C400002051
:10118000B400002000000343D0000020983A00087B
:10119000A43A0008AC000020AC3A0008B03A0008BD
:1011A000BC3A0008C83A0008D43A0008E03A0008FF
:1011B000EC3A000872B6FEE708B50A480A4B03602D
:1011C0004FF4E133436000238360C36003610C226A
:1011D00042618361C36101F011FF00B908BDFFF7EF
:1011E000E9FF00BF880100200044004008B50A481C
:1011F0000A4B03600A4B436000238360C3604FF4D3
:101200008042026143618361C361036200F0FEFBBF
:1012100000B908BDFFF7CEFF3401002000540040A4
:10122000A086010000B595B03022002108A801F089
:101230006DFF002303930493059306930793019393
:101240001E4A116C41F080511164126C02F0805200
:101250000192019A02931A4A116841F440411160C7
:10126000126802F440420292029A0221089101227D
:101270000B9210220C920E910F9310924FF4A873C0
:10128000119304231293139308A800F07DFF80B9F3
:101290000F23039302210491002305934FF48052FE
:1012A0000692079303A801F0D5F920B915B05DF8AF
:1012B00004FBFFF77FFFFFF77DFF00BF0038024010
:1012C0000070004008B5124B00221A6001F0CEFDFC
:1012D000FFF7A8FFFFF712FBFFF778FBFFF76CFFA4
:1012E000FFF784FF0B4D0A4C23681B01EB5898470E
:1012F000236805EB0313586801F0E4FD2268064BF0
:101300001B7803EB8203023355F823302360E9E7AF
:10131000CC010020043B0008B100002010B50020E3
:10132000FFF76EFB002403E02020FFF78DFB013464
:10133000632CF9DD10BDFEE7FEE7FEE7FEE7FEE702
:1013400070477047704708B501F0AAFD08BD00005E
:1013500008B5024801F00AFC08BD00BFD400002017
:1013600000B583B0002100910C4B5A6C42F48042CE
:101370005A645A6C02F480420092009A01911A6CED
:1013800042F080521A641B6C03F080530193019B5E
:10139000072001F0D9FC03B05DF804FB00380240DF
:1013A00030B589B000230393049305930693079304
:1013B0000268144B9A4201D009B030BD0025019556
:1013C000114C236B43F002032363236B03F00203EE
:1013D0000193019BC02303931223049303230693D9
:1013E0000423079303A9094801F00AFA0295236C24
:1013F00043F400132364236C03F400130293029B51
:10140000DAE700BF00540040003802400004024008
:1014100030B589B000230393049305930693079393
:101420000268234B9A4201D009B030BD0446002522
:10143000019503F5FA331A6C42F400321A641A6CFF
:1014400002F400320192019A02951A6B42F00102F5
:101450001A631B6B03F001030293029B0C2303939B
:1014600002230493032306930723079303A9114838
:1014700001F0C6F91048114B03604FF00063436060
:1014800040238360C5604FF48063036145618561DB
:101490004FF48073C3610562456201F001FB18B926
:1014A000054B63639C63BFE7FFF784FEF8E700BF6B
:1014B0000044004000000240D4000020A060024030
:1014C00003685A6912F4806F01D1002070476FF4ED
:1014D00080625A6100230363202280F83D2080F857
:1014E0003E30026C42F00402026480F83C3001207D
:1014F00070472DE9F04107460D4690461E4624E010
:1015000001F0DAFC069BC01AB04200D8EEB9002305
:101510003B63202287F83D2087F83E303A6C42F04A
:1015200020023A6487F83C3001201EE03B689C6949
:1015300025EA040C1FFA8CFCBCFA8CFC4FEA5C1CFC
:10154000E04511D1B6F1FF3FDAD1C5F30743012BD6
:10155000ECD13B685B6925EA030C1FFA8CFCBCFAF2
:101560008CFC4FEA5C1CEBE70020BDE8F0812DE924
:10157000F04105460E46174698463DE01A6842F48B
:1015800000721A602B686FF480625A6100232B632B
:10159000202285F83D2085F83E302A6C42F0040276
:1015A0002A6485F83C30012034E001F085FCA0EB92
:1015B0000800B84200D8FFB900232B63202285F829
:1015C0003D2085F83E302A6C42F020022A6485F8DE
:1015D0003C3001201EE02B689C6926EA0404A4B27A
:1015E000003C18BF0124A4B12B685A6912F4806F23
:1015F000C4D1B7F1FF3FD8D1C6F30743012BEAD1DD
:101600002B685C6926EA0404A4B2003C18BF0124DC
:10161000E9E70020BDE8F081F0B583B004460D464F
:1016200016461F46C36A082B0DD0012B0BD013F5AD
:10163000803F08D0036B122B0AD10268136843F471
:101640008073136004E02268136843F480731360AE
:101650000097334600224FF001112046FFF749FF63
:1016600080B92369B3F5804F16D1236805F0FE05D4
:101670001D613B46324613492046FFF778FFF8B913
:1016800003B0F0BD23681B6813F4807F02D04FF4D1
:10169000007323640320F3E7EB11226803F00603D1
:1016A00043F0F00313613B46324607492046FFF7FB
:1016B0005EFF18B92368EDB21D61DAE70120DFE7AC
:1016C0000120DDE7020001000800010070B50446BA
:1016D0000D46164623685B6913F0800F1CD1204627
:1016E000FFF7EEFED0B9B5F1FF3FF3D001F0E4FB18
:1016F000801BA84201D8002DECD1002323632022B7
:1017000084F83D2084F83E30226C42F020022264AE
:1017100084F83C30012000E0002070BD0120FCE78F
:101720002DE9F04385B004460D4691461F46DDF88D
:1017300030800D9E0368196841F48071196000962D
:10174000434600224FF00111FFF7D3FE60B9236832
:1017500005F0FE051D613346424626492046FFF747
:1017600006FF68B1012008E023681B6813F4807F3E
:1017700002D04FF400732364032005B0BDE8F0836A
:101780000023039323685A6903929B690393039B85
:10179000324641462046FFF799FF30B9012F0FD15D
:1017A00023685FFA89F61E61E7E7236C042B01D0FA
:1017B0000120E2E72268136843F400731360F7E73F
:1017C00023684FEA19221A61324641462046FFF744
:1017D0007DFF20B923685FFA89F61E61CDE7236C8F
:1017E000042B01D00120C8E72268136843F400737A
:1017F0001360F7E7020001002DE9F04784B00446CA
:101800000D46164699460C9FDDF834800268136831
:1018100043F4806313600368196841F480711960B0
:10182000CDF800803B4600224FF00111FFF761FE2A
:1018300070B95FFA85FA236805F0FE051D6143461D
:101840003A4641492046FFF792FE68B1012008E080
:1018500023681B6813F4807F02D04FF40073236465
:10186000032004B0BDE8F0870023039323685A697E
:1018700003929B690393039B424639462046FFF738
:1018800025FF80B9B9F1010F18D12368F6B21E61A6
:10189000424639462046FFF719FF68B3236C042BF4
:1018A00024D00120DDE7236C042B01D00120D8E7F0
:1018B0002268136843F400731360F7E72368320A61
:1018C0001A61424639462046FFF700FF18B92368DF
:1018D000F6B21E61DCE7236C042B01D00120C0E7C7
:1018E0002268136843F400731360F7E722681368F3
:1018F00043F400731360D4E72268136843F48073E1
:101900001360CDF800803B4600224FF001112046C5
:10191000FFF7EFFD68B922684AF0010313614346FF
:101920003A4609492046FFF722FE002899D00120B7
:1019300097E723681B6813F4807F02D04FF400738D
:10194000236403208DE700BF0200010070B5044648
:101950000D46164623685B6913F0040F1CD1204620
:10196000FFF7AEFDD0B9B5F1FF3FF3D001F0A4FA17
:10197000801BA84201D8002DECD100232363202234
:1019800084F83D2084F83E30226C42F0200222642C
:1019900084F83C30012000E0002070BD0120FCE70D
:1019A00070B505460C4616462B68596911F0400F74
:1019B00029D1596911F0100F15D101F07DFA801B62
:1019C000A04201D8002CEFD100232B63202285F800
:1019D0003D2085F83E302A6C42F020022A6485F8CA
:1019E0003C30012070BD6FF010025A6100232B6360
:1019F000202285F83D2085F83E302A6C2A6485F83F
:101A00003C300120EEE70020ECE70000002800F069
:101A1000CC8070B5044690F83D30002B77D024235D
:101A200084F83D302268136823F0010313602268B4
:101A3000136843F4004313602268136823F40043DF
:101A4000136000F0BDFE62685A4B9A4264D85A4B4C
:101A500098428CBF00230123002B40F0A8805749F7
:101A6000A1FB00318B0C25686A6822F03F0242EA34
:101A700091426A6021680A6A22F03F0266684D4D11
:101A8000AE424FD8013313430B622168CA6922F476
:101A90004F4222F0FF026668464B9E424CD8431EDE
:101AA0007600B3FBF6F3013340F6FC70034278D0C6
:101AB000C3F30B031343CB6121680B6823F0C0030E
:101AC000E269206A024313430B6021688B6823F4A8
:101AD000034323F0FF032269E068024313438B6052
:101AE0002168CB6823F0FF036269A06902431343B6
:101AF000CB602268136843F0010313600020206468
:101B0000202384F83D30206384F83E0070BD80F8C7
:101B10003C30FFF745FC82E7294B98428CBF0023FD
:101B2000012399E74FF4967505FB03F3254DA5FBBB
:101B300003539B090133A6E7A368BBB9451E06EB17
:101B4000460CB5FBFCF50135C5F30B05B5FA85F57B
:101B50006D0945BBC3B9013806EB4603B0FBF3F38F
:101B60000133C3F30B0343F40043A3E7451E06EB25
:101B7000860C0CEB8C0CB5FBFCF50135C5F30B05A5
:101B8000B5FA85F56D09E4E7013806EB860303EB4A
:101B90008303B0FBF3F30133C3F30B0343F440437C
:101BA00088E7042386E7012384E7012070470120AA
:101BB000ACE700BFA08601007F841E0083DE1B43CC
:101BC000FF083D00D34D62102DE9F04385B0044677
:101BD0000F46914698460C9E01F06EF9054694F822
:101BE0003D00C0B2202804D00227384605B0BDE829
:101BF000F0830095192301224F492046FFF779FC15
:101C0000002840F0928094F83C30012B00F08F8047
:101C1000012384F83C3023681A6812F0010F03D1C5
:101C20001A6842F001021A602268136823F4006304
:101C30001360212384F83D30102384F83E300023C4
:101C40002364C4F82490A4F82A80638D23853B4B39
:101C5000E3622B46324639462046FFF7DDFC074655
:101C6000002866D10023039323685A6903929B6975
:101C70000393039B11E0236C042B01D00127B4E7ED
:101C80002268136843F400731360F7E72A4631466D
:101C90002046FFF75BFE00282ED1238D002B36D087
:101CA0002A4631462046FFF711FD0028E3D1626A3B
:101CB000236812781A61606A431C6362618D89B27D
:101CC000013989B26185238D013B9BB2238522684E
:101CD000516911F0040FD9D0002BD7D0437813618C
:101CE000636A01336362638D9BB2013B9BB2638580
:101CF000238D013B2385C9E7236C042B01D00127E9
:101D000073E72268136843F400731360F7E72268EF
:101D1000136843F400731360202384F83D300023DC
:101D200084F83E3084F83C305FE702275DE7022705
:101D30005BE7012759E700BF020010000000FFFF2A
:101D40002DE9F04383B004460F46904699460C9E19
:101D500001F0B2F8054694F83D00C0B2202803D047
:101D6000022003B0BDE8F0830095192301224B49FE
:101D70002046FFF7BEFB002840F0898094F83C30F5
:101D8000012B00F08680012384F83C3023681A6818
:101D900012F0010F03D11A6842F001021A602268A2
:101DA000136823F400631360212384F83D3040233B
:101DB00084F83E30002323640A9B6362BDF82C3014
:101DC0006385638D2385364BE362019500964B4610
:101DD000424639462046FFF7A3FC00285BD1238DFD
:101DE000002B35D02A4631462046FFF76FFC20BB3A
:101DF000626A236812781A61626A531C6362218DD9
:101E0000013989B22185638D9BB2013B9BB2638509
:101E10002368586910F0040FE1D00029DFD0527810
:101E20001A61636A01336362238D013B2385638DED
:101E30009BB2013B9BB26385D1E7236C042B01D09D
:101E400001208EE72268136843F400731360F7E7FC
:101E50002A4631462046FFF779FD50B1236C042B0A
:101E600001D001207DE72268136843F400731360FA
:101E7000F7E72268136843F400731360202384F8A3
:101E80003D30002384F83E3084F83C3069E702207E
:101E900067E7022065E7012063E700BF020010004A
:101EA0000000FFFF2DE9F04387B004460F4690463F
:101EB0009946109E01F000F8054694F83D00C0B226
:101EC000202804D00227384607B0BDE8F0830095EB
:101ED0001923012288492046FFF70BFB002840F018
:101EE000438194F83C30012B00F04081012384F8B9
:101EF0003C3023681A6812F0010F03D11A6842F0CF
:101F000001021A602268136823F40063136022231D
:101F100084F83D30402384F83E30002323640E9B38
:101F20006362BDF83C306385638D2385734BE36248
:101F3000019500964B46424639462046FFF75CFC29
:101F40000746002840F01481238D5BB90293236873
:101F50005A6902929A690292029A1A6842F40072CD
:101F60001A6075E0012B0AD0022B1AD000230593CA
:101F700023685A6905929B690593059B68E022686E
:101F8000136823F4806313600023039323685A6962
:101F900003929A690392039A1A6842F400721A60D3
:101FA00056E02268136823F4806313602268136884
:101FB00043F4006313600023049323685A69049276
:101FC0009B690493049B43E02A4631462046FFF771
:101FD000E7FC002840F0CE8023681A69636A1A7013
:101FE000636A01336362238D013B2385638D9BB25A
:101FF000013B9BB263852BE00095334600224049AC
:102000002046FFF776FA002840F0B6802268136871
:1020100043F40073136023681A69636A1A70626A72
:10202000531C6362238D013B2385638D9BB2013B6F
:102030009BB2638523681B695370636A01336362D3
:10204000238D013B2385638D9BB2013B9BB263854E
:10205000238D002B7FD0032B54D8012BB4D0022B1F
:10206000CAD000953346002225492046FFF741FAA1
:10207000002840F083802268136823F48063136093
:1020800023681A69636A1A70636A01336362238D75
:10209000013B2385638D9BB2013B9BB26385009519
:1020A0003346002216492046FFF723FA002867D15D
:1020B0002268136843F40073136023681A69636A23
:1020C0001A70626A531C6362238D013B2385638D02
:1020D0009BB2013B9BB2638523681B695370636AA3
:1020E00001336362238D013B2385638D9BB2013BEA
:1020F0009BB26385ACE700BF020010000000FFFF49
:10210000040001002A4631462046FFF749FC00281A
:1021100038D123681A69636A1A70626A531C636251
:10212000238D013B2385638D9BB2013B9BB263856D
:102130002368596911F0040F8AD01B695370636AD0
:1021400001336362238D013B2385638D9BB2013B89
:102150009BB263857CE7202384F83D30002384F81C
:102160003E3084F83C30AEE60227ACE60227AAE611
:102170000127A8E60127A6E60127A4E60127A2E693
:102180000127A0E601279EE6002800F0E08170B557
:1021900082B00446036813F0010F3BD09F4B9B684D
:1021A00003F00C03042B2CD09C4B9B6803F00C0316
:1021B000082B21D06368B3F5803F4FD0B3F5A02F33
:1021C00052D0964B1A6822F480321A601A6822F4B0
:1021D00080221A606368002B50D000F06DFE054627
:1021E0008E4B1B6813F4003F14D100F065FE401BBA
:1021F0006428F5D90320B1E1884B5B6813F4800FA4
:10220000D8D0864B1B6813F4003F03D06368002BC3
:1022100000F09F81236813F0020F54D07F4B9B681E
:1022200013F00C0F3ED07D4B9B6803F00C03082B82
:1022300033D0E368002B68D0794B01221A6000F09C
:102240003BFE0546754B1B6813F0020F54D100F09E
:1022500033FE401B0228F5D903207FE16F4A136843
:1022600043F480331360B5E76C4B1A6842F4802264
:102270001A601A6842F480321A60ABE700F01CFE64
:102280000546664B1B6813F4003FC3D000F014FEF4
:10229000401B6428F5D9032060E1604B5B6813F4B0
:1022A000800FC6D15D4B1B6813F0020F03D0E368AB
:1022B000012B40F05081594A136823F0F80321693B
:1022C00043EAC1031360236813F0080F42D0636927
:1022D0006BB3534B0122C3F8802E00F0EDFD054691
:1022E0004E4B5B6F13F0020F34D100F0E5FD401B45
:1022F0000228F5D9032031E1484A136823F0F80396
:10230000216943EAC1031360DDE7454B00221A60EF
:1023100000F0D2FD0546414B1B6813F0020FD2D0EE
:1023200000F0CAFD401B0228F5D9032016E13C4B02
:102330000022C3F8802E00F0BFFD0546374B5B6FCF
:1023400013F0020F06D000F0B7FD401B0228F5D9AC
:10235000032003E1236813F0040F77D02F4B1B6C8D
:1023600013F0805F33D1002301932C4B1A6C42F0A1
:1023700080521A641B6C03F080530193019B01256A
:10238000284B1B6813F4807F23D0A368012B34D023
:10239000052B38D0214B1A6F22F001021A671A6FF1
:1023A00022F004021A67A368002B3DD000F084FDE0
:1023B00006461A4B1B6F13F0020F46D100F07CFD4E
:1023C000801B41F288339842F3D90320C6E00025F0
:1023D000D6E7144A136843F48073136000F06CFD71
:1023E0000646104B1B6813F4807FCED100F064FDCD
:1023F000801B0228F5D90320B0E0084A136F43F090
:1024000001031367CFE7054B1A6F42F004021A6706
:102410001A6F42F001021A67C5E700BF0038024098
:10242000000047420070004000F046FD0646524B57
:102430001B6F13F0020F08D000F03EFD801B41F22D
:1024400088339842F3D9032088E0EDB9A369002BC3
:1024500000F08380484A926802F00C02082A51D0AA
:10246000022B17D0454B00221A6600F025FD0446CA
:10247000414B1B6813F0007F42D000F01DFD001B94
:102480000228F5D9032069E03B4A136C23F08053FE
:102490001364DBE7394B00221A6600F00DFD054698
:1024A000354B1B6813F0007F06D000F005FD401B84
:1024B0000228F5D9032051E0E369226A1343626AD6
:1024C00043EA8213A26A5208013A43EA0243E26AEB
:1024D00043EA0263284A5360284B01221A6600F03F
:1024E000EBFC0446244B1B6813F0007F06D100F080
:1024F000E3FC001B0228F5D903202FE000202DE08B
:1025000000202BE0012B2BD01B4B5B6803F48001D8
:10251000E269914226D103F03F02216A8A4223D127
:10252000616A47F6C0721A40B2EB811F1ED103F4F4
:102530004031A26A5208013AB1EB024F18D103F0C0
:102540007063E26AB3EB026F14D1002006E0012051
:102550007047012002E0012000E0002002B070BDC1
:102560000120FBE70120F9E70120F7E70120F5E76B
:102570000120F3E70120F1E7003802400000474264
:1025800008B5314B9B6803F00C03042B57D0082B84
:1025900057D12D4B5A6802F03F025B6813F4800F4D
:1025A0002AD0294B5968C1F3881C4FEA4C11B1EB72
:1025B0000C006EEB0E0E4FEA8E1343EA906381011E
:1025C000091A63EB0E03DB0043EA5173C90011EBF8
:1025D0000C0C43F10003590200234FEA4C2041EA5E
:1025E000DC51FEF709F8184B5B68C3F30143013374
:1025F0005B00B0FBF3F025E0134B5968C1F3881C76
:102600004FEA4C11B1EB0C006EEB0E0E4FEA8E133D
:1026100043EA90638101091A63EB0E03DB0043EA8E
:102620005173C90011EB0C0C43F100039902002314
:102630004FEA8C2041EA9C51FDF7DEFFD3E70348C7
:1026400000E0034808BD00BF0038024000127A00D5
:102650000024F400002800F09B8070B50D4604466D
:102660004F4B1B6803F007038B4208D2CBB24C4A96
:102670001370136803F007038B4240F08B802368CC
:1026800013F0020F17D013F0040F04D0454A9368DB
:1026900043F4E0539360236813F0080F04D0414AD9
:1026A000936843F4604393603E4A936823F0F003D9
:1026B000A1680B439360236813F0010F32D0636865
:1026C000012B21D09A1E012A25D9364A126812F010
:1026D000020F61D033498A6822F0030213438B60F2
:1026E00000F0EAFB06462F4B9B6803F00C03626880
:1026F000B3EB820F16D000F0DFFB801B41F2883372
:102700009842F0D9032042E0264A126812F4003FB2
:10271000E0D101203BE0234A126812F0007FD9D1BA
:10272000012034E01E4B1B6803F00703AB4207D9BE
:10273000EAB21B4B1A701B6803F00703AB422DD1A2
:10274000236813F0040F06D0164A936823F4E0536D
:10275000E1680B439360236813F0080F07D0114A18
:10276000936823F46043216943EAC1039360FFF750
:1027700007FF0C4B9B68C3F303130B4AD35CD84091
:102780000A4B18600A4B186800F04AFB002070BD25
:10279000012070470120FAE70120F8E70120F6E761
:1027A000003C0240003802404C3B0008080000207A
:1027B00004000020014B1868704700BF080000208B
:1027C00008B5FFF7F7FF044B9B68C3F38223034A66
:1027D000D35CD84008BD00BF003802405C3B000815
:1027E00008B5FFF7E7FF044B9B68C3F34233034A86
:1027F000D35CD84008BD00BF003802405C3B0008F5
:1028000000230F2B00F2D28070B582B060E08568A3
:102810005E000324B44025EA0405CC68B4402C4390
:102820008460456825EA02054C68C4F300129A40AA
:102830002A4342605AE0DC08083450F8246003F070
:10284000070295000F22AA4026EA020E0A69AA4052
:1028500042EA0E0240F824205CE0042200E000225C
:1028600002FA0EF22A430234514D45F82420514A0F
:1028700014686FEA0C0224EA0C054E6816F4803FD7
:1028800001D04CEA04054B4C2560646802EA04055B
:102890004E6816F4003F01D04CEA0405454C6560D3
:1028A000A46802EA04054E6816F4801F01D04CEAC1
:1028B0000405404CA560E46822404D6815F4001FF3
:1028C00001D04CEA04023B4CE26001330F2B6BD881
:1028D00001229A400C6804EA020C32EA0404F4D1A2
:1028E0004C6804F00304013C012C90D94A6802F0C2
:1028F0000302032A09D0C4685D000322AA4024EA27
:1029000002048A68AA402243C2604A6802F00302B5
:10291000022A90D004684FEA430E032202FA0EF214
:1029200024EA02044A6802F0030202FA0EF2224389
:1029300002604A6812F4403FC7D0002201921E4A4A
:10294000546C44F480445464526C02F4804201920A
:10295000019A9C08A51C164A52F8255003F0030260
:102960004FEA820E0F2202FA0EF225EA0205134AFE
:1029700090423FF474AF02F5806290420ED002F5AF
:10298000806290420CD002F5806290420AD002F53B
:10299000806290423FF461AF072261E701225FE766
:1029A00002225DE703225BE702B070BD704700BF03
:1029B00000380140003C0140003802400000024065
:1029C0000AB18161704709048161704710B40368DE
:1029D000D9B210390C4AA2FB014212090B4CA25C7D
:1029E000C2655F2909D923F47F7323F003030433FD
:1029F0008365806D5DF8044B704723F47F7323F08B
:102A000003038365F5E700BFABAAAAAA443B00080D
:102A1000836A826992B9012B0AD0022B02D00BB1D2
:102A200000207047C36A13F0807F28D100207047D0
:102A3000C36AB3F1C07F24D000207047B2F5005FB5
:102A400009D0022B25D9032B25D1C36A13F0807F2F
:102A500023D100207047032B03D8DFE803F01404D0
:102A6000140A00207047C36A13F0807F0DD1002044
:102A70007047C36AB3F1C07F09D0002070470120BE
:102A800070470120704701207047012070470120E6
:102A900070470120704700207047012070470000F8
:102AA00070B5044600F008FA002C5BD005460223FE
:102AB00084F83530002384F834302268136823F01A
:102AC0000103136023681A6812F0010F0AD000F0A6
:102AD000F3F9431B052BF5D920236365032084F804
:102AE000350070BD1A68204810406168A2680A432A
:102AF000E1680A4321690A4361690A43A1690A43FB
:102B0000E1690A43216A0A430243616A04291ED02B
:102B10001A602668756925F00705636A1D43042B52
:102B200007D1A36A1D43E36A1BB12046FFF770FF7C
:102B300090B975612046FFF749FFE26D3F2393404E
:102B4000836000206065012384F83530C9E7E16ABD
:102B5000206B01430A43DBE740236365012084F8CF
:102B60003500BEE70120BCE73F8010F0F0B583B030
:102B7000044600230193724B1D68724BA3FB05357D
:102B8000AD0A876D3E68C26D08239340334210D072
:102B900003681A6812F0040F0BD01A6822F00402BE
:102BA0001A60C26D08239340BB60436D43F001037C
:102BB0004365E26D01239340334209D02268526994
:102BC00012F0800F04D0BB60636D43F002036365B5
:102BD000E26D04239340334209D02268126812F058
:102BE000020F04D0BB60636D43F004036365E26DC4
:102BF00010239340334224D02268126812F0080F49
:102C00001FD0BB6023681A6812F4802F0DD01B6898
:102C100013F4002F04D1236C9BB12046984710E099
:102C2000A36C73B1204698470BE01A6812F4807FBA
:102C300003D11A6822F008021A60236C0BB12046F7
:102C40009847E26D20239340334255D022681268A2
:102C500012F0100F50D0BB6094F83530DBB2052B6A
:102C60000ED023681A6812F4802F33D01B6813F437
:102C7000002F2AD1636C002B3ED0204698473BE0C2
:102C80002268136823F0160313602268536923F047
:102C900080035361236CA3B12268136823F00803F7
:102CA0001360E26D3F239340BB60012384F835300D
:102CB000002384F83430236D002B3FD02046984702
:102CC0003CE0A36C002BE7D1EBE7E36BA3B120461C
:102CD000984711E01A6812F4807F09D11A6822F02F
:102CE00010021A60012384F83530002384F8343050
:102CF000E36B0BB120469847636DFBB1636D13F036
:102D0000010F17D0052384F835302268136823F0AB
:102D100001031360019B01330193AB4204D8236884
:102D20001B6813F0010FF5D1012384F8353000231F
:102D300084F83430E36C0BB12046984703B0F0BD03
:102D400008000020B5814E1B074AD36823F4E063D6
:102D50001B041B0C000200F4E060034343F0BF635C
:102D600043F40033D360704700ED00E000B5194B29
:102D7000DB68C3F30223C3F1070CBCF1040F28BFC7
:102D80004FF0040C03F1040EBEF1060F18D9033BFB
:102D90004FF0FF3E0EFA0CFC21EA0C0199400EFAAE
:102DA00003F322EA0303194300280BDB0901C9B22C
:102DB00000F1604000F5614080F800135DF804FB0D
:102DC0000023E5E700F00F000901C9B2024B1954D6
:102DD000F4E700BF00ED00E014ED00E0002807DBA1
:102DE00000F01F02400901239340024A42F82030BC
:102DF000704700BF00E100E00138B0F1807F0BD2E6
:102E00004FF0E0235861054AF02182F8231000209A
:102E1000986107221A6170470120704700ED00E0B9
:102E200010B504460E4B18784FF47A73B3FBF0F3E9
:102E30000C4A1068B0FBF3F0FFF7DEFF68B90F2C07
:102E400001D901200AE0002221464FF0FF30FFF7B0
:102E50008DFF054B1C60002000E0012010BD00BF6D
:102E600000000020080000200400002008B50B4BE3
:102E70001A6842F400721A601A6842F480621A609A
:102E80001A6842F480721A600320FFF75DFF002089
:102E9000FFF7C6FFFEF764FA002008BD003C0240C1
:102EA000034A1168034B1B780B441360704700BF43
:102EB000D001002000000020014B1868704700BFBF
:102EC000D001002038B50446FFF7F6FF0546B4F1FF
:102ED000FF3F02D0044B1B781C44FFF7EDFF401B63
:102EE000A042FAD338BD00BF0000002038B5044628
:102EF0000268136923F44053C1680B43136183686C
:102F00000269134342691343C2691A430168CB68DB
:102F100023F4164323F00C031343CB600268536978
:102F200023F4407381690B4353610368314A934230
:102F300006D002F58062934202D0FFF741FC01E027
:102F4000FFF74EFCE369B3F5004F29D000210318C9
:102F500049411B1841F10001C90041EA5371DB00EE
:102F6000181863684FEA83024FEA937341F1000136
:102F7000FDF742FB204DA5FB00325109642303FB02
:102F800011031B013233A5FB03235B0903F0F0029D
:102F900002EB011203F00F03216813448B6038BD6C
:102FA0000023021843EB0301121841F10001C9008C
:102FB00041EA5271D200101841F100016268921882
:102FC0005B41FDF719FB0C4DA5FB00325109642351
:102FD00003FB1103DB003233A5FB03235B095A001B
:102FE00002F4F87202EB011203F0070321681344A4
:102FF0008B60D4E7001001401F85EB5158B310B52A
:10300000044690F83D300BB3242384F83D30226809
:10301000D36823F40053D3602046FFF767FF22688C
:10302000136923F4904313612268536923F02A0340
:1030300053612268D36843F40053D36000202064B6
:10304000202384F83D3084F83E3010BD80F83C30B9
:10305000FEF7DEF9D8E7012070470000034AD2F8F6
:10306000883043F47003C2F88830704700ED00E008
:10307000DFF834D00D480E490E4A002302E0D45840
:10308000C4500433C4188C42F9D30B4A0B4C0023B0
:1030900001E013600432A242FBD3FFF7DFFF00F030
:1030A00011F8FEF70FF97047000002200000002021
:1030B00070000020A83B000870000020E8010020FC
:1030C000FEE7000070B50D4D0D4C641BA4100026EA
:1030D000A64209D10B4D0C4C00F09CFC641BA410C3
:1030E0000026A64205D170BD55F8043B984701362D
:1030F000EEE755F8043B98470136F2E7A03B00089D
:10310000A03B0008A03B0008A43B00080244034683
:10311000934200D1704703F8011BF9E70EB400B5E4
:103120009CB01DAB029006906FF0004109480791DA
:103130000491094953F8042B05910068019302A9F1
:1031400000F068F8029B00221A701CB05DF804EBD6
:1031500003B070470C0000200802FFFF2DE9F04784
:103160008E689E4282460C4690461F4638D88A8911
:1031700012F4906F32D025680969A5EB01096569E1
:1031800005EB450505EBD57501334B446D109D42AC
:1031900038BF1D46530531D5294600F063FB06466E
:1031A00050B90C23CAF80030A38943F04003A3812F
:1031B0004FF0FF30BDE8F08721694A4600F0BEFAC3
:1031C000A38923F4906343F08003A38126616561A2
:1031D0004E44A5EB09052660A5603E46BE4200D9D7
:1031E0003E4620683246414600F0B6FAA3689B1B73
:1031F000A3602368334423600020DBE72A4600F005
:10320000A5FB06460028E1D12169504600F0BEFA30
:10321000C7E700002DE9F04F98468B891B069DB04B
:1032200007460D4614460ED50B6963B9402100F0E0
:1032300019FB2860286120B90C233B604FF0FF3058
:10324000D1E040236B610023099320238DF82930BE
:10325000CDF80C803023DFF8A8818DF82A304FF0AC
:10326000010923469A4613F8012B0AB1252AF9D100
:10327000BAEB040B0BD05B46224629463846FFF7D3
:103280006DFF013000F0AA80099A5A4409929AF819
:103290000030002B00F0A28000234FF0FF32CDE978
:1032A00005230AF1010A049307938DF853301A930A
:1032B0005446052214F8011B5148FCF791FF049A6B
:1032C000D8B9D00644BF20238DF85330110744BF2E
:1032D0002B238DF853309AF800302A2B15D0079AFB
:1032E000544600204FF00A0C214611F8013B303BB8
:1032F000092B4ED9B0B1079214E0A0EB080309FAEC
:1033000003F313430493A246D2E7039B191D1B68E2
:103310000391002BBBBF5B4242F00202079307936D
:10332000B8BF049223782E2B0CD163782A2B35D189
:10333000039B1A1D1B680392002BB8BF4FF0FF338D
:1033400002340593DFF8C8A0217803225046FCF729
:1033500047FF40B14023A0EB0A0003FA00F0049BB2
:1033600003430134049314F8011B26488DF82810F8
:103370000622FCF735FF002838D0234B1BBB039BEC
:10338000073323F0070308330393099B334409935E
:1033900067E70CFB02320C460120A5E7002301344D
:1033A000059319464FF00A0C204610F8012B303ACD
:1033B000092A03D9002BC5D00591C3E70CFB0121D5
:1033C00004460123F0E703AB00932A460F4B04A900
:1033D0003846AFF30080421C0646D6D1AB895B0667
:1033E0003FF52CAF09981DB0BDE8F08F03AB0093FB
:1033F0002A46064B04A9384600F07AF8EBE700BFEE
:10340000643B00086E3B0008000000005D310008CE
:103410006A3B00082DE9F047164699468A680B6911
:10342000DDF820809342B8BF1346336091F8432003
:1034300007460C460AB1013333602368990642BF40
:10344000336802333360256815F0060506D104F1B0
:10345000190AE36832689B1AAB4226DC94F84320D1
:10346000131E226818BF012392062BD404F14302D5
:1034700049463846C04701301ED02368E5683268A7
:1034800003F00603042B08BFAD1AA36822690CBF22
:1034900025EAE57500259342C4BF9B1AED18002666
:1034A0001A34B5421AD1002008E001235246494699
:1034B0003846C047013003D14FF0FF30BDE8F087F8
:1034C0000135C6E7E1185A1C302081F84300224438
:1034D00094F8451082F843100233C7E701232246CF
:1034E00049463846C0470130E6D00136D9E70000EA
:1034F0002DE9FF470F7E0C9D782F914680460C46A4
:103500009A4601F1430207D8622F0AD8002F00F033
:10351000D880582F00F0A38004F1420584F842704F
:103520003AE0A7F16303152BF6D801A151F823F077
:10353000893500089D35000819350008193500083F
:1035400019350008193500089D350008193500089F
:10355000193500081935000819350008A936000882
:10356000CD3500088B3600081935000819350008DC
:10357000CB36000819350008CD350008193500088C
:1035800019350008933600082B681A1D1B682A603D
:1035900004F1420584F842300123A3E02068296841
:1035A000060601F104030AD50E682B60002E03DA2B
:1035B0002D23764284F843305E480A2319E00E68D2
:1035C0002B6010F0400F18BF36B2EFE72B68206871
:1035D000191D2960010601D51E6802E04606FBD5CB
:1035E0001E8854486F2F0CBF08230A23002184F83B
:1035F00043106568A560002DA2BF216821F0040179
:1036000021600EB9002D4DD01546B6FBF3F103FB3A
:103610001167C75D05F8017D3746BB420E46F4D9F8
:10362000082B0BD12368DE0708D52369616899420E
:10363000DEBF302305F8013C05F1FF35521B226146
:10364000CDF800A04B4603AA21464046FFF7E2FE14
:1036500001304CD14FF0FF3004B0BDE8F087354861
:1036600081F845702968236851F8046B29601D06AC
:1036700014D5DF0744BF43F0200323601EB923683D
:1036800023F0200323601023B0E7236843F02003D6
:1036900023607823284884F84530E3E7590648BF7B
:1036A000B6B2E6E71546BBE72B6826686169181DC8
:1036B000286035061B6801D5196002E07006FBD54D
:1036C0001980002323611546BAE72B681A1D2A606A
:1036D0001D68626800212846FCF782FD08B1401B86
:1036E000606063682361002384F84330A8E723699E
:1036F0002A4649464046D0470130ABD023689B0755
:1037000013D4E068039B9842B8BF1846A4E701238E
:10371000324649464046D04701309BD00135E368E8
:1037200003995B1AAB42F2DCEBE7002504F11906C2
:10373000F5E700BF753B0008863B00080A4491424C
:1037400000F1FF3300D1704710B511F8014B03F8B9
:10375000014F9142F9D110BD884210B501EB02042E
:1037600002D98442234607D8431EA14208D011F84B
:10377000012B03F8012FF8E7024401468A4200D1E9
:1037800010BD13F8014D02F8014DF7E737B50029D8
:1037900044D051F8043C0190002BA1F10404B8BFBF
:1037A000E41800F013F91E4A0198136833B96360F6
:1037B000146003B0BDE8304000F00EB9A34208D950
:1037C000256861198B4201BF19685B68491921603E
:1037D000EDE71A465B680BB1A342FAD91168551898
:1037E000A5420BD1246821445418A3421160E0D1B2
:1037F0001C685B68536021441160DAE702D90C232E
:103800000360D6E7256861198B4204BF19685B68BD
:10381000636004BF491921605460CAE703B030BD3A
:10382000D401002070B50E4E0C463168054611B922
:1038300000F0BCF830602146284600F0B7F8431C81
:103840000AD0C41C24F00304A04207D0211A284641
:1038500000F0ACF8013001D14FF0FF34204670BDCC
:10386000D80100202DE9F041CD1C25F003050835D5
:103870000C2D38BF0C25002D074601DBA94205D9C8
:103880000C233B6000263046BDE8F0812E4E00F050
:103890009DF833681C4634BB29463846FFF7C2FF03
:1038A000431C04464DD134682646002E40D123687F
:1038B0003146384604EB030800F078F880453AD1E9
:1038C000216803356D1A25F0030508350C2D38BF26
:1038D0000C2529463846FFF7A5FF01302BD0236879
:1038E0002B4423600EE02268521B1ED40B2A16D9EB
:1038F0006119A342256018BF5960636808BF316031
:1039000062514B60384604F10B0600F065F826F072
:103910000706231DF21AB6D09B1BA350B3E76268BB
:10392000A3420CBF32605A60ECE723466468B2E7FA
:1039300034467668B9E70C233B60384600F04CF813
:10394000A1E72560DEE700BFD40100202DE9F041AA
:10395000804614460E4621B9BDE8F0411146FFF7F6
:1039600081BF2AB9FFF712FF25462846BDE8F0813E
:1039700000F038F88442074602D8B4EB500F12D852
:1039800021464046FFF76EFF05460028EDD0BC42B9
:103990002246314628BF3A46FFF7D0FE3146404620
:1039A000FFF7F4FEE1E73546DFE7000038B5064DE6
:1039B0000023044608462B6000F01EF8431C02D189
:1039C0002B6803B1236038BDDC010020014800F002
:1039D00011B800BFE0010020014800F00CB800BFA2
:1039E000E001002051F8043C181F002BBCBF0B580D
:1039F000C018704770477047044A05491368002B88
:103A000008BF0B461844106018467047E4010020B8
:103A1000E8010020F8B500BFF8BC08BC9E4670471E
:0C3A2000F8B500BFF8BC08BC9E4670471B
:103A2C0053656E736F72204E6F7420526573700005
:103A3C00506F736974696F6E2074686500000000C4
:103A4C00616363656C65726F6D6574657220746F0C
:103A5C0020697473000000007A65726F20706F73B8
:103A6C006974696F6E000000496E697469616C69F4
:103A7C007A65640043616C6962726174696F6E206F
:103A8C00436F6D706C6574650000000041783D20DB
:103A9C002020202020200000252E3266000000006F
:103AAC006720000041793D202020202020200000AC
:103ABC00417A3D20202020202020000047783D2006
:103ACC00202020202020000047793D20202020208D
:103ADC0020200000477A3D202020202020200000BC
:103AEC0020202020202020202020202020202020CA
:103AFC002020202000000000D50D0008B80B00008D
:103B0C0001000000010000006D0F0008F40100002E
:103B1C000100000002000000C50B0008E8030000D3
:103B2C000200000003000000450E0008D007000052
:103B3C00010000000100000000061016000610161F
:103B4C000000000000000000010203040607080941
:103B5C000000000001020304232D302B2000686CB0
:103B6C004C00656667454647003031323334353694
:103B7C0037383941424344454600303132333435CD
:0C3B8C00363738396162636465660000FA
:083B980090CAFF7F010000004C
:043BA000C501000853
:043BA400A101000873
:103BA80001000000100000000024F40010000020B4
:103BB80000000000000000000000000000000000FD
:103BC80000000000000000000000000000000000ED
:103BD80000000000000000000000000000000000DD
:103BE80000000000000000000000000000000000CD
:103BF80000000000000000000000000000000000BD
:103C080000000000000000000000000000000000AC
:04000005080030714E
:00000001FF
